
/Users/andrew/Development/n64_gamecat/n64_gamecat/cmake-build-debug/n64_gamecat.elf:     file format elf32-littlearm

Sections:
Idx Name          Size      VMA       LMA       File off  Algn
  0 .boot2        00000100  10000000  10000000  00001000  2**0
                  CONTENTS, ALLOC, LOAD, READONLY, CODE
  1 .text         0000f134  10000100  10000100  00001100  2**3
                  CONTENTS, ALLOC, LOAD, READONLY, CODE
  2 .rodata       000027e8  1000f238  1000f238  00010238  2**3
                  CONTENTS, ALLOC, LOAD, READONLY, DATA
  3 .ARM.extab    00000124  10011a20  10011a20  00012a20  2**2
                  CONTENTS, ALLOC, LOAD, READONLY, DATA
  4 .ARM.exidx    000001d8  10011b44  10011b44  00012b44  2**2
                  CONTENTS, ALLOC, LOAD, READONLY, DATA
  5 .binary_info  00000028  10011d1c  10011d1c  00012d1c  2**2
                  CONTENTS, ALLOC, LOAD, READONLY, DATA
  6 .ram_vector_table 000000c0  20000000  20000000  00015000  2**2
                  ALLOC
  7 .uninitialized_data 00000000  200000c0  200000c0  0001480c  2**0
                  CONTENTS
  8 .data         0000174c  200000c0  10011d44  000130c0  2**4
                  CONTENTS, ALLOC, LOAD, READONLY, CODE
  9 .tdata        00000000  2000180c  2000180c  0001480c  2**0
                  CONTENTS, ALLOC, LOAD, DATA, THREAD_LOCAL
 10 .tbss         00000000  2000180c  2000180c  00000000  2**0
                  ALLOC, THREAD_LOCAL
 11 .bss          000005b4  20001810  10013490  00014810  2**3
                  ALLOC
 12 .heap         0003e23c  20001dc4  10013490  00014dc4  2**2
                  ALLOC, READONLY
 13 .scratch_x    00000000  20040000  20040000  0001480c  2**0
                  CONTENTS
 14 .scratch_y    00000000  20041000  20041000  0001480c  2**0
                  CONTENTS
 15 .stack_dummy  00000800  20041000  20041000  00014820  2**5
                  CONTENTS, READONLY
 16 .ARM.attributes 00000028  00000000  00000000  00015020  2**0
                  CONTENTS, READONLY
 17 .comment      00000045  00000000  00000000  00015048  2**0
                  CONTENTS, READONLY
 18 .debug_info   00025f0d  00000000  00000000  0001508d  2**0
                  CONTENTS, READONLY, DEBUGGING, OCTETS
 19 .debug_abbrev 0000667a  00000000  00000000  0003af9a  2**0
                  CONTENTS, READONLY, DEBUGGING, OCTETS
 20 .debug_loclists 0000cf2f  00000000  00000000  00041614  2**0
                  CONTENTS, READONLY, DEBUGGING, OCTETS
 21 .debug_aranges 000012f0  00000000  00000000  0004e548  2**3
                  CONTENTS, READONLY, DEBUGGING, OCTETS
 22 .debug_rnglists 000012b3  00000000  00000000  0004f838  2**0
                  CONTENTS, READONLY, DEBUGGING, OCTETS
 23 .debug_line   0001387f  00000000  00000000  00050aeb  2**0
                  CONTENTS, READONLY, DEBUGGING, OCTETS
 24 .debug_str    0000bd39  00000000  00000000  0006436a  2**0
                  CONTENTS, READONLY, DEBUGGING, OCTETS
 25 .debug_frame  000062cc  00000000  00000000  000700a4  2**2
                  CONTENTS, READONLY, DEBUGGING, OCTETS
 26 .debug_line_str 00000472  00000000  00000000  00076370  2**0
                  CONTENTS, READONLY, DEBUGGING, OCTETS

/Users/andrew/Development/n64_gamecat/n64_gamecat/cmake-build-debug/n64_gamecat.elf:     file format elf32-littlearm


Disassembly of section .boot2:

10000000 <__boot2_start__>:
10000000:	4b32b500 	.word	0x4b32b500
10000004:	60582021 	.word	0x60582021
10000008:	21026898 	.word	0x21026898
1000000c:	60984388 	.word	0x60984388
10000010:	611860d8 	.word	0x611860d8
10000014:	4b2e6158 	.word	0x4b2e6158
10000018:	60992100 	.word	0x60992100
1000001c:	61592102 	.word	0x61592102
10000020:	22f02101 	.word	0x22f02101
10000024:	492b5099 	.word	0x492b5099
10000028:	21016019 	.word	0x21016019
1000002c:	20356099 	.word	0x20356099
10000030:	f844f000 	.word	0xf844f000
10000034:	42902202 	.word	0x42902202
10000038:	2106d014 	.word	0x2106d014
1000003c:	f0006619 	.word	0xf0006619
10000040:	6e19f834 	.word	0x6e19f834
10000044:	66192101 	.word	0x66192101
10000048:	66182000 	.word	0x66182000
1000004c:	f000661a 	.word	0xf000661a
10000050:	6e19f82c 	.word	0x6e19f82c
10000054:	6e196e19 	.word	0x6e196e19
10000058:	f0002005 	.word	0xf0002005
1000005c:	2101f82f 	.word	0x2101f82f
10000060:	d1f94208 	.word	0xd1f94208
10000064:	60992100 	.word	0x60992100
10000068:	6019491b 	.word	0x6019491b
1000006c:	60592100 	.word	0x60592100
10000070:	481b491a 	.word	0x481b491a
10000074:	21016001 	.word	0x21016001
10000078:	21eb6099 	.word	0x21eb6099
1000007c:	21a06619 	.word	0x21a06619
10000080:	f0006619 	.word	0xf0006619
10000084:	2100f812 	.word	0x2100f812
10000088:	49166099 	.word	0x49166099
1000008c:	60014814 	.word	0x60014814
10000090:	60992101 	.word	0x60992101
10000094:	2800bc01 	.word	0x2800bc01
10000098:	4700d000 	.word	0x4700d000
1000009c:	49134812 	.word	0x49134812
100000a0:	c8036008 	.word	0xc8036008
100000a4:	8808f380 	.word	0x8808f380
100000a8:	b5034708 	.word	0xb5034708
100000ac:	20046a99 	.word	0x20046a99
100000b0:	d0fb4201 	.word	0xd0fb4201
100000b4:	42012001 	.word	0x42012001
100000b8:	bd03d1f8 	.word	0xbd03d1f8
100000bc:	6618b502 	.word	0x6618b502
100000c0:	f7ff6618 	.word	0xf7ff6618
100000c4:	6e18fff2 	.word	0x6e18fff2
100000c8:	bd026e18 	.word	0xbd026e18
100000cc:	40020000 	.word	0x40020000
100000d0:	18000000 	.word	0x18000000
100000d4:	00070000 	.word	0x00070000
100000d8:	005f0300 	.word	0x005f0300
100000dc:	00002221 	.word	0x00002221
100000e0:	180000f4 	.word	0x180000f4
100000e4:	a0002022 	.word	0xa0002022
100000e8:	10000100 	.word	0x10000100
100000ec:	e000ed08 	.word	0xe000ed08
	...
100000fc:	7a4eb274 	.word	0x7a4eb274

Disassembly of section .text:

10000100 <__VECTOR_TABLE>:
10000100:	20042000 	.word	0x20042000
10000104:	100001f7 	.word	0x100001f7
10000108:	100001c3 	.word	0x100001c3
1000010c:	100001c5 	.word	0x100001c5
10000110:	100001c1 	.word	0x100001c1
10000114:	100001c1 	.word	0x100001c1
10000118:	100001c1 	.word	0x100001c1
1000011c:	100001c1 	.word	0x100001c1
10000120:	100001c1 	.word	0x100001c1
10000124:	100001c1 	.word	0x100001c1
10000128:	100001c1 	.word	0x100001c1
1000012c:	100001c7 	.word	0x100001c7
10000130:	100001c1 	.word	0x100001c1
10000134:	100001c1 	.word	0x100001c1
10000138:	100001c9 	.word	0x100001c9
1000013c:	100001cb 	.word	0x100001cb
10000140:	100001cd 	.word	0x100001cd
10000144:	100001cd 	.word	0x100001cd
10000148:	100001cd 	.word	0x100001cd
1000014c:	100001cd 	.word	0x100001cd
10000150:	100001cd 	.word	0x100001cd
10000154:	100001cd 	.word	0x100001cd
10000158:	100001cd 	.word	0x100001cd
1000015c:	100001cd 	.word	0x100001cd
10000160:	100001cd 	.word	0x100001cd
10000164:	100001cd 	.word	0x100001cd
10000168:	100001cd 	.word	0x100001cd
1000016c:	100001cd 	.word	0x100001cd
10000170:	100001cd 	.word	0x100001cd
10000174:	100001cd 	.word	0x100001cd
10000178:	100001cd 	.word	0x100001cd
1000017c:	100001cd 	.word	0x100001cd
10000180:	100001cd 	.word	0x100001cd
10000184:	100001cd 	.word	0x100001cd
10000188:	100001cd 	.word	0x100001cd
1000018c:	100001cd 	.word	0x100001cd
10000190:	100001cd 	.word	0x100001cd
10000194:	100001cd 	.word	0x100001cd
10000198:	100001cd 	.word	0x100001cd
1000019c:	100001cd 	.word	0x100001cd
100001a0:	100001cd 	.word	0x100001cd
100001a4:	100001cd 	.word	0x100001cd
100001a8:	100001cd 	.word	0x100001cd
100001ac:	100001cd 	.word	0x100001cd
100001b0:	100001cd 	.word	0x100001cd
100001b4:	100001cd 	.word	0x100001cd
100001b8:	100001cd 	.word	0x100001cd
100001bc:	100001cd 	.word	0x100001cd

100001c0 <isr_invalid>:
100001c0:	be00      	bkpt	0x0000

100001c2 <isr_nmi>:
100001c2:	be00      	bkpt	0x0000

100001c4 <isr_hardfault>:
100001c4:	be00      	bkpt	0x0000

100001c6 <isr_svcall>:
100001c6:	be00      	bkpt	0x0000

100001c8 <isr_pendsv>:
100001c8:	be00      	bkpt	0x0000

100001ca <isr_systick>:
100001ca:	be00      	bkpt	0x0000

100001cc <__unhandled_user_irq>:
100001cc:	f3ef 8005 	mrs	r0, IPSR
100001d0:	3810      	subs	r0, #16

100001d2 <unhandled_user_irq_num_in_r0>:
100001d2:	be00      	bkpt	0x0000

100001d4 <binary_info_header>:
100001d4:	7188ebf2 	.word	0x7188ebf2
100001d8:	10011d1c 	.word	0x10011d1c
100001dc:	10011d44 	.word	0x10011d44
100001e0:	10000238 	.word	0x10000238
100001e4:	e71aa390 	.word	0xe71aa390

100001e8 <_entry_point>:
100001e8:	481e      	ldr	r0, [pc, #120]	@ (10000264 <data_cpy_table+0x2c>)

100001ea <_enter_vtable_in_r0>:
100001ea:	491f      	ldr	r1, [pc, #124]	@ (10000268 <data_cpy_table+0x30>)
100001ec:	6008      	str	r0, [r1, #0]
100001ee:	c806      	ldmia	r0!, {r1, r2}
100001f0:	f381 8808 	msr	MSP, r1
100001f4:	4710      	bx	r2

100001f6 <_reset_handler>:
100001f6:	481d      	ldr	r0, [pc, #116]	@ (1000026c <data_cpy_table+0x34>)
100001f8:	6800      	ldr	r0, [r0, #0]
100001fa:	2800      	cmp	r0, #0
100001fc:	d001      	beq.n	10000202 <hold_non_core0_in_bootrom+0x4>

100001fe <hold_non_core0_in_bootrom>:
100001fe:	4819      	ldr	r0, [pc, #100]	@ (10000264 <data_cpy_table+0x2c>)
10000200:	e7f3      	b.n	100001ea <_enter_vtable_in_r0>
10000202:	a40d      	add	r4, pc, #52	@ (adr r4, 10000238 <data_cpy_table>)
10000204:	cc0e      	ldmia	r4!, {r1, r2, r3}
10000206:	2900      	cmp	r1, #0
10000208:	d002      	beq.n	10000210 <hold_non_core0_in_bootrom+0x12>
1000020a:	f000 f812 	bl	10000232 <data_cpy>
1000020e:	e7f9      	b.n	10000204 <hold_non_core0_in_bootrom+0x6>
10000210:	4917      	ldr	r1, [pc, #92]	@ (10000270 <data_cpy_table+0x38>)
10000212:	4a18      	ldr	r2, [pc, #96]	@ (10000274 <data_cpy_table+0x3c>)
10000214:	2000      	movs	r0, #0
10000216:	e000      	b.n	1000021a <bss_fill_test>

10000218 <bss_fill_loop>:
10000218:	c101      	stmia	r1!, {r0}

1000021a <bss_fill_test>:
1000021a:	4291      	cmp	r1, r2
1000021c:	d1fc      	bne.n	10000218 <bss_fill_loop>

1000021e <platform_entry>:
1000021e:	4916      	ldr	r1, [pc, #88]	@ (10000278 <data_cpy_table+0x40>)
10000220:	4788      	blx	r1
10000222:	4916      	ldr	r1, [pc, #88]	@ (1000027c <data_cpy_table+0x44>)
10000224:	4788      	blx	r1
10000226:	4916      	ldr	r1, [pc, #88]	@ (10000280 <data_cpy_table+0x48>)
10000228:	4788      	blx	r1
1000022a:	be00      	bkpt	0x0000
1000022c:	e7fd      	b.n	1000022a <platform_entry+0xc>

1000022e <data_cpy_loop>:
1000022e:	c901      	ldmia	r1!, {r0}
10000230:	c201      	stmia	r2!, {r0}

10000232 <data_cpy>:
10000232:	429a      	cmp	r2, r3
10000234:	d3fb      	bcc.n	1000022e <data_cpy_loop>
10000236:	4770      	bx	lr

10000238 <data_cpy_table>:
10000238:	10011d44 	.word	0x10011d44
1000023c:	200000c0 	.word	0x200000c0
10000240:	2000180c 	.word	0x2000180c
10000244:	10013490 	.word	0x10013490
10000248:	20040000 	.word	0x20040000
1000024c:	20040000 	.word	0x20040000
10000250:	10013490 	.word	0x10013490
10000254:	20041000 	.word	0x20041000
10000258:	20041000 	.word	0x20041000
1000025c:	00000000 	.word	0x00000000
10000260:	4770      	bx	lr
10000262:	0000      	.short	0x0000
10000264:	00000000 	.word	0x00000000
10000268:	e000ed08 	.word	0xe000ed08
1000026c:	d0000000 	.word	0xd0000000
10000270:	2000180c 	.word	0x2000180c
10000274:	20001dc4 	.word	0x20001dc4
10000278:	10004341 	.word	0x10004341
1000027c:	10000a71 	.word	0x10000a71
10000280:	10004301 	.word	0x10004301

10000284 <_init>:
10000284:	b5f8      	push	{r3, r4, r5, r6, r7, lr}
10000286:	46c0      	nop			@ (mov r8, r8)

10000288 <register_tm_clones>:
10000288:	4806      	ldr	r0, [pc, #24]	@ (100002a4 <register_tm_clones+0x1c>)
1000028a:	4907      	ldr	r1, [pc, #28]	@ (100002a8 <register_tm_clones+0x20>)
1000028c:	1a09      	subs	r1, r1, r0
1000028e:	108b      	asrs	r3, r1, #2
10000290:	0fc9      	lsrs	r1, r1, #31
10000292:	18c9      	adds	r1, r1, r3
10000294:	b510      	push	{r4, lr}
10000296:	1049      	asrs	r1, r1, #1
10000298:	d003      	beq.n	100002a2 <register_tm_clones+0x1a>
1000029a:	4b04      	ldr	r3, [pc, #16]	@ (100002ac <register_tm_clones+0x24>)
1000029c:	2b00      	cmp	r3, #0
1000029e:	d000      	beq.n	100002a2 <register_tm_clones+0x1a>
100002a0:	4798      	blx	r3
100002a2:	bd10      	pop	{r4, pc}
100002a4:	2000180c 	.word	0x2000180c
100002a8:	2000180c 	.word	0x2000180c
100002ac:	00000000 	.word	0x00000000

100002b0 <frame_dummy>:
100002b0:	4b05      	ldr	r3, [pc, #20]	@ (100002c8 <frame_dummy+0x18>)
100002b2:	b510      	push	{r4, lr}
100002b4:	2b00      	cmp	r3, #0
100002b6:	d003      	beq.n	100002c0 <frame_dummy+0x10>
100002b8:	4904      	ldr	r1, [pc, #16]	@ (100002cc <frame_dummy+0x1c>)
100002ba:	4805      	ldr	r0, [pc, #20]	@ (100002d0 <frame_dummy+0x20>)
100002bc:	e000      	b.n	100002c0 <frame_dummy+0x10>
100002be:	bf00      	nop
100002c0:	f7ff ffe2 	bl	10000288 <register_tm_clones>
100002c4:	bd10      	pop	{r4, pc}
100002c6:	46c0      	nop			@ (mov r8, r8)
100002c8:	00000000 	.word	0x00000000
100002cc:	20001b88 	.word	0x20001b88
100002d0:	1000f234 	.word	0x1000f234

100002d4 <_ZL31demo_program_get_default_configj>:
100002d4:	b570      	push	{r4, r5, r6, lr}
100002d6:	0004      	movs	r4, r0
100002d8:	000d      	movs	r5, r1
100002da:	2210      	movs	r2, #16
100002dc:	2100      	movs	r1, #0
100002de:	f002 feab 	bl	10003038 <__wrap_memset>
100002e2:	2380      	movs	r3, #128	@ 0x80
100002e4:	025b      	lsls	r3, r3, #9
100002e6:	6023      	str	r3, [r4, #0]
100002e8:	23f8      	movs	r3, #248	@ 0xf8
100002ea:	025b      	lsls	r3, r3, #9
100002ec:	6063      	str	r3, [r4, #4]
100002ee:	2380      	movs	r3, #128	@ 0x80
100002f0:	02db      	lsls	r3, r3, #11
100002f2:	60a3      	str	r3, [r4, #8]
100002f4:	23c0      	movs	r3, #192	@ 0xc0
100002f6:	031b      	lsls	r3, r3, #12
100002f8:	60a3      	str	r3, [r4, #8]
100002fa:	1c6b      	adds	r3, r5, #1
100002fc:	01ed      	lsls	r5, r5, #7
100002fe:	031b      	lsls	r3, r3, #12
10000300:	431d      	orrs	r5, r3
10000302:	6065      	str	r5, [r4, #4]
10000304:	2380      	movs	r3, #128	@ 0x80
10000306:	059b      	lsls	r3, r3, #22
10000308:	60e3      	str	r3, [r4, #12]
1000030a:	4b02      	ldr	r3, [pc, #8]	@ (10000314 <_ZL31demo_program_get_default_configj+0x40>)
1000030c:	401d      	ands	r5, r3
1000030e:	6065      	str	r5, [r4, #4]
10000310:	0020      	movs	r0, r4
10000312:	bd70      	pop	{r4, r5, r6, pc}
10000314:	9fffffff 	.word	0x9fffffff

10000318 <set_sys_clock_khz>:
10000318:	b570      	push	{r4, r5, r6, lr}
1000031a:	b084      	sub	sp, #16
1000031c:	0006      	movs	r6, r0
1000031e:	000c      	movs	r4, r1
10000320:	ab01      	add	r3, sp, #4
10000322:	aa02      	add	r2, sp, #8
10000324:	a903      	add	r1, sp, #12
10000326:	f001 fd2d 	bl	10001d84 <check_sys_clock_khz>
1000032a:	1e05      	subs	r5, r0, #0
1000032c:	d104      	bne.n	10000338 <set_sys_clock_khz+0x20>
1000032e:	2c00      	cmp	r4, #0
10000330:	d109      	bne.n	10000346 <set_sys_clock_khz+0x2e>
10000332:	0020      	movs	r0, r4
10000334:	b004      	add	sp, #16
10000336:	bd70      	pop	{r4, r5, r6, pc}
10000338:	9a01      	ldr	r2, [sp, #4]
1000033a:	9902      	ldr	r1, [sp, #8]
1000033c:	9803      	ldr	r0, [sp, #12]
1000033e:	f001 fced 	bl	10001d1c <set_sys_clock_pll>
10000342:	002c      	movs	r4, r5
10000344:	e7f5      	b.n	10000332 <set_sys_clock_khz+0x1a>
10000346:	4802      	ldr	r0, [pc, #8]	@ (10000350 <set_sys_clock_khz+0x38>)
10000348:	0031      	movs	r1, r6
1000034a:	f000 fcc5 	bl	10000cd8 <panic>
1000034e:	46c0      	nop			@ (mov r8, r8)
10000350:	1000f238 	.word	0x1000f238

10000354 <_Z17demo_program_initP8pio_hw_tjjj>:
10000354:	b5f0      	push	{r4, r5, r6, r7, lr}
10000356:	46c6      	mov	lr, r8
10000358:	b500      	push	{lr}
1000035a:	b086      	sub	sp, #24
1000035c:	0006      	movs	r6, r0
1000035e:	000f      	movs	r7, r1
10000360:	4690      	mov	r8, r2
10000362:	001d      	movs	r5, r3
10000364:	2400      	movs	r4, #0
10000366:	e009      	b.n	1000037c <_Z17demo_program_initP8pio_hw_tjjj+0x28>
10000368:	1960      	adds	r0, r4, r5
1000036a:	4b1b      	ldr	r3, [pc, #108]	@ (100003d8 <_Z17demo_program_initP8pio_hw_tjjj+0x84>)
1000036c:	18f1      	adds	r1, r6, r3
1000036e:	0d09      	lsrs	r1, r1, #20
10000370:	b2c9      	uxtb	r1, r1
10000372:	3106      	adds	r1, #6
10000374:	b2c9      	uxtb	r1, r1
10000376:	f000 fc79 	bl	10000c6c <gpio_set_function>
1000037a:	3401      	adds	r4, #1
1000037c:	2c0e      	cmp	r4, #14
1000037e:	ddf3      	ble.n	10000368 <_Z17demo_program_initP8pio_hw_tjjj+0x14>
10000380:	2301      	movs	r3, #1
10000382:	9300      	str	r3, [sp, #0]
10000384:	330d      	adds	r3, #13
10000386:	002a      	movs	r2, r5
10000388:	0039      	movs	r1, r7
1000038a:	0030      	movs	r0, r6
1000038c:	f004 fb56 	bl	10004a3c <pio_sm_set_consecutive_pindirs>
10000390:	4641      	mov	r1, r8
10000392:	a802      	add	r0, sp, #8
10000394:	f7ff ff9e 	bl	100002d4 <_ZL31demo_program_get_default_configj>
10000398:	9b05      	ldr	r3, [sp, #20]
1000039a:	221f      	movs	r2, #31
1000039c:	4393      	bics	r3, r2
1000039e:	402a      	ands	r2, r5
100003a0:	4313      	orrs	r3, r2
100003a2:	9305      	str	r3, [sp, #20]
100003a4:	490d      	ldr	r1, [pc, #52]	@ (100003dc <_Z17demo_program_initP8pio_hw_tjjj+0x88>)
100003a6:	4019      	ands	r1, r3
100003a8:	22e0      	movs	r2, #224	@ 0xe0
100003aa:	0412      	lsls	r2, r2, #16
100003ac:	4311      	orrs	r1, r2
100003ae:	9105      	str	r1, [sp, #20]
100003b0:	350d      	adds	r5, #13
100003b2:	490b      	ldr	r1, [pc, #44]	@ (100003e0 <_Z17demo_program_initP8pio_hw_tjjj+0x8c>)
100003b4:	400b      	ands	r3, r1
100003b6:	431a      	orrs	r2, r3
100003b8:	02ad      	lsls	r5, r5, #10
100003ba:	23f8      	movs	r3, #248	@ 0xf8
100003bc:	01db      	lsls	r3, r3, #7
100003be:	401d      	ands	r5, r3
100003c0:	432a      	orrs	r2, r5
100003c2:	9205      	str	r2, [sp, #20]
100003c4:	ab02      	add	r3, sp, #8
100003c6:	4642      	mov	r2, r8
100003c8:	0039      	movs	r1, r7
100003ca:	0030      	movs	r0, r6
100003cc:	f004 fb90 	bl	10004af0 <pio_sm_init>
100003d0:	b006      	add	sp, #24
100003d2:	bc80      	pop	{r7}
100003d4:	46b8      	mov	r8, r7
100003d6:	bdf0      	pop	{r4, r5, r6, r7, pc}
100003d8:	afe00000 	.word	0xafe00000
100003dc:	fc0fffff 	.word	0xfc0fffff
100003e0:	fc0f83ff 	.word	0xfc0f83ff

100003e4 <_Z22demo_read_program_initP8pio_hw_tjjj>:
100003e4:	b5f0      	push	{r4, r5, r6, r7, lr}
100003e6:	46c6      	mov	lr, r8
100003e8:	b500      	push	{lr}
100003ea:	b086      	sub	sp, #24
100003ec:	0005      	movs	r5, r0
100003ee:	4688      	mov	r8, r1
100003f0:	0017      	movs	r7, r2
100003f2:	001e      	movs	r6, r3
100003f4:	2400      	movs	r4, #0
100003f6:	e009      	b.n	1000040c <_Z22demo_read_program_initP8pio_hw_tjjj+0x28>
100003f8:	19a0      	adds	r0, r4, r6
100003fa:	4b1d      	ldr	r3, [pc, #116]	@ (10000470 <_Z22demo_read_program_initP8pio_hw_tjjj+0x8c>)
100003fc:	18e9      	adds	r1, r5, r3
100003fe:	0d09      	lsrs	r1, r1, #20
10000400:	b2c9      	uxtb	r1, r1
10000402:	3106      	adds	r1, #6
10000404:	b2c9      	uxtb	r1, r1
10000406:	f000 fc31 	bl	10000c6c <gpio_set_function>
1000040a:	3401      	adds	r4, #1
1000040c:	2c10      	cmp	r4, #16
1000040e:	ddf3      	ble.n	100003f8 <_Z22demo_read_program_initP8pio_hw_tjjj+0x14>
10000410:	2301      	movs	r3, #1
10000412:	9300      	str	r3, [sp, #0]
10000414:	330f      	adds	r3, #15
10000416:	0032      	movs	r2, r6
10000418:	4641      	mov	r1, r8
1000041a:	0028      	movs	r0, r5
1000041c:	f004 fb0e 	bl	10004a3c <pio_sm_set_consecutive_pindirs>
10000420:	2210      	movs	r2, #16
10000422:	2100      	movs	r1, #0
10000424:	a802      	add	r0, sp, #8
10000426:	f002 fe07 	bl	10003038 <__wrap_memset>
1000042a:	2380      	movs	r3, #128	@ 0x80
1000042c:	025b      	lsls	r3, r3, #9
1000042e:	9302      	str	r3, [sp, #8]
10000430:	23f8      	movs	r3, #248	@ 0xf8
10000432:	025b      	lsls	r3, r3, #9
10000434:	9303      	str	r3, [sp, #12]
10000436:	2380      	movs	r3, #128	@ 0x80
10000438:	02db      	lsls	r3, r3, #11
1000043a:	9304      	str	r3, [sp, #16]
1000043c:	23c0      	movs	r3, #192	@ 0xc0
1000043e:	031b      	lsls	r3, r3, #12
10000440:	9304      	str	r3, [sp, #16]
10000442:	1c7a      	adds	r2, r7, #1
10000444:	01fb      	lsls	r3, r7, #7
10000446:	0312      	lsls	r2, r2, #12
10000448:	4313      	orrs	r3, r2
1000044a:	9303      	str	r3, [sp, #12]
1000044c:	231f      	movs	r3, #31
1000044e:	4033      	ands	r3, r6
10000450:	9305      	str	r3, [sp, #20]
10000452:	2280      	movs	r2, #128	@ 0x80
10000454:	0452      	lsls	r2, r2, #17
10000456:	4313      	orrs	r3, r2
10000458:	9305      	str	r3, [sp, #20]
1000045a:	ab02      	add	r3, sp, #8
1000045c:	003a      	movs	r2, r7
1000045e:	4641      	mov	r1, r8
10000460:	0028      	movs	r0, r5
10000462:	f004 fb45 	bl	10004af0 <pio_sm_init>
10000466:	b006      	add	sp, #24
10000468:	bc80      	pop	{r7}
1000046a:	46b8      	mov	r8, r7
1000046c:	bdf0      	pop	{r4, r5, r6, r7, pc}
1000046e:	46c0      	nop			@ (mov r8, r8)
10000470:	afe00000 	.word	0xafe00000

10000474 <_ZNSt6vectorImSaImEE4backEv>:
10000474:	6840      	ldr	r0, [r0, #4]
10000476:	3804      	subs	r0, #4
10000478:	4770      	bx	lr
	...

1000047c <_ZNKSt6vectorI4WireSaIS0_EE12_M_check_lenEjPKc>:
1000047c:	b570      	push	{r4, r5, r6, lr}
1000047e:	b084      	sub	sp, #16
10000480:	0005      	movs	r5, r0
10000482:	9101      	str	r1, [sp, #4]
10000484:	6841      	ldr	r1, [r0, #4]
10000486:	6804      	ldr	r4, [r0, #0]
10000488:	1b0c      	subs	r4, r1, r4
1000048a:	10e4      	asrs	r4, r4, #3
1000048c:	00a3      	lsls	r3, r4, #2
1000048e:	191b      	adds	r3, r3, r4
10000490:	0118      	lsls	r0, r3, #4
10000492:	181b      	adds	r3, r3, r0
10000494:	0218      	lsls	r0, r3, #8
10000496:	181b      	adds	r3, r3, r0
10000498:	0418      	lsls	r0, r3, #16
1000049a:	181b      	adds	r3, r3, r0
1000049c:	005b      	lsls	r3, r3, #1
1000049e:	191b      	adds	r3, r3, r4
100004a0:	4813      	ldr	r0, [pc, #76]	@ (100004f0 <_ZNKSt6vectorI4WireSaIS0_EE12_M_check_lenEjPKc+0x74>)
100004a2:	1ac0      	subs	r0, r0, r3
100004a4:	9c01      	ldr	r4, [sp, #4]
100004a6:	42a0      	cmp	r0, r4
100004a8:	d319      	bcc.n	100004de <_ZNKSt6vectorI4WireSaIS0_EE12_M_check_lenEjPKc+0x62>
100004aa:	9303      	str	r3, [sp, #12]
100004ac:	429c      	cmp	r4, r3
100004ae:	d819      	bhi.n	100004e4 <_ZNKSt6vectorI4WireSaIS0_EE12_M_check_lenEjPKc+0x68>
100004b0:	aa03      	add	r2, sp, #12
100004b2:	6810      	ldr	r0, [r2, #0]
100004b4:	18c0      	adds	r0, r0, r3
100004b6:	682a      	ldr	r2, [r5, #0]
100004b8:	1a8a      	subs	r2, r1, r2
100004ba:	10d2      	asrs	r2, r2, #3
100004bc:	0093      	lsls	r3, r2, #2
100004be:	189b      	adds	r3, r3, r2
100004c0:	0119      	lsls	r1, r3, #4
100004c2:	185b      	adds	r3, r3, r1
100004c4:	0219      	lsls	r1, r3, #8
100004c6:	185b      	adds	r3, r3, r1
100004c8:	0419      	lsls	r1, r3, #16
100004ca:	185b      	adds	r3, r3, r1
100004cc:	005b      	lsls	r3, r3, #1
100004ce:	189b      	adds	r3, r3, r2
100004d0:	4298      	cmp	r0, r3
100004d2:	d309      	bcc.n	100004e8 <_ZNKSt6vectorI4WireSaIS0_EE12_M_check_lenEjPKc+0x6c>
100004d4:	4b06      	ldr	r3, [pc, #24]	@ (100004f0 <_ZNKSt6vectorI4WireSaIS0_EE12_M_check_lenEjPKc+0x74>)
100004d6:	4298      	cmp	r0, r3
100004d8:	d808      	bhi.n	100004ec <_ZNKSt6vectorI4WireSaIS0_EE12_M_check_lenEjPKc+0x70>
100004da:	b004      	add	sp, #16
100004dc:	bd70      	pop	{r4, r5, r6, pc}
100004de:	0010      	movs	r0, r2
100004e0:	f004 fb98 	bl	10004c14 <_ZSt20__throw_length_errorPKc>
100004e4:	aa01      	add	r2, sp, #4
100004e6:	e7e4      	b.n	100004b2 <_ZNKSt6vectorI4WireSaIS0_EE12_M_check_lenEjPKc+0x36>
100004e8:	4801      	ldr	r0, [pc, #4]	@ (100004f0 <_ZNKSt6vectorI4WireSaIS0_EE12_M_check_lenEjPKc+0x74>)
100004ea:	e7f6      	b.n	100004da <_ZNKSt6vectorI4WireSaIS0_EE12_M_check_lenEjPKc+0x5e>
100004ec:	4800      	ldr	r0, [pc, #0]	@ (100004f0 <_ZNKSt6vectorI4WireSaIS0_EE12_M_check_lenEjPKc+0x74>)
100004ee:	e7f4      	b.n	100004da <_ZNKSt6vectorI4WireSaIS0_EE12_M_check_lenEjPKc+0x5e>
100004f0:	05555555 	.word	0x05555555

100004f4 <_ZNSt15__new_allocatorI4WireE10deallocateEPS0_j>:
100004f4:	b510      	push	{r4, lr}
100004f6:	0008      	movs	r0, r1
100004f8:	0053      	lsls	r3, r2, #1
100004fa:	189a      	adds	r2, r3, r2
100004fc:	00d1      	lsls	r1, r2, #3
100004fe:	f002 fdaf 	bl	10003060 <_ZdlPvj>
10000502:	bd10      	pop	{r4, pc}

10000504 <_ZNSt12_Vector_baseI4WireSaIS0_EED1Ev>:
10000504:	b510      	push	{r4, lr}
10000506:	0004      	movs	r4, r0
10000508:	6801      	ldr	r1, [r0, #0]
1000050a:	6882      	ldr	r2, [r0, #8]
1000050c:	1a52      	subs	r2, r2, r1
1000050e:	10d2      	asrs	r2, r2, #3
10000510:	0093      	lsls	r3, r2, #2
10000512:	189b      	adds	r3, r3, r2
10000514:	0118      	lsls	r0, r3, #4
10000516:	181b      	adds	r3, r3, r0
10000518:	0218      	lsls	r0, r3, #8
1000051a:	181b      	adds	r3, r3, r0
1000051c:	0418      	lsls	r0, r3, #16
1000051e:	181b      	adds	r3, r3, r0
10000520:	005b      	lsls	r3, r3, #1
10000522:	189a      	adds	r2, r3, r2
10000524:	2900      	cmp	r1, #0
10000526:	d002      	beq.n	1000052e <_ZNSt12_Vector_baseI4WireSaIS0_EED1Ev+0x2a>
10000528:	0020      	movs	r0, r4
1000052a:	f7ff ffe3 	bl	100004f4 <_ZNSt15__new_allocatorI4WireE10deallocateEPS0_j>
1000052e:	0020      	movs	r0, r4
10000530:	bd10      	pop	{r4, pc}

10000532 <_ZNSt15__new_allocatorImE10deallocateEPmj>:
10000532:	b510      	push	{r4, lr}
10000534:	0008      	movs	r0, r1
10000536:	0091      	lsls	r1, r2, #2
10000538:	f002 fd92 	bl	10003060 <_ZdlPvj>
1000053c:	bd10      	pop	{r4, pc}

1000053e <_ZNSt12_Vector_baseImSaImEED1Ev>:
1000053e:	b510      	push	{r4, lr}
10000540:	0004      	movs	r4, r0
10000542:	6801      	ldr	r1, [r0, #0]
10000544:	6882      	ldr	r2, [r0, #8]
10000546:	1a52      	subs	r2, r2, r1
10000548:	1092      	asrs	r2, r2, #2
1000054a:	2900      	cmp	r1, #0
1000054c:	d001      	beq.n	10000552 <_ZNSt12_Vector_baseImSaImEED1Ev+0x14>
1000054e:	f7ff fff0 	bl	10000532 <_ZNSt15__new_allocatorImE10deallocateEPmj>
10000552:	0020      	movs	r0, r4
10000554:	bd10      	pop	{r4, pc}

10000556 <_ZNSt6vectorImSaImEED1Ev>:
10000556:	b510      	push	{r4, lr}
10000558:	0004      	movs	r4, r0
1000055a:	f7ff fff0 	bl	1000053e <_ZNSt12_Vector_baseImSaImEED1Ev>
1000055e:	0020      	movs	r0, r4
10000560:	bd10      	pop	{r4, pc}

10000562 <_ZSt8_DestroyIP4WireEvT_S2_>:
10000562:	b570      	push	{r4, r5, r6, lr}
10000564:	0004      	movs	r4, r0
10000566:	000d      	movs	r5, r1
10000568:	e003      	b.n	10000572 <_ZSt8_DestroyIP4WireEvT_S2_+0x10>
1000056a:	0020      	movs	r0, r4
1000056c:	f7ff fff3 	bl	10000556 <_ZNSt6vectorImSaImEED1Ev>
10000570:	3418      	adds	r4, #24
10000572:	42a5      	cmp	r5, r4
10000574:	d1f9      	bne.n	1000056a <_ZSt8_DestroyIP4WireEvT_S2_+0x8>
10000576:	bd70      	pop	{r4, r5, r6, pc}

10000578 <_ZNSt6vectorI4WireSaIS0_EED1Ev>:
10000578:	b510      	push	{r4, lr}
1000057a:	0004      	movs	r4, r0
1000057c:	6800      	ldr	r0, [r0, #0]
1000057e:	6861      	ldr	r1, [r4, #4]
10000580:	f7ff ffef 	bl	10000562 <_ZSt8_DestroyIP4WireEvT_S2_>
10000584:	0020      	movs	r0, r4
10000586:	f7ff ffbd 	bl	10000504 <_ZNSt12_Vector_baseI4WireSaIS0_EED1Ev>
1000058a:	0020      	movs	r0, r4
1000058c:	bd10      	pop	{r4, pc}
	...

10000590 <_ZNKSt6vectorImSaImEE12_M_check_lenEjPKc>:
10000590:	b570      	push	{r4, r5, r6, lr}
10000592:	b084      	sub	sp, #16
10000594:	0004      	movs	r4, r0
10000596:	9101      	str	r1, [sp, #4]
10000598:	6841      	ldr	r1, [r0, #4]
1000059a:	6803      	ldr	r3, [r0, #0]
1000059c:	1acb      	subs	r3, r1, r3
1000059e:	109b      	asrs	r3, r3, #2
100005a0:	480f      	ldr	r0, [pc, #60]	@ (100005e0 <_ZNKSt6vectorImSaImEE12_M_check_lenEjPKc+0x50>)
100005a2:	1ac0      	subs	r0, r0, r3
100005a4:	9d01      	ldr	r5, [sp, #4]
100005a6:	42a8      	cmp	r0, r5
100005a8:	d310      	bcc.n	100005cc <_ZNKSt6vectorImSaImEE12_M_check_lenEjPKc+0x3c>
100005aa:	9303      	str	r3, [sp, #12]
100005ac:	429d      	cmp	r5, r3
100005ae:	d810      	bhi.n	100005d2 <_ZNKSt6vectorImSaImEE12_M_check_lenEjPKc+0x42>
100005b0:	aa03      	add	r2, sp, #12
100005b2:	6810      	ldr	r0, [r2, #0]
100005b4:	18c0      	adds	r0, r0, r3
100005b6:	6823      	ldr	r3, [r4, #0]
100005b8:	1ac9      	subs	r1, r1, r3
100005ba:	1089      	asrs	r1, r1, #2
100005bc:	4288      	cmp	r0, r1
100005be:	d30a      	bcc.n	100005d6 <_ZNKSt6vectorImSaImEE12_M_check_lenEjPKc+0x46>
100005c0:	2380      	movs	r3, #128	@ 0x80
100005c2:	059b      	lsls	r3, r3, #22
100005c4:	4298      	cmp	r0, r3
100005c6:	d208      	bcs.n	100005da <_ZNKSt6vectorImSaImEE12_M_check_lenEjPKc+0x4a>
100005c8:	b004      	add	sp, #16
100005ca:	bd70      	pop	{r4, r5, r6, pc}
100005cc:	0010      	movs	r0, r2
100005ce:	f004 fb21 	bl	10004c14 <_ZSt20__throw_length_errorPKc>
100005d2:	aa01      	add	r2, sp, #4
100005d4:	e7ed      	b.n	100005b2 <_ZNKSt6vectorImSaImEE12_M_check_lenEjPKc+0x22>
100005d6:	4802      	ldr	r0, [pc, #8]	@ (100005e0 <_ZNKSt6vectorImSaImEE12_M_check_lenEjPKc+0x50>)
100005d8:	e7f6      	b.n	100005c8 <_ZNKSt6vectorImSaImEE12_M_check_lenEjPKc+0x38>
100005da:	4801      	ldr	r0, [pc, #4]	@ (100005e0 <_ZNKSt6vectorImSaImEE12_M_check_lenEjPKc+0x50>)
100005dc:	e7f4      	b.n	100005c8 <_ZNKSt6vectorImSaImEE12_M_check_lenEjPKc+0x38>
100005de:	46c0      	nop			@ (mov r8, r8)
100005e0:	1fffffff 	.word	0x1fffffff

100005e4 <_ZNSt15__new_allocatorI4WireE8allocateEjPKv>:
100005e4:	b510      	push	{r4, lr}
100005e6:	4b08      	ldr	r3, [pc, #32]	@ (10000608 <_ZNSt15__new_allocatorI4WireE8allocateEjPKv+0x24>)
100005e8:	428b      	cmp	r3, r1
100005ea:	d305      	bcc.n	100005f8 <_ZNSt15__new_allocatorI4WireE8allocateEjPKv+0x14>
100005ec:	0048      	lsls	r0, r1, #1
100005ee:	1840      	adds	r0, r0, r1
100005f0:	00c0      	lsls	r0, r0, #3
100005f2:	f002 fd2d 	bl	10003050 <_Znwj>
100005f6:	bd10      	pop	{r4, pc}
100005f8:	4b04      	ldr	r3, [pc, #16]	@ (1000060c <_ZNSt15__new_allocatorI4WireE8allocateEjPKv+0x28>)
100005fa:	4299      	cmp	r1, r3
100005fc:	d901      	bls.n	10000602 <_ZNSt15__new_allocatorI4WireE8allocateEjPKv+0x1e>
100005fe:	f004 fae1 	bl	10004bc4 <_ZSt28__throw_bad_array_new_lengthv>
10000602:	f004 facf 	bl	10004ba4 <_ZSt17__throw_bad_allocv>
10000606:	46c0      	nop			@ (mov r8, r8)
10000608:	05555555 	.word	0x05555555
1000060c:	0aaaaaaa 	.word	0x0aaaaaaa

10000610 <_ZNSt15__new_allocatorImE8allocateEjPKv>:
10000610:	b510      	push	{r4, lr}
10000612:	2300      	movs	r3, #0
10000614:	2280      	movs	r2, #128	@ 0x80
10000616:	0592      	lsls	r2, r2, #22
10000618:	4291      	cmp	r1, r2
1000061a:	415b      	adcs	r3, r3
1000061c:	2b00      	cmp	r3, #0
1000061e:	d103      	bne.n	10000628 <_ZNSt15__new_allocatorImE8allocateEjPKv+0x18>
10000620:	0088      	lsls	r0, r1, #2
10000622:	f002 fd15 	bl	10003050 <_Znwj>
10000626:	bd10      	pop	{r4, pc}
10000628:	2380      	movs	r3, #128	@ 0x80
1000062a:	05db      	lsls	r3, r3, #23
1000062c:	4299      	cmp	r1, r3
1000062e:	d301      	bcc.n	10000634 <_ZNSt15__new_allocatorImE8allocateEjPKv+0x24>
10000630:	f004 fac8 	bl	10004bc4 <_ZSt28__throw_bad_array_new_lengthv>
10000634:	f004 fab6 	bl	10004ba4 <_ZSt17__throw_bad_allocv>

10000638 <_ZNSt12_Vector_baseImSaImEE17_M_create_storageEj>:
10000638:	b570      	push	{r4, r5, r6, lr}
1000063a:	0005      	movs	r5, r0
1000063c:	1e0c      	subs	r4, r1, #0
1000063e:	d008      	beq.n	10000652 <_ZNSt12_Vector_baseImSaImEE17_M_create_storageEj+0x1a>
10000640:	2200      	movs	r2, #0
10000642:	f7ff ffe5 	bl	10000610 <_ZNSt15__new_allocatorImE8allocateEjPKv>
10000646:	6028      	str	r0, [r5, #0]
10000648:	6068      	str	r0, [r5, #4]
1000064a:	00a4      	lsls	r4, r4, #2
1000064c:	1900      	adds	r0, r0, r4
1000064e:	60a8      	str	r0, [r5, #8]
10000650:	bd70      	pop	{r4, r5, r6, pc}
10000652:	2000      	movs	r0, #0
10000654:	e7f7      	b.n	10000646 <_ZNSt12_Vector_baseImSaImEE17_M_create_storageEj+0xe>
	...

10000658 <_ZNSt6vectorImSaImEE17_M_realloc_insertIJmEEEvN9__gnu_cxx17__normal_iteratorIPmS1_EEDpOT_>:
10000658:	b5f8      	push	{r3, r4, r5, r6, r7, lr}
1000065a:	46de      	mov	lr, fp
1000065c:	4657      	mov	r7, sl
1000065e:	464e      	mov	r6, r9
10000660:	4645      	mov	r5, r8
10000662:	b5e0      	push	{r5, r6, r7, lr}
10000664:	0004      	movs	r4, r0
10000666:	468a      	mov	sl, r1
10000668:	4693      	mov	fp, r2
1000066a:	4a22      	ldr	r2, [pc, #136]	@ (100006f4 <_ZNSt6vectorImSaImEE17_M_realloc_insertIJmEEEvN9__gnu_cxx17__normal_iteratorIPmS1_EEDpOT_+0x9c>)
1000066c:	2101      	movs	r1, #1
1000066e:	f7ff ff8f 	bl	10000590 <_ZNKSt6vectorImSaImEE12_M_check_lenEjPKc>
10000672:	0007      	movs	r7, r0
10000674:	6823      	ldr	r3, [r4, #0]
10000676:	4699      	mov	r9, r3
10000678:	6863      	ldr	r3, [r4, #4]
1000067a:	4698      	mov	r8, r3
1000067c:	4653      	mov	r3, sl
1000067e:	464a      	mov	r2, r9
10000680:	1a9d      	subs	r5, r3, r2
10000682:	2800      	cmp	r0, #0
10000684:	d028      	beq.n	100006d8 <_ZNSt6vectorImSaImEE17_M_realloc_insertIJmEEEvN9__gnu_cxx17__normal_iteratorIPmS1_EEDpOT_+0x80>
10000686:	2200      	movs	r2, #0
10000688:	0001      	movs	r1, r0
1000068a:	0020      	movs	r0, r4
1000068c:	f7ff ffc0 	bl	10000610 <_ZNSt15__new_allocatorImE8allocateEjPKv>
10000690:	0006      	movs	r6, r0
10000692:	465b      	mov	r3, fp
10000694:	681b      	ldr	r3, [r3, #0]
10000696:	5173      	str	r3, [r6, r5]
10000698:	2d00      	cmp	r5, #0
1000069a:	dc1f      	bgt.n	100006dc <_ZNSt6vectorImSaImEE17_M_realloc_insertIJmEEEvN9__gnu_cxx17__normal_iteratorIPmS1_EEDpOT_+0x84>
1000069c:	3504      	adds	r5, #4
1000069e:	1975      	adds	r5, r6, r5
100006a0:	4643      	mov	r3, r8
100006a2:	4652      	mov	r2, sl
100006a4:	1a9b      	subs	r3, r3, r2
100006a6:	4698      	mov	r8, r3
100006a8:	2b00      	cmp	r3, #0
100006aa:	dc1d      	bgt.n	100006e8 <_ZNSt6vectorImSaImEE17_M_realloc_insertIJmEEEvN9__gnu_cxx17__normal_iteratorIPmS1_EEDpOT_+0x90>
100006ac:	4445      	add	r5, r8
100006ae:	68a2      	ldr	r2, [r4, #8]
100006b0:	464b      	mov	r3, r9
100006b2:	1ad2      	subs	r2, r2, r3
100006b4:	1092      	asrs	r2, r2, #2
100006b6:	2b00      	cmp	r3, #0
100006b8:	d003      	beq.n	100006c2 <_ZNSt6vectorImSaImEE17_M_realloc_insertIJmEEEvN9__gnu_cxx17__normal_iteratorIPmS1_EEDpOT_+0x6a>
100006ba:	4649      	mov	r1, r9
100006bc:	0020      	movs	r0, r4
100006be:	f7ff ff38 	bl	10000532 <_ZNSt15__new_allocatorImE10deallocateEPmj>
100006c2:	6026      	str	r6, [r4, #0]
100006c4:	6065      	str	r5, [r4, #4]
100006c6:	00bf      	lsls	r7, r7, #2
100006c8:	19f6      	adds	r6, r6, r7
100006ca:	60a6      	str	r6, [r4, #8]
100006cc:	bcf0      	pop	{r4, r5, r6, r7}
100006ce:	46bb      	mov	fp, r7
100006d0:	46b2      	mov	sl, r6
100006d2:	46a9      	mov	r9, r5
100006d4:	46a0      	mov	r8, r4
100006d6:	bdf8      	pop	{r3, r4, r5, r6, r7, pc}
100006d8:	2600      	movs	r6, #0
100006da:	e7da      	b.n	10000692 <_ZNSt6vectorImSaImEE17_M_realloc_insertIJmEEEvN9__gnu_cxx17__normal_iteratorIPmS1_EEDpOT_+0x3a>
100006dc:	002a      	movs	r2, r5
100006de:	4649      	mov	r1, r9
100006e0:	0030      	movs	r0, r6
100006e2:	f00d fc7b 	bl	1000dfdc <memmove>
100006e6:	e7d9      	b.n	1000069c <_ZNSt6vectorImSaImEE17_M_realloc_insertIJmEEEvN9__gnu_cxx17__normal_iteratorIPmS1_EEDpOT_+0x44>
100006e8:	001a      	movs	r2, r3
100006ea:	4651      	mov	r1, sl
100006ec:	0028      	movs	r0, r5
100006ee:	f00d fc75 	bl	1000dfdc <memmove>
100006f2:	e7db      	b.n	100006ac <_ZNSt6vectorImSaImEE17_M_realloc_insertIJmEEEvN9__gnu_cxx17__normal_iteratorIPmS1_EEDpOT_+0x54>
100006f4:	1000f26c 	.word	0x1000f26c

100006f8 <_ZNSt6vectorImSaImEE12emplace_backIJmEEERmDpOT_>:
100006f8:	b510      	push	{r4, lr}
100006fa:	0004      	movs	r4, r0
100006fc:	6843      	ldr	r3, [r0, #4]
100006fe:	6882      	ldr	r2, [r0, #8]
10000700:	4293      	cmp	r3, r2
10000702:	d008      	beq.n	10000716 <_ZNSt6vectorImSaImEE12emplace_backIJmEEERmDpOT_+0x1e>
10000704:	680a      	ldr	r2, [r1, #0]
10000706:	601a      	str	r2, [r3, #0]
10000708:	6843      	ldr	r3, [r0, #4]
1000070a:	3304      	adds	r3, #4
1000070c:	6043      	str	r3, [r0, #4]
1000070e:	0020      	movs	r0, r4
10000710:	f7ff feb0 	bl	10000474 <_ZNSt6vectorImSaImEE4backEv>
10000714:	bd10      	pop	{r4, pc}
10000716:	000a      	movs	r2, r1
10000718:	0019      	movs	r1, r3
1000071a:	f7ff ff9d 	bl	10000658 <_ZNSt6vectorImSaImEE17_M_realloc_insertIJmEEEvN9__gnu_cxx17__normal_iteratorIPmS1_EEDpOT_>
1000071e:	e7f6      	b.n	1000070e <_ZNSt6vectorImSaImEE12emplace_backIJmEEERmDpOT_+0x16>

10000720 <_ZSt12__niter_baseIPKmSt6vectorImSaImEEET_N9__gnu_cxx17__normal_iteratorIS5_T0_EE>:
10000720:	4770      	bx	lr

10000722 <_ZN4WireC1EOS_>:
10000722:	680b      	ldr	r3, [r1, #0]
10000724:	6003      	str	r3, [r0, #0]
10000726:	684b      	ldr	r3, [r1, #4]
10000728:	6043      	str	r3, [r0, #4]
1000072a:	688b      	ldr	r3, [r1, #8]
1000072c:	6083      	str	r3, [r0, #8]
1000072e:	2300      	movs	r3, #0
10000730:	608b      	str	r3, [r1, #8]
10000732:	604b      	str	r3, [r1, #4]
10000734:	600b      	str	r3, [r1, #0]
10000736:	7b0b      	ldrb	r3, [r1, #12]
10000738:	7303      	strb	r3, [r0, #12]
1000073a:	690b      	ldr	r3, [r1, #16]
1000073c:	6103      	str	r3, [r0, #16]
1000073e:	694b      	ldr	r3, [r1, #20]
10000740:	6143      	str	r3, [r0, #20]
10000742:	4770      	bx	lr

10000744 <_ZSt14__relocate_a_1IP4WireS1_SaIS0_EET0_T_S4_S3_RT1_>:
10000744:	b570      	push	{r4, r5, r6, lr}
10000746:	0004      	movs	r4, r0
10000748:	000e      	movs	r6, r1
1000074a:	0015      	movs	r5, r2
1000074c:	e008      	b.n	10000760 <_ZSt14__relocate_a_1IP4WireS1_SaIS0_EET0_T_S4_S3_RT1_+0x1c>
1000074e:	0021      	movs	r1, r4
10000750:	0028      	movs	r0, r5
10000752:	f7ff ffe6 	bl	10000722 <_ZN4WireC1EOS_>
10000756:	0020      	movs	r0, r4
10000758:	f7ff fefd 	bl	10000556 <_ZNSt6vectorImSaImEED1Ev>
1000075c:	3418      	adds	r4, #24
1000075e:	3518      	adds	r5, #24
10000760:	42b4      	cmp	r4, r6
10000762:	d1f4      	bne.n	1000074e <_ZSt14__relocate_a_1IP4WireS1_SaIS0_EET0_T_S4_S3_RT1_+0xa>
10000764:	0028      	movs	r0, r5
10000766:	bd70      	pop	{r4, r5, r6, pc}

10000768 <_ZNSt11__copy_moveILb0ELb1ESt26random_access_iterator_tagE8__copy_mIKmmEEPT0_PT_S7_S5_>:
10000768:	b570      	push	{r4, r5, r6, lr}
1000076a:	0014      	movs	r4, r2
1000076c:	1a0d      	subs	r5, r1, r0
1000076e:	2301      	movs	r3, #1
10000770:	2d04      	cmp	r5, #4
10000772:	dc00      	bgt.n	10000776 <_ZNSt11__copy_moveILb0ELb1ESt26random_access_iterator_tagE8__copy_mIKmmEEPT0_PT_S7_S5_+0xe>
10000774:	2300      	movs	r3, #0
10000776:	b2db      	uxtb	r3, r3
10000778:	2b00      	cmp	r3, #0
1000077a:	d006      	beq.n	1000078a <_ZNSt11__copy_moveILb0ELb1ESt26random_access_iterator_tagE8__copy_mIKmmEEPT0_PT_S7_S5_+0x22>
1000077c:	002a      	movs	r2, r5
1000077e:	0001      	movs	r1, r0
10000780:	0020      	movs	r0, r4
10000782:	f00d fc2b 	bl	1000dfdc <memmove>
10000786:	1960      	adds	r0, r4, r5
10000788:	bd70      	pop	{r4, r5, r6, pc}
1000078a:	2d04      	cmp	r5, #4
1000078c:	d1fb      	bne.n	10000786 <_ZNSt11__copy_moveILb0ELb1ESt26random_access_iterator_tagE8__copy_mIKmmEEPT0_PT_S7_S5_+0x1e>
1000078e:	6803      	ldr	r3, [r0, #0]
10000790:	6023      	str	r3, [r4, #0]
10000792:	e7f8      	b.n	10000786 <_ZNSt11__copy_moveILb0ELb1ESt26random_access_iterator_tagE8__copy_mIKmmEEPT0_PT_S7_S5_+0x1e>

10000794 <_ZSt13__copy_move_aILb0EN9__gnu_cxx17__normal_iteratorIPKmSt6vectorImSaImEEEEPmET1_T0_SA_S9_>:
10000794:	b570      	push	{r4, r5, r6, lr}
10000796:	000e      	movs	r6, r1
10000798:	0015      	movs	r5, r2
1000079a:	f7ff ffc1 	bl	10000720 <_ZSt12__niter_baseIPKmSt6vectorImSaImEEET_N9__gnu_cxx17__normal_iteratorIS5_T0_EE>
1000079e:	0004      	movs	r4, r0
100007a0:	0030      	movs	r0, r6
100007a2:	f7ff ffbd 	bl	10000720 <_ZSt12__niter_baseIPKmSt6vectorImSaImEEET_N9__gnu_cxx17__normal_iteratorIS5_T0_EE>
100007a6:	0001      	movs	r1, r0
100007a8:	002a      	movs	r2, r5
100007aa:	0020      	movs	r0, r4
100007ac:	f7ff ffdc 	bl	10000768 <_ZNSt11__copy_moveILb0ELb1ESt26random_access_iterator_tagE8__copy_mIKmmEEPT0_PT_S7_S5_>
100007b0:	bd70      	pop	{r4, r5, r6, pc}

100007b2 <_ZSt4copyIN9__gnu_cxx17__normal_iteratorIPKmSt6vectorImSaImEEEEPmET0_T_SA_S9_>:
100007b2:	b510      	push	{r4, lr}
100007b4:	f7ff ffee 	bl	10000794 <_ZSt13__copy_move_aILb0EN9__gnu_cxx17__normal_iteratorIPKmSt6vectorImSaImEEEEPmET1_T0_SA_S9_>
100007b8:	bd10      	pop	{r4, pc}

100007ba <_ZSt18uninitialized_copyIN9__gnu_cxx17__normal_iteratorIPKmSt6vectorImSaImEEEEPmET0_T_SA_S9_>:
100007ba:	b510      	push	{r4, lr}
100007bc:	f7ff fff9 	bl	100007b2 <_ZSt4copyIN9__gnu_cxx17__normal_iteratorIPKmSt6vectorImSaImEEEEPmET0_T_SA_S9_>
100007c0:	bd10      	pop	{r4, pc}

100007c2 <_ZNSt6vectorImSaImEEC1ERKS1_>:
100007c2:	b570      	push	{r4, r5, r6, lr}
100007c4:	0004      	movs	r4, r0
100007c6:	000d      	movs	r5, r1
100007c8:	6849      	ldr	r1, [r1, #4]
100007ca:	682b      	ldr	r3, [r5, #0]
100007cc:	1ac9      	subs	r1, r1, r3
100007ce:	1089      	asrs	r1, r1, #2
100007d0:	2300      	movs	r3, #0
100007d2:	6003      	str	r3, [r0, #0]
100007d4:	6043      	str	r3, [r0, #4]
100007d6:	6083      	str	r3, [r0, #8]
100007d8:	f7ff ff2e 	bl	10000638 <_ZNSt12_Vector_baseImSaImEE17_M_create_storageEj>
100007dc:	6828      	ldr	r0, [r5, #0]
100007de:	6869      	ldr	r1, [r5, #4]
100007e0:	6822      	ldr	r2, [r4, #0]
100007e2:	f7ff ffea 	bl	100007ba <_ZSt18uninitialized_copyIN9__gnu_cxx17__normal_iteratorIPKmSt6vectorImSaImEEEEPmET0_T_SA_S9_>
100007e6:	6060      	str	r0, [r4, #4]
100007e8:	0020      	movs	r0, r4
100007ea:	bd70      	pop	{r4, r5, r6, pc}

100007ec <_ZN4WireC1ERKS_>:
100007ec:	b570      	push	{r4, r5, r6, lr}
100007ee:	0004      	movs	r4, r0
100007f0:	000d      	movs	r5, r1
100007f2:	f7ff ffe6 	bl	100007c2 <_ZNSt6vectorImSaImEEC1ERKS1_>
100007f6:	7b2b      	ldrb	r3, [r5, #12]
100007f8:	7323      	strb	r3, [r4, #12]
100007fa:	692b      	ldr	r3, [r5, #16]
100007fc:	6123      	str	r3, [r4, #16]
100007fe:	696b      	ldr	r3, [r5, #20]
10000800:	6163      	str	r3, [r4, #20]
10000802:	0020      	movs	r0, r4
10000804:	bd70      	pop	{r4, r5, r6, pc}
	...

10000808 <_ZNSt6vectorI4WireSaIS0_EE17_M_realloc_insertIJRKS0_EEEvN9__gnu_cxx17__normal_iteratorIPS0_S2_EEDpOT_>:
10000808:	b5f8      	push	{r3, r4, r5, r6, r7, lr}
1000080a:	46de      	mov	lr, fp
1000080c:	4657      	mov	r7, sl
1000080e:	464e      	mov	r6, r9
10000810:	4645      	mov	r5, r8
10000812:	b5e0      	push	{r5, r6, r7, lr}
10000814:	0005      	movs	r5, r0
10000816:	000c      	movs	r4, r1
10000818:	4693      	mov	fp, r2
1000081a:	4a26      	ldr	r2, [pc, #152]	@ (100008b4 <_ZNSt6vectorI4WireSaIS0_EE17_M_realloc_insertIJRKS0_EEEvN9__gnu_cxx17__normal_iteratorIPS0_S2_EEDpOT_+0xac>)
1000081c:	2101      	movs	r1, #1
1000081e:	f7ff fe2d 	bl	1000047c <_ZNKSt6vectorI4WireSaIS0_EE12_M_check_lenEjPKc>
10000822:	0007      	movs	r7, r0
10000824:	682b      	ldr	r3, [r5, #0]
10000826:	4698      	mov	r8, r3
10000828:	686b      	ldr	r3, [r5, #4]
1000082a:	4699      	mov	r9, r3
1000082c:	4643      	mov	r3, r8
1000082e:	1ae3      	subs	r3, r4, r3
10000830:	469a      	mov	sl, r3
10000832:	2800      	cmp	r0, #0
10000834:	d03b      	beq.n	100008ae <_ZNSt6vectorI4WireSaIS0_EE17_M_realloc_insertIJRKS0_EEEvN9__gnu_cxx17__normal_iteratorIPS0_S2_EEDpOT_+0xa6>
10000836:	2200      	movs	r2, #0
10000838:	0001      	movs	r1, r0
1000083a:	0028      	movs	r0, r5
1000083c:	f7ff fed2 	bl	100005e4 <_ZNSt15__new_allocatorI4WireE8allocateEjPKv>
10000840:	0006      	movs	r6, r0
10000842:	4653      	mov	r3, sl
10000844:	18f0      	adds	r0, r6, r3
10000846:	4659      	mov	r1, fp
10000848:	f7ff ffd0 	bl	100007ec <_ZN4WireC1ERKS_>
1000084c:	002b      	movs	r3, r5
1000084e:	0032      	movs	r2, r6
10000850:	0021      	movs	r1, r4
10000852:	4640      	mov	r0, r8
10000854:	f7ff ff76 	bl	10000744 <_ZSt14__relocate_a_1IP4WireS1_SaIS0_EET0_T_S4_S3_RT1_>
10000858:	0002      	movs	r2, r0
1000085a:	3218      	adds	r2, #24
1000085c:	002b      	movs	r3, r5
1000085e:	4649      	mov	r1, r9
10000860:	0020      	movs	r0, r4
10000862:	f7ff ff6f 	bl	10000744 <_ZSt14__relocate_a_1IP4WireS1_SaIS0_EET0_T_S4_S3_RT1_>
10000866:	4681      	mov	r9, r0
10000868:	68ab      	ldr	r3, [r5, #8]
1000086a:	4642      	mov	r2, r8
1000086c:	1a9b      	subs	r3, r3, r2
1000086e:	10db      	asrs	r3, r3, #3
10000870:	009c      	lsls	r4, r3, #2
10000872:	18e4      	adds	r4, r4, r3
10000874:	0122      	lsls	r2, r4, #4
10000876:	18a4      	adds	r4, r4, r2
10000878:	0222      	lsls	r2, r4, #8
1000087a:	18a4      	adds	r4, r4, r2
1000087c:	0422      	lsls	r2, r4, #16
1000087e:	18a4      	adds	r4, r4, r2
10000880:	0064      	lsls	r4, r4, #1
10000882:	18e2      	adds	r2, r4, r3
10000884:	4643      	mov	r3, r8
10000886:	2b00      	cmp	r3, #0
10000888:	d003      	beq.n	10000892 <_ZNSt6vectorI4WireSaIS0_EE17_M_realloc_insertIJRKS0_EEEvN9__gnu_cxx17__normal_iteratorIPS0_S2_EEDpOT_+0x8a>
1000088a:	4641      	mov	r1, r8
1000088c:	0028      	movs	r0, r5
1000088e:	f7ff fe31 	bl	100004f4 <_ZNSt15__new_allocatorI4WireE10deallocateEPS0_j>
10000892:	602e      	str	r6, [r5, #0]
10000894:	464b      	mov	r3, r9
10000896:	606b      	str	r3, [r5, #4]
10000898:	007b      	lsls	r3, r7, #1
1000089a:	19db      	adds	r3, r3, r7
1000089c:	00db      	lsls	r3, r3, #3
1000089e:	18f6      	adds	r6, r6, r3
100008a0:	60ae      	str	r6, [r5, #8]
100008a2:	bcf0      	pop	{r4, r5, r6, r7}
100008a4:	46bb      	mov	fp, r7
100008a6:	46b2      	mov	sl, r6
100008a8:	46a9      	mov	r9, r5
100008aa:	46a0      	mov	r8, r4
100008ac:	bdf8      	pop	{r3, r4, r5, r6, r7, pc}
100008ae:	2600      	movs	r6, #0
100008b0:	e7c7      	b.n	10000842 <_ZNSt6vectorI4WireSaIS0_EE17_M_realloc_insertIJRKS0_EEEvN9__gnu_cxx17__normal_iteratorIPS0_S2_EEDpOT_+0x3a>
100008b2:	46c0      	nop			@ (mov r8, r8)
100008b4:	1000f26c 	.word	0x1000f26c

100008b8 <_ZNSt6vectorI4WireSaIS0_EE9push_backERKS0_>:
100008b8:	b510      	push	{r4, lr}
100008ba:	0004      	movs	r4, r0
100008bc:	6840      	ldr	r0, [r0, #4]
100008be:	68a3      	ldr	r3, [r4, #8]
100008c0:	4298      	cmp	r0, r3
100008c2:	d005      	beq.n	100008d0 <_ZNSt6vectorI4WireSaIS0_EE9push_backERKS0_+0x18>
100008c4:	f7ff ff92 	bl	100007ec <_ZN4WireC1ERKS_>
100008c8:	6863      	ldr	r3, [r4, #4]
100008ca:	3318      	adds	r3, #24
100008cc:	6063      	str	r3, [r4, #4]
100008ce:	bd10      	pop	{r4, pc}
100008d0:	000a      	movs	r2, r1
100008d2:	0001      	movs	r1, r0
100008d4:	0020      	movs	r0, r4
100008d6:	f7ff ff97 	bl	10000808 <_ZNSt6vectorI4WireSaIS0_EE17_M_realloc_insertIJRKS0_EEEvN9__gnu_cxx17__normal_iteratorIPS0_S2_EEDpOT_>
100008da:	e7f8      	b.n	100008ce <_ZNSt6vectorI4WireSaIS0_EE9push_backERKS0_+0x16>

100008dc <_Z9InitWiresv>:
100008dc:	b5f0      	push	{r4, r5, r6, r7, lr}
100008de:	46ce      	mov	lr, r9
100008e0:	4647      	mov	r7, r8
100008e2:	b580      	push	{r7, lr}
100008e4:	b0af      	sub	sp, #188	@ 0xbc
100008e6:	0005      	movs	r5, r0
100008e8:	2400      	movs	r4, #0
100008ea:	6004      	str	r4, [r0, #0]
100008ec:	6044      	str	r4, [r0, #4]
100008ee:	6084      	str	r4, [r0, #8]
100008f0:	ae15      	add	r6, sp, #84	@ 0x54
100008f2:	9415      	str	r4, [sp, #84]	@ 0x54
100008f4:	9416      	str	r4, [sp, #88]	@ 0x58
100008f6:	9417      	str	r4, [sp, #92]	@ 0x5c
100008f8:	2301      	movs	r3, #1
100008fa:	4699      	mov	r9, r3
100008fc:	7333      	strb	r3, [r6, #12]
100008fe:	9419      	str	r4, [sp, #100]	@ 0x64
10000900:	941a      	str	r4, [sp, #104]	@ 0x68
10000902:	220c      	movs	r2, #12
10000904:	2100      	movs	r1, #0
10000906:	a812      	add	r0, sp, #72	@ 0x48
10000908:	f002 fb96 	bl	10003038 <__wrap_memset>
1000090c:	9412      	str	r4, [sp, #72]	@ 0x48
1000090e:	9413      	str	r4, [sp, #76]	@ 0x4c
10000910:	9414      	str	r4, [sp, #80]	@ 0x50
10000912:	941b      	str	r4, [sp, #108]	@ 0x6c
10000914:	a91b      	add	r1, sp, #108	@ 0x6c
10000916:	a812      	add	r0, sp, #72	@ 0x48
10000918:	f7ff feee 	bl	100006f8 <_ZNSt6vectorImSaImEE12emplace_backIJmEEERmDpOT_>
1000091c:	2396      	movs	r3, #150	@ 0x96
1000091e:	005b      	lsls	r3, r3, #1
10000920:	931c      	str	r3, [sp, #112]	@ 0x70
10000922:	a91c      	add	r1, sp, #112	@ 0x70
10000924:	a812      	add	r0, sp, #72	@ 0x48
10000926:	f7ff fee7 	bl	100006f8 <_ZNSt6vectorImSaImEE12emplace_backIJmEEERmDpOT_>
1000092a:	4b4d      	ldr	r3, [pc, #308]	@ (10000a60 <_Z9InitWiresv+0x184>)
1000092c:	931d      	str	r3, [sp, #116]	@ 0x74
1000092e:	a91d      	add	r1, sp, #116	@ 0x74
10000930:	a812      	add	r0, sp, #72	@ 0x48
10000932:	f7ff fee1 	bl	100006f8 <_ZNSt6vectorImSaImEE12emplace_backIJmEEERmDpOT_>
10000936:	a912      	add	r1, sp, #72	@ 0x48
10000938:	a81e      	add	r0, sp, #120	@ 0x78
1000093a:	f7ff ff42 	bl	100007c2 <_ZNSt6vectorImSaImEEC1ERKS1_>
1000093e:	a91e      	add	r1, sp, #120	@ 0x78
10000940:	0030      	movs	r0, r6
10000942:	f000 f98a 	bl	10000c5a <_ZN4Wire10SetTimingsESt6vectorImSaImEE>
10000946:	a81e      	add	r0, sp, #120	@ 0x78
10000948:	f7ff fe05 	bl	10000556 <_ZNSt6vectorImSaImEED1Ev>
1000094c:	0031      	movs	r1, r6
1000094e:	0028      	movs	r0, r5
10000950:	f7ff ffb2 	bl	100008b8 <_ZNSt6vectorI4WireSaIS0_EE9push_backERKS0_>
10000954:	af0c      	add	r7, sp, #48	@ 0x30
10000956:	940c      	str	r4, [sp, #48]	@ 0x30
10000958:	940d      	str	r4, [sp, #52]	@ 0x34
1000095a:	940e      	str	r4, [sp, #56]	@ 0x38
1000095c:	464b      	mov	r3, r9
1000095e:	733b      	strb	r3, [r7, #12]
10000960:	9410      	str	r4, [sp, #64]	@ 0x40
10000962:	9411      	str	r4, [sp, #68]	@ 0x44
10000964:	220c      	movs	r2, #12
10000966:	2100      	movs	r1, #0
10000968:	a809      	add	r0, sp, #36	@ 0x24
1000096a:	f002 fb65 	bl	10003038 <__wrap_memset>
1000096e:	9409      	str	r4, [sp, #36]	@ 0x24
10000970:	940a      	str	r4, [sp, #40]	@ 0x28
10000972:	940b      	str	r4, [sp, #44]	@ 0x2c
10000974:	23aa      	movs	r3, #170	@ 0xaa
10000976:	33ff      	adds	r3, #255	@ 0xff
10000978:	9321      	str	r3, [sp, #132]	@ 0x84
1000097a:	a921      	add	r1, sp, #132	@ 0x84
1000097c:	a809      	add	r0, sp, #36	@ 0x24
1000097e:	f7ff febb 	bl	100006f8 <_ZNSt6vectorImSaImEE12emplace_backIJmEEERmDpOT_>
10000982:	a909      	add	r1, sp, #36	@ 0x24
10000984:	a822      	add	r0, sp, #136	@ 0x88
10000986:	f7ff ff1c 	bl	100007c2 <_ZNSt6vectorImSaImEEC1ERKS1_>
1000098a:	a922      	add	r1, sp, #136	@ 0x88
1000098c:	0038      	movs	r0, r7
1000098e:	f000 f964 	bl	10000c5a <_ZN4Wire10SetTimingsESt6vectorImSaImEE>
10000992:	a822      	add	r0, sp, #136	@ 0x88
10000994:	f7ff fddf 	bl	10000556 <_ZNSt6vectorImSaImEED1Ev>
10000998:	0039      	movs	r1, r7
1000099a:	0028      	movs	r0, r5
1000099c:	f7ff ff8c 	bl	100008b8 <_ZNSt6vectorI4WireSaIS0_EE9push_backERKS0_>
100009a0:	ab03      	add	r3, sp, #12
100009a2:	4698      	mov	r8, r3
100009a4:	9403      	str	r4, [sp, #12]
100009a6:	9404      	str	r4, [sp, #16]
100009a8:	9405      	str	r4, [sp, #20]
100009aa:	464a      	mov	r2, r9
100009ac:	731a      	strb	r2, [r3, #12]
100009ae:	9407      	str	r4, [sp, #28]
100009b0:	9408      	str	r4, [sp, #32]
100009b2:	320b      	adds	r2, #11
100009b4:	2100      	movs	r1, #0
100009b6:	4668      	mov	r0, sp
100009b8:	f002 fb3e 	bl	10003038 <__wrap_memset>
100009bc:	9400      	str	r4, [sp, #0]
100009be:	9401      	str	r4, [sp, #4]
100009c0:	9402      	str	r4, [sp, #8]
100009c2:	23c8      	movs	r3, #200	@ 0xc8
100009c4:	00db      	lsls	r3, r3, #3
100009c6:	9325      	str	r3, [sp, #148]	@ 0x94
100009c8:	a925      	add	r1, sp, #148	@ 0x94
100009ca:	4668      	mov	r0, sp
100009cc:	f7ff fe94 	bl	100006f8 <_ZNSt6vectorImSaImEE12emplace_backIJmEEERmDpOT_>
100009d0:	4b24      	ldr	r3, [pc, #144]	@ (10000a64 <_Z9InitWiresv+0x188>)
100009d2:	9326      	str	r3, [sp, #152]	@ 0x98
100009d4:	a926      	add	r1, sp, #152	@ 0x98
100009d6:	4668      	mov	r0, sp
100009d8:	f7ff fe8e 	bl	100006f8 <_ZNSt6vectorImSaImEE12emplace_backIJmEEERmDpOT_>
100009dc:	23f5      	movs	r3, #245	@ 0xf5
100009de:	00db      	lsls	r3, r3, #3
100009e0:	9327      	str	r3, [sp, #156]	@ 0x9c
100009e2:	a927      	add	r1, sp, #156	@ 0x9c
100009e4:	4668      	mov	r0, sp
100009e6:	f7ff fe87 	bl	100006f8 <_ZNSt6vectorImSaImEE12emplace_backIJmEEERmDpOT_>
100009ea:	4b1f      	ldr	r3, [pc, #124]	@ (10000a68 <_Z9InitWiresv+0x18c>)
100009ec:	9328      	str	r3, [sp, #160]	@ 0xa0
100009ee:	a928      	add	r1, sp, #160	@ 0xa0
100009f0:	4668      	mov	r0, sp
100009f2:	f7ff fe81 	bl	100006f8 <_ZNSt6vectorImSaImEE12emplace_backIJmEEERmDpOT_>
100009f6:	2391      	movs	r3, #145	@ 0x91
100009f8:	011b      	lsls	r3, r3, #4
100009fa:	9329      	str	r3, [sp, #164]	@ 0xa4
100009fc:	a929      	add	r1, sp, #164	@ 0xa4
100009fe:	4668      	mov	r0, sp
10000a00:	f7ff fe7a 	bl	100006f8 <_ZNSt6vectorImSaImEE12emplace_backIJmEEERmDpOT_>
10000a04:	4b19      	ldr	r3, [pc, #100]	@ (10000a6c <_Z9InitWiresv+0x190>)
10000a06:	932a      	str	r3, [sp, #168]	@ 0xa8
10000a08:	a92a      	add	r1, sp, #168	@ 0xa8
10000a0a:	4668      	mov	r0, sp
10000a0c:	f7ff fe74 	bl	100006f8 <_ZNSt6vectorImSaImEE12emplace_backIJmEEERmDpOT_>
10000a10:	4669      	mov	r1, sp
10000a12:	a82b      	add	r0, sp, #172	@ 0xac
10000a14:	f7ff fed5 	bl	100007c2 <_ZNSt6vectorImSaImEEC1ERKS1_>
10000a18:	a92b      	add	r1, sp, #172	@ 0xac
10000a1a:	4640      	mov	r0, r8
10000a1c:	f000 f91d 	bl	10000c5a <_ZN4Wire10SetTimingsESt6vectorImSaImEE>
10000a20:	a82b      	add	r0, sp, #172	@ 0xac
10000a22:	f7ff fd98 	bl	10000556 <_ZNSt6vectorImSaImEED1Ev>
10000a26:	4641      	mov	r1, r8
10000a28:	0028      	movs	r0, r5
10000a2a:	f7ff ff45 	bl	100008b8 <_ZNSt6vectorI4WireSaIS0_EE9push_backERKS0_>
10000a2e:	4668      	mov	r0, sp
10000a30:	f7ff fd91 	bl	10000556 <_ZNSt6vectorImSaImEED1Ev>
10000a34:	4640      	mov	r0, r8
10000a36:	f7ff fd8e 	bl	10000556 <_ZNSt6vectorImSaImEED1Ev>
10000a3a:	a809      	add	r0, sp, #36	@ 0x24
10000a3c:	f7ff fd8b 	bl	10000556 <_ZNSt6vectorImSaImEED1Ev>
10000a40:	0038      	movs	r0, r7
10000a42:	f7ff fd88 	bl	10000556 <_ZNSt6vectorImSaImEED1Ev>
10000a46:	a812      	add	r0, sp, #72	@ 0x48
10000a48:	f7ff fd85 	bl	10000556 <_ZNSt6vectorImSaImEED1Ev>
10000a4c:	0030      	movs	r0, r6
10000a4e:	f7ff fd82 	bl	10000556 <_ZNSt6vectorImSaImEED1Ev>
10000a52:	0028      	movs	r0, r5
10000a54:	b02f      	add	sp, #188	@ 0xbc
10000a56:	bcc0      	pop	{r6, r7}
10000a58:	46b9      	mov	r9, r7
10000a5a:	46b0      	mov	r8, r6
10000a5c:	bdf0      	pop	{r4, r5, r6, r7, pc}
10000a5e:	46c0      	nop			@ (mov r8, r8)
10000a60:	00000226 	.word	0x00000226
10000a64:	0000076c 	.word	0x0000076c
10000a68:	000008d4 	.word	0x000008d4
10000a6c:	00000a3c 	.word	0x00000a3c

10000a70 <main>:
10000a70:	b5f0      	push	{r4, r5, r6, r7, lr}
10000a72:	46ce      	mov	lr, r9
10000a74:	4647      	mov	r7, r8
10000a76:	b580      	push	{r7, lr}
10000a78:	b085      	sub	sp, #20
10000a7a:	2101      	movs	r1, #1
10000a7c:	4847      	ldr	r0, [pc, #284]	@ (10000b9c <main+0x12c>)
10000a7e:	f7ff fc4b 	bl	10000318 <set_sys_clock_khz>
10000a82:	f000 f8ef 	bl	10000c64 <setup_default_uart>
10000a86:	4e46      	ldr	r6, [pc, #280]	@ (10000ba0 <main+0x130>)
10000a88:	4c46      	ldr	r4, [pc, #280]	@ (10000ba4 <main+0x134>)
10000a8a:	0031      	movs	r1, r6
10000a8c:	0020      	movs	r0, r4
10000a8e:	f003 ffbd 	bl	10004a0c <pio_add_program>
10000a92:	0002      	movs	r2, r0
10000a94:	2302      	movs	r3, #2
10000a96:	2100      	movs	r1, #0
10000a98:	0020      	movs	r0, r4
10000a9a:	f7ff fc5b 	bl	10000354 <_Z17demo_program_initP8pio_hw_tjjj>
10000a9e:	6823      	ldr	r3, [r4, #0]
10000aa0:	2501      	movs	r5, #1
10000aa2:	43ab      	bics	r3, r5
10000aa4:	432b      	orrs	r3, r5
10000aa6:	6023      	str	r3, [r4, #0]
10000aa8:	483f      	ldr	r0, [pc, #252]	@ (10000ba8 <main+0x138>)
10000aaa:	f003 fda1 	bl	100045f0 <__wrap_puts>
10000aae:	4c3f      	ldr	r4, [pc, #252]	@ (10000bac <main+0x13c>)
10000ab0:	0031      	movs	r1, r6
10000ab2:	0020      	movs	r0, r4
10000ab4:	f003 ffaa 	bl	10004a0c <pio_add_program>
10000ab8:	0002      	movs	r2, r0
10000aba:	2310      	movs	r3, #16
10000abc:	2100      	movs	r1, #0
10000abe:	0020      	movs	r0, r4
10000ac0:	f7ff fc90 	bl	100003e4 <_Z22demo_read_program_initP8pio_hw_tjjj>
10000ac4:	6823      	ldr	r3, [r4, #0]
10000ac6:	43ab      	bics	r3, r5
10000ac8:	432b      	orrs	r3, r5
10000aca:	6023      	str	r3, [r4, #0]
10000acc:	4838      	ldr	r0, [pc, #224]	@ (10000bb0 <main+0x140>)
10000ace:	f003 fd8f 	bl	100045f0 <__wrap_puts>
10000ad2:	4838      	ldr	r0, [pc, #224]	@ (10000bb4 <main+0x144>)
10000ad4:	f003 fd8c 	bl	100045f0 <__wrap_puts>
10000ad8:	a801      	add	r0, sp, #4
10000ada:	f7ff feff 	bl	100008dc <_Z9InitWiresv>
10000ade:	2200      	movs	r2, #0
10000ae0:	2101      	movs	r1, #1
10000ae2:	201c      	movs	r0, #28
10000ae4:	f000 f8dc 	bl	10000ca0 <gpio_set_pulls>
10000ae8:	2300      	movs	r3, #0
10000aea:	4698      	mov	r8, r3
10000aec:	e03b      	b.n	10000b66 <main+0xf6>
10000aee:	4832      	ldr	r0, [pc, #200]	@ (10000bb8 <main+0x148>)
10000af0:	f003 fd7e 	bl	100045f0 <__wrap_puts>
10000af4:	4b2b      	ldr	r3, [pc, #172]	@ (10000ba4 <main+0x134>)
10000af6:	685b      	ldr	r3, [r3, #4]
10000af8:	03db      	lsls	r3, r3, #15
10000afa:	d4f8      	bmi.n	10000aee <main+0x7e>
10000afc:	e002      	b.n	10000b04 <main+0x94>
10000afe:	482f      	ldr	r0, [pc, #188]	@ (10000bbc <main+0x14c>)
10000b00:	f003 fd76 	bl	100045f0 <__wrap_puts>
10000b04:	4b29      	ldr	r3, [pc, #164]	@ (10000bac <main+0x13c>)
10000b06:	685a      	ldr	r2, [r3, #4]
10000b08:	2380      	movs	r3, #128	@ 0x80
10000b0a:	025b      	lsls	r3, r3, #9
10000b0c:	0016      	movs	r6, r2
10000b0e:	401e      	ands	r6, r3
10000b10:	421a      	tst	r2, r3
10000b12:	d1f4      	bne.n	10000afe <main+0x8e>
10000b14:	4b23      	ldr	r3, [pc, #140]	@ (10000ba4 <main+0x134>)
10000b16:	4642      	mov	r2, r8
10000b18:	611a      	str	r2, [r3, #16]
10000b1a:	9c01      	ldr	r4, [sp, #4]
10000b1c:	9f02      	ldr	r7, [sp, #8]
10000b1e:	e003      	b.n	10000b28 <main+0xb8>
10000b20:	0020      	movs	r0, r4
10000b22:	f000 f855 	bl	10000bd0 <_ZN4Wire4TickEv>
10000b26:	3418      	adds	r4, #24
10000b28:	42a7      	cmp	r7, r4
10000b2a:	d1f9      	bne.n	10000b20 <main+0xb0>
10000b2c:	9c01      	ldr	r4, [sp, #4]
10000b2e:	9b02      	ldr	r3, [sp, #8]
10000b30:	4699      	mov	r9, r3
10000b32:	0035      	movs	r5, r6
10000b34:	2700      	movs	r7, #0
10000b36:	e007      	b.n	10000b48 <main+0xd8>
10000b38:	0020      	movs	r0, r4
10000b3a:	f000 f847 	bl	10000bcc <_ZN4Wire8GetStateEv>
10000b3e:	1c7b      	adds	r3, r7, #1
10000b40:	40b8      	lsls	r0, r7
10000b42:	4305      	orrs	r5, r0
10000b44:	3418      	adds	r4, #24
10000b46:	b2df      	uxtb	r7, r3
10000b48:	45a1      	cmp	r9, r4
10000b4a:	d1f5      	bne.n	10000b38 <main+0xc8>
10000b4c:	4b1c      	ldr	r3, [pc, #112]	@ (10000bc0 <main+0x150>)
10000b4e:	432b      	orrs	r3, r5
10000b50:	4a16      	ldr	r2, [pc, #88]	@ (10000bac <main+0x13c>)
10000b52:	6113      	str	r3, [r2, #16]
10000b54:	4b1b      	ldr	r3, [pc, #108]	@ (10000bc4 <main+0x154>)
10000b56:	4598      	cmp	r8, r3
10000b58:	d811      	bhi.n	10000b7e <main+0x10e>
10000b5a:	200a      	movs	r0, #10
10000b5c:	f000 feb6 	bl	100018cc <sleep_ms>
10000b60:	2301      	movs	r3, #1
10000b62:	469c      	mov	ip, r3
10000b64:	44e0      	add	r8, ip
10000b66:	4643      	mov	r3, r8
10000b68:	3301      	adds	r3, #1
10000b6a:	d1c3      	bne.n	10000af4 <main+0x84>
10000b6c:	a801      	add	r0, sp, #4
10000b6e:	f7ff fd03 	bl	10000578 <_ZNSt6vectorI4WireSaIS0_EED1Ev>
10000b72:	2000      	movs	r0, #0
10000b74:	b005      	add	sp, #20
10000b76:	bcc0      	pop	{r6, r7}
10000b78:	46b9      	mov	r9, r7
10000b7a:	46b0      	mov	r8, r6
10000b7c:	bdf0      	pop	{r4, r5, r6, r7, pc}
10000b7e:	4812      	ldr	r0, [pc, #72]	@ (10000bc8 <main+0x158>)
10000b80:	f003 fd36 	bl	100045f0 <__wrap_puts>
10000b84:	9c01      	ldr	r4, [sp, #4]
10000b86:	9d02      	ldr	r5, [sp, #8]
10000b88:	e003      	b.n	10000b92 <main+0x122>
10000b8a:	0020      	movs	r0, r4
10000b8c:	f000 f836 	bl	10000bfc <_ZN4Wire5ResetEv>
10000b90:	3418      	adds	r4, #24
10000b92:	42a5      	cmp	r5, r4
10000b94:	d1f9      	bne.n	10000b8a <main+0x11a>
10000b96:	46b0      	mov	r8, r6
10000b98:	e7df      	b.n	10000b5a <main+0xea>
10000b9a:	46c0      	nop			@ (mov r8, r8)
10000b9c:	00040f10 	.word	0x00040f10
10000ba0:	100103bc 	.word	0x100103bc
10000ba4:	50200000 	.word	0x50200000
10000ba8:	1000f288 	.word	0x1000f288
10000bac:	50300000 	.word	0x50300000
10000bb0:	1000f2a4 	.word	0x1000f2a4
10000bb4:	1000f2c0 	.word	0x1000f2c0
10000bb8:	1000f2d0 	.word	0x1000f2d0
10000bbc:	1000f2d8 	.word	0x1000f2d8
10000bc0:	000ffff0 	.word	0x000ffff0
10000bc4:	000009c4 	.word	0x000009c4
10000bc8:	1000f2e0 	.word	0x1000f2e0

10000bcc <_ZN4Wire8GetStateEv>:
10000bcc:	7b00      	ldrb	r0, [r0, #12]
10000bce:	4770      	bx	lr

10000bd0 <_ZN4Wire4TickEv>:
10000bd0:	b510      	push	{r4, lr}
10000bd2:	6903      	ldr	r3, [r0, #16]
10000bd4:	6942      	ldr	r2, [r0, #20]
10000bd6:	6804      	ldr	r4, [r0, #0]
10000bd8:	0091      	lsls	r1, r2, #2
10000bda:	5861      	ldr	r1, [r4, r1]
10000bdc:	428b      	cmp	r3, r1
10000bde:	d30a      	bcc.n	10000bf6 <_ZN4Wire4TickEv+0x26>
10000be0:	6841      	ldr	r1, [r0, #4]
10000be2:	1b09      	subs	r1, r1, r4
10000be4:	1089      	asrs	r1, r1, #2
10000be6:	428a      	cmp	r2, r1
10000be8:	d205      	bcs.n	10000bf6 <_ZN4Wire4TickEv+0x26>
10000bea:	7b01      	ldrb	r1, [r0, #12]
10000bec:	424c      	negs	r4, r1
10000bee:	4161      	adcs	r1, r4
10000bf0:	7301      	strb	r1, [r0, #12]
10000bf2:	3201      	adds	r2, #1
10000bf4:	6142      	str	r2, [r0, #20]
10000bf6:	3301      	adds	r3, #1
10000bf8:	6103      	str	r3, [r0, #16]
10000bfa:	bd10      	pop	{r4, pc}

10000bfc <_ZN4Wire5ResetEv>:
10000bfc:	2301      	movs	r3, #1
10000bfe:	7303      	strb	r3, [r0, #12]
10000c00:	2300      	movs	r3, #0
10000c02:	6103      	str	r3, [r0, #16]
10000c04:	6143      	str	r3, [r0, #20]
10000c06:	4770      	bx	lr

10000c08 <_ZNSt12_Vector_baseImSaImEE17_Vector_impl_data12_M_swap_dataERS2_>:
10000c08:	b530      	push	{r4, r5, lr}
10000c0a:	b085      	sub	sp, #20
10000c0c:	2300      	movs	r3, #0
10000c0e:	9301      	str	r3, [sp, #4]
10000c10:	9302      	str	r3, [sp, #8]
10000c12:	9303      	str	r3, [sp, #12]
10000c14:	6804      	ldr	r4, [r0, #0]
10000c16:	9401      	str	r4, [sp, #4]
10000c18:	6842      	ldr	r2, [r0, #4]
10000c1a:	9202      	str	r2, [sp, #8]
10000c1c:	6883      	ldr	r3, [r0, #8]
10000c1e:	9303      	str	r3, [sp, #12]
10000c20:	680d      	ldr	r5, [r1, #0]
10000c22:	6005      	str	r5, [r0, #0]
10000c24:	684d      	ldr	r5, [r1, #4]
10000c26:	6045      	str	r5, [r0, #4]
10000c28:	688d      	ldr	r5, [r1, #8]
10000c2a:	6085      	str	r5, [r0, #8]
10000c2c:	600c      	str	r4, [r1, #0]
10000c2e:	604a      	str	r2, [r1, #4]
10000c30:	608b      	str	r3, [r1, #8]
10000c32:	b005      	add	sp, #20
10000c34:	bd30      	pop	{r4, r5, pc}

10000c36 <_ZNSt6vectorImSaImEE14_M_move_assignEOS1_St17integral_constantIbLb1EE>:
10000c36:	b510      	push	{r4, lr}
10000c38:	b084      	sub	sp, #16
10000c3a:	000c      	movs	r4, r1
10000c3c:	2300      	movs	r3, #0
10000c3e:	9301      	str	r3, [sp, #4]
10000c40:	9302      	str	r3, [sp, #8]
10000c42:	9303      	str	r3, [sp, #12]
10000c44:	f7ff ffe0 	bl	10000c08 <_ZNSt12_Vector_baseImSaImEE17_Vector_impl_data12_M_swap_dataERS2_>
10000c48:	0021      	movs	r1, r4
10000c4a:	a801      	add	r0, sp, #4
10000c4c:	f7ff ffdc 	bl	10000c08 <_ZNSt12_Vector_baseImSaImEE17_Vector_impl_data12_M_swap_dataERS2_>
10000c50:	a801      	add	r0, sp, #4
10000c52:	f7ff fc80 	bl	10000556 <_ZNSt6vectorImSaImEED1Ev>
10000c56:	b004      	add	sp, #16
10000c58:	bd10      	pop	{r4, pc}

10000c5a <_ZN4Wire10SetTimingsESt6vectorImSaImEE>:
10000c5a:	b510      	push	{r4, lr}
10000c5c:	2200      	movs	r2, #0
10000c5e:	f7ff ffea 	bl	10000c36 <_ZNSt6vectorImSaImEE14_M_move_assignEOS1_St17integral_constantIbLb1EE>
10000c62:	bd10      	pop	{r4, pc}

10000c64 <setup_default_uart>:
10000c64:	b510      	push	{r4, lr}
10000c66:	f003 fe03 	bl	10004870 <stdio_uart_init>
10000c6a:	bd10      	pop	{r4, pc}

10000c6c <gpio_set_function>:
10000c6c:	b510      	push	{r4, lr}
10000c6e:	0083      	lsls	r3, r0, #2
10000c70:	4a08      	ldr	r2, [pc, #32]	@ (10000c94 <gpio_set_function+0x28>)
10000c72:	189a      	adds	r2, r3, r2
10000c74:	6814      	ldr	r4, [r2, #0]
10000c76:	2240      	movs	r2, #64	@ 0x40
10000c78:	4054      	eors	r4, r2
10000c7a:	3280      	adds	r2, #128	@ 0x80
10000c7c:	4022      	ands	r2, r4
10000c7e:	4c06      	ldr	r4, [pc, #24]	@ (10000c98 <gpio_set_function+0x2c>)
10000c80:	46a4      	mov	ip, r4
10000c82:	4463      	add	r3, ip
10000c84:	601a      	str	r2, [r3, #0]
10000c86:	00c0      	lsls	r0, r0, #3
10000c88:	4b04      	ldr	r3, [pc, #16]	@ (10000c9c <gpio_set_function+0x30>)
10000c8a:	469c      	mov	ip, r3
10000c8c:	4460      	add	r0, ip
10000c8e:	6041      	str	r1, [r0, #4]
10000c90:	bd10      	pop	{r4, pc}
10000c92:	46c0      	nop			@ (mov r8, r8)
10000c94:	4001c004 	.word	0x4001c004
10000c98:	4001d004 	.word	0x4001d004
10000c9c:	40014000 	.word	0x40014000

10000ca0 <gpio_set_pulls>:
10000ca0:	0080      	lsls	r0, r0, #2
10000ca2:	4b0c      	ldr	r3, [pc, #48]	@ (10000cd4 <gpio_set_pulls+0x34>)
10000ca4:	469c      	mov	ip, r3
10000ca6:	4460      	add	r0, ip
10000ca8:	2900      	cmp	r1, #0
10000caa:	d00e      	beq.n	10000cca <gpio_set_pulls+0x2a>
10000cac:	2308      	movs	r3, #8
10000cae:	2a00      	cmp	r2, #0
10000cb0:	d00d      	beq.n	10000cce <gpio_set_pulls+0x2e>
10000cb2:	2204      	movs	r2, #4
10000cb4:	4313      	orrs	r3, r2
10000cb6:	6802      	ldr	r2, [r0, #0]
10000cb8:	4053      	eors	r3, r2
10000cba:	220c      	movs	r2, #12
10000cbc:	4013      	ands	r3, r2
10000cbe:	2280      	movs	r2, #128	@ 0x80
10000cc0:	0152      	lsls	r2, r2, #5
10000cc2:	4694      	mov	ip, r2
10000cc4:	4460      	add	r0, ip
10000cc6:	6003      	str	r3, [r0, #0]
10000cc8:	4770      	bx	lr
10000cca:	2300      	movs	r3, #0
10000ccc:	e7ef      	b.n	10000cae <gpio_set_pulls+0xe>
10000cce:	2200      	movs	r2, #0
10000cd0:	e7f0      	b.n	10000cb4 <gpio_set_pulls+0x14>
10000cd2:	46c0      	nop			@ (mov r8, r8)
10000cd4:	4001c004 	.word	0x4001c004

10000cd8 <panic>:
10000cd8:	b40f      	push	{r0, r1, r2, r3}
10000cda:	b500      	push	{lr}
10000cdc:	b083      	sub	sp, #12
10000cde:	4808      	ldr	r0, [pc, #32]	@ (10000d00 <panic+0x28>)
10000ce0:	f003 fc86 	bl	100045f0 <__wrap_puts>
10000ce4:	9b04      	ldr	r3, [sp, #16]
10000ce6:	2b00      	cmp	r3, #0
10000ce8:	d007      	beq.n	10000cfa <panic+0x22>
10000cea:	a905      	add	r1, sp, #20
10000cec:	9101      	str	r1, [sp, #4]
10000cee:	0018      	movs	r0, r3
10000cf0:	f003 fc8e 	bl	10004610 <__wrap_vprintf>
10000cf4:	4803      	ldr	r0, [pc, #12]	@ (10000d04 <panic+0x2c>)
10000cf6:	f003 fc7b 	bl	100045f0 <__wrap_puts>
10000cfa:	2001      	movs	r0, #1
10000cfc:	f003 faaa 	bl	10004254 <_exit>
10000d00:	1000f2e8 	.word	0x1000f2e8
10000d04:	1000fa80 	.word	0x1000fa80

10000d08 <hw_claim_lock>:
10000d08:	f3ef 8010 	mrs	r0, PRIMASK
10000d0c:	b672      	cpsid	i
10000d0e:	4b03      	ldr	r3, [pc, #12]	@ (10000d1c <hw_claim_lock+0x14>)
10000d10:	681b      	ldr	r3, [r3, #0]
10000d12:	2b00      	cmp	r3, #0
10000d14:	d0fb      	beq.n	10000d0e <hw_claim_lock+0x6>
10000d16:	f3bf 8f5f 	dmb	sy
10000d1a:	4770      	bx	lr
10000d1c:	d000012c 	.word	0xd000012c

10000d20 <hw_claim_unlock>:
10000d20:	f3bf 8f5f 	dmb	sy
10000d24:	4b02      	ldr	r3, [pc, #8]	@ (10000d30 <hw_claim_unlock+0x10>)
10000d26:	2200      	movs	r2, #0
10000d28:	601a      	str	r2, [r3, #0]
10000d2a:	f380 8810 	msr	PRIMASK, r0
10000d2e:	4770      	bx	lr
10000d30:	d000012c 	.word	0xd000012c

10000d34 <hw_claim_or_assert>:
10000d34:	b5f8      	push	{r3, r4, r5, r6, r7, lr}
10000d36:	0006      	movs	r6, r0
10000d38:	000c      	movs	r4, r1
10000d3a:	0015      	movs	r5, r2
10000d3c:	f7ff ffe4 	bl	10000d08 <hw_claim_lock>
10000d40:	08e3      	lsrs	r3, r4, #3
10000d42:	18f7      	adds	r7, r6, r3
10000d44:	5cf1      	ldrb	r1, [r6, r3]
10000d46:	2207      	movs	r2, #7
10000d48:	4022      	ands	r2, r4
10000d4a:	2301      	movs	r3, #1
10000d4c:	4093      	lsls	r3, r2
10000d4e:	420b      	tst	r3, r1
10000d50:	d105      	bne.n	10000d5e <hw_claim_or_assert+0x2a>
10000d52:	b2db      	uxtb	r3, r3
10000d54:	430b      	orrs	r3, r1
10000d56:	703b      	strb	r3, [r7, #0]
10000d58:	f7ff ffe2 	bl	10000d20 <hw_claim_unlock>
10000d5c:	bdf8      	pop	{r3, r4, r5, r6, r7, pc}
10000d5e:	0021      	movs	r1, r4
10000d60:	0028      	movs	r0, r5
10000d62:	f7ff ffb9 	bl	10000cd8 <panic>
	...

10000d68 <next_striped_spin_lock_num>:
10000d68:	4a05      	ldr	r2, [pc, #20]	@ (10000d80 <next_striped_spin_lock_num+0x18>)
10000d6a:	7810      	ldrb	r0, [r2, #0]
10000d6c:	1c43      	adds	r3, r0, #1
10000d6e:	b2db      	uxtb	r3, r3
10000d70:	7013      	strb	r3, [r2, #0]
10000d72:	2b17      	cmp	r3, #23
10000d74:	d902      	bls.n	10000d7c <next_striped_spin_lock_num+0x14>
10000d76:	0013      	movs	r3, r2
10000d78:	2210      	movs	r2, #16
10000d7a:	701a      	strb	r2, [r3, #0]
10000d7c:	4770      	bx	lr
10000d7e:	46c0      	nop			@ (mov r8, r8)
10000d80:	200011f4 	.word	0x200011f4

10000d84 <spin_locks_reset>:
10000d84:	2300      	movs	r3, #0
10000d86:	e007      	b.n	10000d98 <spin_locks_reset+0x14>
10000d88:	4a05      	ldr	r2, [pc, #20]	@ (10000da0 <spin_locks_reset+0x1c>)
10000d8a:	189a      	adds	r2, r3, r2
10000d8c:	0092      	lsls	r2, r2, #2
10000d8e:	f3bf 8f5f 	dmb	sy
10000d92:	2100      	movs	r1, #0
10000d94:	6011      	str	r1, [r2, #0]
10000d96:	3301      	adds	r3, #1
10000d98:	2b1f      	cmp	r3, #31
10000d9a:	d9f5      	bls.n	10000d88 <spin_locks_reset+0x4>
10000d9c:	4770      	bx	lr
10000d9e:	46c0      	nop			@ (mov r8, r8)
10000da0:	34000040 	.word	0x34000040

10000da4 <set_raw_irq_handler_and_unlock>:
10000da4:	4b07      	ldr	r3, [pc, #28]	@ (10000dc4 <set_raw_irq_handler_and_unlock+0x20>)
10000da6:	689b      	ldr	r3, [r3, #8]
10000da8:	3010      	adds	r0, #16
10000daa:	0080      	lsls	r0, r0, #2
10000dac:	5019      	str	r1, [r3, r0]
10000dae:	f3bf 8f5f 	dmb	sy
10000db2:	f3bf 8f5f 	dmb	sy
10000db6:	4b04      	ldr	r3, [pc, #16]	@ (10000dc8 <set_raw_irq_handler_and_unlock+0x24>)
10000db8:	2100      	movs	r1, #0
10000dba:	6019      	str	r1, [r3, #0]
10000dbc:	f382 8810 	msr	PRIMASK, r2
10000dc0:	4770      	bx	lr
10000dc2:	46c0      	nop			@ (mov r8, r8)
10000dc4:	e000ed00 	.word	0xe000ed00
10000dc8:	d0000124 	.word	0xd0000124

10000dcc <nvic_ipr0>:
10000dcc:	4800      	ldr	r0, [pc, #0]	@ (10000dd0 <nvic_ipr0+0x4>)
10000dce:	4770      	bx	lr
10000dd0:	e000e400 	.word	0xe000e400

10000dd4 <runtime_init_per_core_irq_priorities>:
10000dd4:	b510      	push	{r4, lr}
10000dd6:	f7ff fff9 	bl	10000dcc <nvic_ipr0>
10000dda:	2300      	movs	r3, #0
10000ddc:	e002      	b.n	10000de4 <runtime_init_per_core_irq_priorities+0x10>
10000dde:	4a03      	ldr	r2, [pc, #12]	@ (10000dec <runtime_init_per_core_irq_priorities+0x18>)
10000de0:	c004      	stmia	r0!, {r2}
10000de2:	3301      	adds	r3, #1
10000de4:	2b07      	cmp	r3, #7
10000de6:	d9fa      	bls.n	10000dde <runtime_init_per_core_irq_priorities+0xa>
10000de8:	bd10      	pop	{r4, pc}
10000dea:	46c0      	nop			@ (mov r8, r8)
10000dec:	80808080 	.word	0x80808080

10000df0 <resolve_j_16>:
10000df0:	b510      	push	{r4, lr}
10000df2:	8803      	ldrh	r3, [r0, #0]
10000df4:	0ada      	lsrs	r2, r3, #11
10000df6:	2a1c      	cmp	r2, #28
10000df8:	d105      	bne.n	10000e06 <resolve_j_16+0x16>
10000dfa:	055b      	lsls	r3, r3, #21
10000dfc:	155b      	asrs	r3, r3, #21
10000dfe:	3302      	adds	r3, #2
10000e00:	005b      	lsls	r3, r3, #1
10000e02:	18c0      	adds	r0, r0, r3
10000e04:	bd10      	pop	{r4, pc}
10000e06:	4b03      	ldr	r3, [pc, #12]	@ (10000e14 <resolve_j_16+0x24>)
10000e08:	4a03      	ldr	r2, [pc, #12]	@ (10000e18 <resolve_j_16+0x28>)
10000e0a:	2110      	movs	r1, #16
10000e0c:	4803      	ldr	r0, [pc, #12]	@ (10000e1c <resolve_j_16+0x2c>)
10000e0e:	31ff      	adds	r1, #255	@ 0xff
10000e10:	f003 fa7a 	bl	10004308 <__assert_func>
10000e14:	1000f2f8 	.word	0x1000f2f8
10000e18:	10010414 	.word	0x10010414
10000e1c:	1000f310 	.word	0x1000f310

10000e20 <make_j_16>:
10000e20:	b510      	push	{r4, lr}
10000e22:	1a09      	subs	r1, r1, r0
10000e24:	1f0b      	subs	r3, r1, #4
10000e26:	4a0a      	ldr	r2, [pc, #40]	@ (10000e50 <make_j_16+0x30>)
10000e28:	1888      	adds	r0, r1, r2
10000e2a:	4a0a      	ldr	r2, [pc, #40]	@ (10000e54 <make_j_16+0x34>)
10000e2c:	4290      	cmp	r0, r2
10000e2e:	d808      	bhi.n	10000e42 <make_j_16+0x22>
10000e30:	07c9      	lsls	r1, r1, #31
10000e32:	d406      	bmi.n	10000e42 <make_j_16+0x22>
10000e34:	105b      	asrs	r3, r3, #1
10000e36:	055b      	lsls	r3, r3, #21
10000e38:	0d5b      	lsrs	r3, r3, #21
10000e3a:	4807      	ldr	r0, [pc, #28]	@ (10000e58 <make_j_16+0x38>)
10000e3c:	4318      	orrs	r0, r3
10000e3e:	b280      	uxth	r0, r0
10000e40:	bd10      	pop	{r4, pc}
10000e42:	4b06      	ldr	r3, [pc, #24]	@ (10000e5c <make_j_16+0x3c>)
10000e44:	4a06      	ldr	r2, [pc, #24]	@ (10000e60 <make_j_16+0x40>)
10000e46:	2102      	movs	r1, #2
10000e48:	4806      	ldr	r0, [pc, #24]	@ (10000e64 <make_j_16+0x44>)
10000e4a:	31ff      	adds	r1, #255	@ 0xff
10000e4c:	f003 fa5c 	bl	10004308 <__assert_func>
10000e50:	000007fc 	.word	0x000007fc
10000e54:	00000ffe 	.word	0x00000ffe
10000e58:	ffffe000 	.word	0xffffe000
10000e5c:	1000f358 	.word	0x1000f358
10000e60:	10010408 	.word	0x10010408
10000e64:	1000f310 	.word	0x1000f310

10000e68 <insert_bl_32>:
10000e68:	b510      	push	{r4, lr}
10000e6a:	1a09      	subs	r1, r1, r0
10000e6c:	3904      	subs	r1, #4
10000e6e:	084a      	lsrs	r2, r1, #1
10000e70:	0b09      	lsrs	r1, r1, #12
10000e72:	d108      	bne.n	10000e86 <insert_bl_32+0x1e>
10000e74:	0549      	lsls	r1, r1, #21
10000e76:	0d49      	lsrs	r1, r1, #21
10000e78:	4b06      	ldr	r3, [pc, #24]	@ (10000e94 <insert_bl_32+0x2c>)
10000e7a:	430b      	orrs	r3, r1
10000e7c:	8003      	strh	r3, [r0, #0]
10000e7e:	4b06      	ldr	r3, [pc, #24]	@ (10000e98 <insert_bl_32+0x30>)
10000e80:	4313      	orrs	r3, r2
10000e82:	8043      	strh	r3, [r0, #2]
10000e84:	bd10      	pop	{r4, pc}
10000e86:	4b05      	ldr	r3, [pc, #20]	@ (10000e9c <insert_bl_32+0x34>)
10000e88:	4a05      	ldr	r2, [pc, #20]	@ (10000ea0 <insert_bl_32+0x38>)
10000e8a:	210a      	movs	r1, #10
10000e8c:	4805      	ldr	r0, [pc, #20]	@ (10000ea4 <insert_bl_32+0x3c>)
10000e8e:	31ff      	adds	r1, #255	@ 0xff
10000e90:	f003 fa3a 	bl	10004308 <__assert_func>
10000e94:	fffff000 	.word	0xfffff000
10000e98:	fffff800 	.word	0xfffff800
10000e9c:	1000f388 	.word	0x1000f388
10000ea0:	100103e4 	.word	0x100103e4
10000ea4:	1000f310 	.word	0x1000f310

10000ea8 <irq_is_enabled>:
10000ea8:	2301      	movs	r3, #1
10000eaa:	4083      	lsls	r3, r0
10000eac:	4a03      	ldr	r2, [pc, #12]	@ (10000ebc <irq_is_enabled+0x14>)
10000eae:	6810      	ldr	r0, [r2, #0]
10000eb0:	4018      	ands	r0, r3
10000eb2:	1e43      	subs	r3, r0, #1
10000eb4:	4198      	sbcs	r0, r3
10000eb6:	b2c0      	uxtb	r0, r0
10000eb8:	4770      	bx	lr
10000eba:	46c0      	nop			@ (mov r8, r8)
10000ebc:	e000e100 	.word	0xe000e100

10000ec0 <irq_set_mask_n_enabled>:
10000ec0:	2a00      	cmp	r2, #0
10000ec2:	d005      	beq.n	10000ed0 <irq_set_mask_n_enabled+0x10>
10000ec4:	4b04      	ldr	r3, [pc, #16]	@ (10000ed8 <irq_set_mask_n_enabled+0x18>)
10000ec6:	22c0      	movs	r2, #192	@ 0xc0
10000ec8:	0052      	lsls	r2, r2, #1
10000eca:	5099      	str	r1, [r3, r2]
10000ecc:	6019      	str	r1, [r3, #0]
10000ece:	4770      	bx	lr
10000ed0:	4a01      	ldr	r2, [pc, #4]	@ (10000ed8 <irq_set_mask_n_enabled+0x18>)
10000ed2:	2380      	movs	r3, #128	@ 0x80
10000ed4:	50d1      	str	r1, [r2, r3]
10000ed6:	e7fa      	b.n	10000ece <irq_set_mask_n_enabled+0xe>
10000ed8:	e000e100 	.word	0xe000e100

10000edc <irq_set_enabled>:
10000edc:	b510      	push	{r4, lr}
10000ede:	000a      	movs	r2, r1
10000ee0:	231f      	movs	r3, #31
10000ee2:	4003      	ands	r3, r0
10000ee4:	2101      	movs	r1, #1
10000ee6:	4099      	lsls	r1, r3
10000ee8:	0940      	lsrs	r0, r0, #5
10000eea:	f7ff ffe9 	bl	10000ec0 <irq_set_mask_n_enabled>
10000eee:	bd10      	pop	{r4, pc}

10000ef0 <irq_get_vtable_handler>:
10000ef0:	4b02      	ldr	r3, [pc, #8]	@ (10000efc <irq_get_vtable_handler+0xc>)
10000ef2:	689b      	ldr	r3, [r3, #8]
10000ef4:	3010      	adds	r0, #16
10000ef6:	0080      	lsls	r0, r0, #2
10000ef8:	58c0      	ldr	r0, [r0, r3]
10000efa:	4770      	bx	lr
10000efc:	e000ed00 	.word	0xe000ed00

10000f00 <irq_set_exclusive_handler>:
10000f00:	b570      	push	{r4, r5, r6, lr}
10000f02:	0004      	movs	r4, r0
10000f04:	000d      	movs	r5, r1
10000f06:	f3ef 8610 	mrs	r6, PRIMASK
10000f0a:	b672      	cpsid	i
10000f0c:	4b0c      	ldr	r3, [pc, #48]	@ (10000f40 <irq_set_exclusive_handler+0x40>)
10000f0e:	681b      	ldr	r3, [r3, #0]
10000f10:	2b00      	cmp	r3, #0
10000f12:	d0fb      	beq.n	10000f0c <irq_set_exclusive_handler+0xc>
10000f14:	f3bf 8f5f 	dmb	sy
10000f18:	0020      	movs	r0, r4
10000f1a:	f7ff ffe9 	bl	10000ef0 <irq_get_vtable_handler>
10000f1e:	4b09      	ldr	r3, [pc, #36]	@ (10000f44 <irq_set_exclusive_handler+0x44>)
10000f20:	4298      	cmp	r0, r3
10000f22:	d001      	beq.n	10000f28 <irq_set_exclusive_handler+0x28>
10000f24:	42a8      	cmp	r0, r5
10000f26:	d105      	bne.n	10000f34 <irq_set_exclusive_handler+0x34>
10000f28:	0032      	movs	r2, r6
10000f2a:	0029      	movs	r1, r5
10000f2c:	0020      	movs	r0, r4
10000f2e:	f7ff ff39 	bl	10000da4 <set_raw_irq_handler_and_unlock>
10000f32:	bd70      	pop	{r4, r5, r6, pc}
10000f34:	4b04      	ldr	r3, [pc, #16]	@ (10000f48 <irq_set_exclusive_handler+0x48>)
10000f36:	4a05      	ldr	r2, [pc, #20]	@ (10000f4c <irq_set_exclusive_handler+0x4c>)
10000f38:	4805      	ldr	r0, [pc, #20]	@ (10000f50 <irq_set_exclusive_handler+0x50>)
10000f3a:	21e1      	movs	r1, #225	@ 0xe1
10000f3c:	f003 f9e4 	bl	10004308 <__assert_func>
10000f40:	d0000124 	.word	0xd0000124
10000f44:	100001cd 	.word	0x100001cd
10000f48:	1000f398 	.word	0x1000f398
10000f4c:	10010424 	.word	0x10010424
10000f50:	1000f310 	.word	0x1000f310

10000f54 <irq_remove_handler>:
10000f54:	b5f0      	push	{r4, r5, r6, r7, lr}
10000f56:	46ce      	mov	lr, r9
10000f58:	4647      	mov	r7, r8
10000f5a:	b580      	push	{r7, lr}
10000f5c:	b083      	sub	sp, #12
10000f5e:	0006      	movs	r6, r0
10000f60:	000d      	movs	r5, r1
10000f62:	f3ef 8810 	mrs	r8, PRIMASK
10000f66:	b672      	cpsid	i
10000f68:	4b4f      	ldr	r3, [pc, #316]	@ (100010a8 <irq_remove_handler+0x154>)
10000f6a:	681b      	ldr	r3, [r3, #0]
10000f6c:	2b00      	cmp	r3, #0
10000f6e:	d0fb      	beq.n	10000f68 <irq_remove_handler+0x14>
10000f70:	f3bf 8f5f 	dmb	sy
10000f74:	4b4d      	ldr	r3, [pc, #308]	@ (100010ac <irq_remove_handler+0x158>)
10000f76:	689a      	ldr	r2, [r3, #8]
10000f78:	0034      	movs	r4, r6
10000f7a:	3410      	adds	r4, #16
10000f7c:	00a3      	lsls	r3, r4, #2
10000f7e:	58d7      	ldr	r7, [r2, r3]
10000f80:	4b4b      	ldr	r3, [pc, #300]	@ (100010b0 <irq_remove_handler+0x15c>)
10000f82:	429f      	cmp	r7, r3
10000f84:	d007      	beq.n	10000f96 <irq_remove_handler+0x42>
10000f86:	42af      	cmp	r7, r5
10000f88:	d100      	bne.n	10000f8c <irq_remove_handler+0x38>
10000f8a:	e08a      	b.n	100010a2 <irq_remove_handler+0x14e>
10000f8c:	9701      	str	r7, [sp, #4]
10000f8e:	4b49      	ldr	r3, [pc, #292]	@ (100010b4 <irq_remove_handler+0x160>)
10000f90:	1afb      	subs	r3, r7, r3
10000f92:	2b2f      	cmp	r3, #47	@ 0x2f
10000f94:	d909      	bls.n	10000faa <irq_remove_handler+0x56>
10000f96:	4642      	mov	r2, r8
10000f98:	0039      	movs	r1, r7
10000f9a:	0030      	movs	r0, r6
10000f9c:	f7ff ff02 	bl	10000da4 <set_raw_irq_handler_and_unlock>
10000fa0:	b003      	add	sp, #12
10000fa2:	bcc0      	pop	{r6, r7}
10000fa4:	46b9      	mov	r9, r7
10000fa6:	46b0      	mov	r8, r6
10000fa8:	bdf0      	pop	{r4, r5, r6, r7, pc}
10000faa:	0030      	movs	r0, r6
10000fac:	f7ff ff7c 	bl	10000ea8 <irq_is_enabled>
10000fb0:	4681      	mov	r9, r0
10000fb2:	2100      	movs	r1, #0
10000fb4:	0030      	movs	r0, r6
10000fb6:	f7ff ff91 	bl	10000edc <irq_set_enabled>
10000fba:	f3bf 8f5f 	dmb	sy
10000fbe:	f3ef 8105 	mrs	r1, IPSR
10000fc2:	2900      	cmp	r1, #0
10000fc4:	d001      	beq.n	10000fca <irq_remove_handler+0x76>
10000fc6:	428c      	cmp	r4, r1
10000fc8:	d111      	bne.n	10000fee <irq_remove_handler+0x9a>
10000fca:	2301      	movs	r3, #1
10000fcc:	9c01      	ldr	r4, [sp, #4]
10000fce:	439c      	bics	r4, r3
10000fd0:	2000      	movs	r0, #0
10000fd2:	68a3      	ldr	r3, [r4, #8]
10000fd4:	429d      	cmp	r5, r3
10000fd6:	d012      	beq.n	10000ffe <irq_remove_handler+0xaa>
10000fd8:	2206      	movs	r2, #6
10000fda:	56a2      	ldrsb	r2, [r4, r2]
10000fdc:	2a00      	cmp	r2, #0
10000fde:	db0d      	blt.n	10000ffc <irq_remove_handler+0xa8>
10000fe0:	0053      	lsls	r3, r2, #1
10000fe2:	189b      	adds	r3, r3, r2
10000fe4:	009b      	lsls	r3, r3, #2
10000fe6:	4a33      	ldr	r2, [pc, #204]	@ (100010b4 <irq_remove_handler+0x160>)
10000fe8:	0020      	movs	r0, r4
10000fea:	18d4      	adds	r4, r2, r3
10000fec:	e7f1      	b.n	10000fd2 <irq_remove_handler+0x7e>
10000fee:	4b32      	ldr	r3, [pc, #200]	@ (100010b8 <irq_remove_handler+0x164>)
10000ff0:	4a32      	ldr	r2, [pc, #200]	@ (100010bc <irq_remove_handler+0x168>)
10000ff2:	21f4      	movs	r1, #244	@ 0xf4
10000ff4:	4832      	ldr	r0, [pc, #200]	@ (100010c0 <irq_remove_handler+0x16c>)
10000ff6:	31ff      	adds	r1, #255	@ 0xff
10000ff8:	f003 f986 	bl	10004308 <__assert_func>
10000ffc:	0020      	movs	r0, r4
10000ffe:	429d      	cmp	r5, r3
10001000:	d149      	bne.n	10001096 <irq_remove_handler+0x142>
10001002:	2506      	movs	r5, #6
10001004:	5765      	ldrsb	r5, [r4, r5]
10001006:	2d00      	cmp	r5, #0
10001008:	db2b      	blt.n	10001062 <irq_remove_handler+0x10e>
1000100a:	4b2a      	ldr	r3, [pc, #168]	@ (100010b4 <irq_remove_handler+0x160>)
1000100c:	006a      	lsls	r2, r5, #1
1000100e:	1952      	adds	r2, r2, r5
10001010:	0092      	lsls	r2, r2, #2
10001012:	189b      	adds	r3, r3, r2
10001014:	689a      	ldr	r2, [r3, #8]
10001016:	60a2      	str	r2, [r4, #8]
10001018:	79da      	ldrb	r2, [r3, #7]
1000101a:	71e2      	strb	r2, [r4, #7]
1000101c:	799b      	ldrb	r3, [r3, #6]
1000101e:	b25b      	sxtb	r3, r3
10001020:	71a3      	strb	r3, [r4, #6]
10001022:	2b00      	cmp	r3, #0
10001024:	da0f      	bge.n	10001046 <irq_remove_handler+0xf2>
10001026:	4827      	ldr	r0, [pc, #156]	@ (100010c4 <irq_remove_handler+0x170>)
10001028:	80a0      	strh	r0, [r4, #4]
1000102a:	4b22      	ldr	r3, [pc, #136]	@ (100010b4 <irq_remove_handler+0x160>)
1000102c:	006a      	lsls	r2, r5, #1
1000102e:	1952      	adds	r2, r2, r5
10001030:	0092      	lsls	r2, r2, #2
10001032:	189b      	adds	r3, r3, r2
10001034:	4a24      	ldr	r2, [pc, #144]	@ (100010c8 <irq_remove_handler+0x174>)
10001036:	7811      	ldrb	r1, [r2, #0]
10001038:	7199      	strb	r1, [r3, #6]
1000103a:	7015      	strb	r5, [r2, #0]
1000103c:	4649      	mov	r1, r9
1000103e:	0030      	movs	r0, r6
10001040:	f7ff ff4c 	bl	10000edc <irq_set_enabled>
10001044:	e7a7      	b.n	10000f96 <irq_remove_handler+0x42>
10001046:	0068      	lsls	r0, r5, #1
10001048:	1940      	adds	r0, r0, r5
1000104a:	0080      	lsls	r0, r0, #2
1000104c:	4b19      	ldr	r3, [pc, #100]	@ (100010b4 <irq_remove_handler+0x160>)
1000104e:	18c0      	adds	r0, r0, r3
10001050:	3004      	adds	r0, #4
10001052:	f7ff fecd 	bl	10000df0 <resolve_j_16>
10001056:	0001      	movs	r1, r0
10001058:	1d23      	adds	r3, r4, #4
1000105a:	0018      	movs	r0, r3
1000105c:	f7ff fee0 	bl	10000e20 <make_j_16>
10001060:	e7e2      	b.n	10001028 <irq_remove_handler+0xd4>
10001062:	2900      	cmp	r1, #0
10001064:	d112      	bne.n	1000108c <irq_remove_handler+0x138>
10001066:	2800      	cmp	r0, #0
10001068:	d00e      	beq.n	10001088 <irq_remove_handler+0x134>
1000106a:	23ff      	movs	r3, #255	@ 0xff
1000106c:	7183      	strb	r3, [r0, #6]
1000106e:	4b17      	ldr	r3, [pc, #92]	@ (100010cc <irq_remove_handler+0x178>)
10001070:	8083      	strh	r3, [r0, #4]
10001072:	4915      	ldr	r1, [pc, #84]	@ (100010c8 <irq_remove_handler+0x174>)
10001074:	780b      	ldrb	r3, [r1, #0]
10001076:	71a3      	strb	r3, [r4, #6]
10001078:	4a0e      	ldr	r2, [pc, #56]	@ (100010b4 <irq_remove_handler+0x160>)
1000107a:	4b15      	ldr	r3, [pc, #84]	@ (100010d0 <irq_remove_handler+0x17c>)
1000107c:	1aa4      	subs	r4, r4, r2
1000107e:	4164      	adcs	r4, r4
10001080:	4363      	muls	r3, r4
10001082:	0d1b      	lsrs	r3, r3, #20
10001084:	700b      	strb	r3, [r1, #0]
10001086:	e7d9      	b.n	1000103c <irq_remove_handler+0xe8>
10001088:	4f09      	ldr	r7, [pc, #36]	@ (100010b0 <irq_remove_handler+0x15c>)
1000108a:	e7f2      	b.n	10001072 <irq_remove_handler+0x11e>
1000108c:	4911      	ldr	r1, [pc, #68]	@ (100010d4 <irq_remove_handler+0x180>)
1000108e:	1d20      	adds	r0, r4, #4
10001090:	f7ff feea 	bl	10000e68 <insert_bl_32>
10001094:	e7d2      	b.n	1000103c <irq_remove_handler+0xe8>
10001096:	4b10      	ldr	r3, [pc, #64]	@ (100010d8 <irq_remove_handler+0x184>)
10001098:	4a08      	ldr	r2, [pc, #32]	@ (100010bc <irq_remove_handler+0x168>)
1000109a:	4809      	ldr	r0, [pc, #36]	@ (100010c0 <irq_remove_handler+0x16c>)
1000109c:	490f      	ldr	r1, [pc, #60]	@ (100010dc <irq_remove_handler+0x188>)
1000109e:	f003 f933 	bl	10004308 <__assert_func>
100010a2:	4f03      	ldr	r7, [pc, #12]	@ (100010b0 <irq_remove_handler+0x15c>)
100010a4:	e777      	b.n	10000f96 <irq_remove_handler+0x42>
100010a6:	46c0      	nop			@ (mov r8, r8)
100010a8:	d0000124 	.word	0xd0000124
100010ac:	e000ed00 	.word	0xe000ed00
100010b0:	100001cd 	.word	0x100001cd
100010b4:	200011f8 	.word	0x200011f8
100010b8:	1000f3d0 	.word	0x1000f3d0
100010bc:	100103f4 	.word	0x100103f4
100010c0:	1000f310 	.word	0x1000f310
100010c4:	0000bd01 	.word	0x0000bd01
100010c8:	20001dc1 	.word	0x20001dc1
100010cc:	ffffbd01 	.word	0xffffbd01
100010d0:	0000aaaa 	.word	0x0000aaaa
100010d4:	20001232 	.word	0x20001232
100010d8:	1000f404 	.word	0x1000f404
100010dc:	00000235 	.word	0x00000235

100010e0 <irq_add_tail_to_free_list>:
100010e0:	b5f8      	push	{r3, r4, r5, r6, r7, lr}
100010e2:	2201      	movs	r2, #1
100010e4:	4302      	orrs	r2, r0
100010e6:	4b2c      	ldr	r3, [pc, #176]	@ (10001198 <irq_add_tail_to_free_list+0xb8>)
100010e8:	1ad3      	subs	r3, r2, r3
100010ea:	2b2f      	cmp	r3, #47	@ 0x2f
100010ec:	d828      	bhi.n	10001140 <irq_add_tail_to_free_list+0x60>
100010ee:	f3ef 8305 	mrs	r3, IPSR
100010f2:	2b00      	cmp	r3, #0
100010f4:	d02a      	beq.n	1000114c <irq_add_tail_to_free_list+0x6c>
100010f6:	f3ef 8410 	mrs	r4, PRIMASK
100010fa:	b672      	cpsid	i
100010fc:	4927      	ldr	r1, [pc, #156]	@ (1000119c <irq_add_tail_to_free_list+0xbc>)
100010fe:	6809      	ldr	r1, [r1, #0]
10001100:	2900      	cmp	r1, #0
10001102:	d0fb      	beq.n	100010fc <irq_add_tail_to_free_list+0x1c>
10001104:	f3bf 8f5f 	dmb	sy
10001108:	4d23      	ldr	r5, [pc, #140]	@ (10001198 <irq_add_tail_to_free_list+0xb8>)
1000110a:	4925      	ldr	r1, [pc, #148]	@ (100011a0 <irq_add_tail_to_free_list+0xc0>)
1000110c:	0006      	movs	r6, r0
1000110e:	1b76      	subs	r6, r6, r5
10001110:	4176      	adcs	r6, r6
10001112:	4371      	muls	r1, r6
10001114:	0d09      	lsrs	r1, r1, #20
10001116:	b24d      	sxtb	r5, r1
10001118:	4922      	ldr	r1, [pc, #136]	@ (100011a4 <irq_add_tail_to_free_list+0xc4>)
1000111a:	6889      	ldr	r1, [r1, #8]
1000111c:	009b      	lsls	r3, r3, #2
1000111e:	58c9      	ldr	r1, [r1, r3]
10001120:	4291      	cmp	r1, r2
10001122:	d019      	beq.n	10001158 <irq_add_tail_to_free_list+0x78>
10001124:	2100      	movs	r1, #0
10001126:	2903      	cmp	r1, #3
10001128:	d830      	bhi.n	1000118c <irq_add_tail_to_free_list+0xac>
1000112a:	4b1b      	ldr	r3, [pc, #108]	@ (10001198 <irq_add_tail_to_free_list+0xb8>)
1000112c:	004a      	lsls	r2, r1, #1
1000112e:	1852      	adds	r2, r2, r1
10001130:	0092      	lsls	r2, r2, #2
10001132:	189b      	adds	r3, r3, r2
10001134:	799b      	ldrb	r3, [r3, #6]
10001136:	b25b      	sxtb	r3, r3
10001138:	42ab      	cmp	r3, r5
1000113a:	d01d      	beq.n	10001178 <irq_add_tail_to_free_list+0x98>
1000113c:	3101      	adds	r1, #1
1000113e:	e7f2      	b.n	10001126 <irq_add_tail_to_free_list+0x46>
10001140:	4b19      	ldr	r3, [pc, #100]	@ (100011a8 <irq_add_tail_to_free_list+0xc8>)
10001142:	4a1a      	ldr	r2, [pc, #104]	@ (100011ac <irq_add_tail_to_free_list+0xcc>)
10001144:	481a      	ldr	r0, [pc, #104]	@ (100011b0 <irq_add_tail_to_free_list+0xd0>)
10001146:	491b      	ldr	r1, [pc, #108]	@ (100011b4 <irq_add_tail_to_free_list+0xd4>)
10001148:	f003 f8de 	bl	10004308 <__assert_func>
1000114c:	4b1a      	ldr	r3, [pc, #104]	@ (100011b8 <irq_add_tail_to_free_list+0xd8>)
1000114e:	4a17      	ldr	r2, [pc, #92]	@ (100011ac <irq_add_tail_to_free_list+0xcc>)
10001150:	4817      	ldr	r0, [pc, #92]	@ (100011b0 <irq_add_tail_to_free_list+0xd0>)
10001152:	491a      	ldr	r1, [pc, #104]	@ (100011bc <irq_add_tail_to_free_list+0xdc>)
10001154:	f003 f8d8 	bl	10004308 <__assert_func>
10001158:	4a12      	ldr	r2, [pc, #72]	@ (100011a4 <irq_add_tail_to_free_list+0xc4>)
1000115a:	6892      	ldr	r2, [r2, #8]
1000115c:	4918      	ldr	r1, [pc, #96]	@ (100011c0 <irq_add_tail_to_free_list+0xe0>)
1000115e:	50d1      	str	r1, [r2, r3]
10001160:	4b18      	ldr	r3, [pc, #96]	@ (100011c4 <irq_add_tail_to_free_list+0xe4>)
10001162:	781a      	ldrb	r2, [r3, #0]
10001164:	7182      	strb	r2, [r0, #6]
10001166:	701d      	strb	r5, [r3, #0]
10001168:	f3bf 8f5f 	dmb	sy
1000116c:	4b0b      	ldr	r3, [pc, #44]	@ (1000119c <irq_add_tail_to_free_list+0xbc>)
1000116e:	2200      	movs	r2, #0
10001170:	601a      	str	r2, [r3, #0]
10001172:	f384 8810 	msr	PRIMASK, r4
10001176:	bdf8      	pop	{r3, r4, r5, r6, r7, pc}
10001178:	4b07      	ldr	r3, [pc, #28]	@ (10001198 <irq_add_tail_to_free_list+0xb8>)
1000117a:	004a      	lsls	r2, r1, #1
1000117c:	1856      	adds	r6, r2, r1
1000117e:	00b6      	lsls	r6, r6, #2
10001180:	199e      	adds	r6, r3, r6
10001182:	27ff      	movs	r7, #255	@ 0xff
10001184:	71b7      	strb	r7, [r6, #6]
10001186:	4a10      	ldr	r2, [pc, #64]	@ (100011c8 <irq_add_tail_to_free_list+0xe8>)
10001188:	80b2      	strh	r2, [r6, #4]
1000118a:	e7e9      	b.n	10001160 <irq_add_tail_to_free_list+0x80>
1000118c:	4b0f      	ldr	r3, [pc, #60]	@ (100011cc <irq_add_tail_to_free_list+0xec>)
1000118e:	4a07      	ldr	r2, [pc, #28]	@ (100011ac <irq_add_tail_to_free_list+0xcc>)
10001190:	4807      	ldr	r0, [pc, #28]	@ (100011b0 <irq_add_tail_to_free_list+0xd0>)
10001192:	490f      	ldr	r1, [pc, #60]	@ (100011d0 <irq_add_tail_to_free_list+0xf0>)
10001194:	f003 f8b8 	bl	10004308 <__assert_func>
10001198:	200011f8 	.word	0x200011f8
1000119c:	d0000124 	.word	0xd0000124
100011a0:	0000aaaa 	.word	0x0000aaaa
100011a4:	e000ed00 	.word	0xe000ed00
100011a8:	1000f40c 	.word	0x1000f40c
100011ac:	100103c8 	.word	0x100103c8
100011b0:	1000f310 	.word	0x1000f310
100011b4:	0000026e 	.word	0x0000026e
100011b8:	1000f434 	.word	0x1000f434
100011bc:	00000271 	.word	0x00000271
100011c0:	100001cd 	.word	0x100001cd
100011c4:	20001dc1 	.word	0x20001dc1
100011c8:	ffffbd01 	.word	0xffffbd01
100011cc:	1000f440 	.word	0x1000f440
100011d0:	00000282 	.word	0x00000282

100011d4 <lock_init>:
100011d4:	4b02      	ldr	r3, [pc, #8]	@ (100011e0 <lock_init+0xc>)
100011d6:	469c      	mov	ip, r3
100011d8:	4461      	add	r1, ip
100011da:	0089      	lsls	r1, r1, #2
100011dc:	6001      	str	r1, [r0, #0]
100011de:	4770      	bx	lr
100011e0:	34000040 	.word	0x34000040

100011e4 <mutex_init>:
100011e4:	b510      	push	{r4, lr}
100011e6:	0004      	movs	r4, r0
100011e8:	f7ff fdbe 	bl	10000d68 <next_striped_spin_lock_num>
100011ec:	0001      	movs	r1, r0
100011ee:	0020      	movs	r0, r4
100011f0:	f7ff fff0 	bl	100011d4 <lock_init>
100011f4:	23ff      	movs	r3, #255	@ 0xff
100011f6:	7123      	strb	r3, [r4, #4]
100011f8:	f3bf 8f5f 	dmb	sy
100011fc:	bd10      	pop	{r4, pc}

100011fe <recursive_mutex_init>:
100011fe:	b510      	push	{r4, lr}
10001200:	0004      	movs	r4, r0
10001202:	f7ff fdb1 	bl	10000d68 <next_striped_spin_lock_num>
10001206:	0001      	movs	r1, r0
10001208:	0020      	movs	r0, r4
1000120a:	f7ff ffe3 	bl	100011d4 <lock_init>
1000120e:	23ff      	movs	r3, #255	@ 0xff
10001210:	7123      	strb	r3, [r4, #4]
10001212:	2300      	movs	r3, #0
10001214:	7163      	strb	r3, [r4, #5]
10001216:	f3bf 8f5f 	dmb	sy
1000121a:	bd10      	pop	{r4, pc}

1000121c <runtime_init_mutex>:
1000121c:	b510      	push	{r4, lr}
1000121e:	4c0d      	ldr	r4, [pc, #52]	@ (10001254 <runtime_init_mutex+0x38>)
10001220:	e009      	b.n	10001236 <runtime_init_mutex+0x1a>
10001222:	4b0d      	ldr	r3, [pc, #52]	@ (10001258 <runtime_init_mutex+0x3c>)
10001224:	4a0d      	ldr	r2, [pc, #52]	@ (1000125c <runtime_init_mutex+0x40>)
10001226:	480e      	ldr	r0, [pc, #56]	@ (10001260 <runtime_init_mutex+0x44>)
10001228:	211a      	movs	r1, #26
1000122a:	f003 f86d 	bl	10004308 <__assert_func>
1000122e:	0020      	movs	r0, r4
10001230:	f7ff ffd8 	bl	100011e4 <mutex_init>
10001234:	3408      	adds	r4, #8
10001236:	4b0b      	ldr	r3, [pc, #44]	@ (10001264 <runtime_init_mutex+0x48>)
10001238:	429c      	cmp	r4, r3
1000123a:	d209      	bcs.n	10001250 <runtime_init_mutex+0x34>
1000123c:	6823      	ldr	r3, [r4, #0]
1000123e:	2b00      	cmp	r3, #0
10001240:	d0f5      	beq.n	1000122e <runtime_init_mutex+0x12>
10001242:	2b01      	cmp	r3, #1
10001244:	d1ed      	bne.n	10001222 <runtime_init_mutex+0x6>
10001246:	0020      	movs	r0, r4
10001248:	f7ff ffd9 	bl	100011fe <recursive_mutex_init>
1000124c:	3408      	adds	r4, #8
1000124e:	e7f2      	b.n	10001236 <runtime_init_mutex+0x1a>
10001250:	bd10      	pop	{r4, pc}
10001252:	46c0      	nop			@ (mov r8, r8)
10001254:	20001804 	.word	0x20001804
10001258:	1000f448 	.word	0x1000f448
1000125c:	10010464 	.word	0x10010464
10001260:	1000f468 	.word	0x1000f468
10001264:	2000180c 	.word	0x2000180c

10001268 <make_alarm_id>:
10001268:	0400      	lsls	r0, r0, #16
1000126a:	4308      	orrs	r0, r1
1000126c:	4770      	bx	lr
	...

10001270 <sleep_until_callback>:
10001270:	4b0a      	ldr	r3, [pc, #40]	@ (1000129c <sleep_until_callback+0x2c>)
10001272:	6819      	ldr	r1, [r3, #0]
10001274:	f3ef 8310 	mrs	r3, PRIMASK
10001278:	b672      	cpsid	i
1000127a:	680a      	ldr	r2, [r1, #0]
1000127c:	2a00      	cmp	r2, #0
1000127e:	d0fc      	beq.n	1000127a <sleep_until_callback+0xa>
10001280:	f3bf 8f5f 	dmb	sy
10001284:	4a05      	ldr	r2, [pc, #20]	@ (1000129c <sleep_until_callback+0x2c>)
10001286:	6812      	ldr	r2, [r2, #0]
10001288:	f3bf 8f5f 	dmb	sy
1000128c:	2100      	movs	r1, #0
1000128e:	6011      	str	r1, [r2, #0]
10001290:	f383 8810 	msr	PRIMASK, r3
10001294:	bf40      	sev
10001296:	2000      	movs	r0, #0
10001298:	2100      	movs	r1, #0
1000129a:	4770      	bx	lr
1000129c:	20001db4 	.word	0x20001db4

100012a0 <alarm_pool_irq_handler>:
100012a0:	b5f0      	push	{r4, r5, r6, r7, lr}
100012a2:	46de      	mov	lr, fp
100012a4:	4657      	mov	r7, sl
100012a6:	464e      	mov	r6, r9
100012a8:	4645      	mov	r5, r8
100012aa:	b5e0      	push	{r5, r6, r7, lr}
100012ac:	b083      	sub	sp, #12
100012ae:	f3ef 8305 	mrs	r3, IPSR
100012b2:	2203      	movs	r2, #3
100012b4:	401a      	ands	r2, r3
100012b6:	9200      	str	r2, [sp, #0]
100012b8:	4baa      	ldr	r3, [pc, #680]	@ (10001564 <alarm_pool_irq_handler+0x2c4>)
100012ba:	0092      	lsls	r2, r2, #2
100012bc:	58d3      	ldr	r3, [r2, r3]
100012be:	4698      	mov	r8, r3
100012c0:	781b      	ldrb	r3, [r3, #0]
100012c2:	9a00      	ldr	r2, [sp, #0]
100012c4:	4293      	cmp	r3, r2
100012c6:	d10c      	bne.n	100012e2 <alarm_pool_irq_handler+0x42>
100012c8:	48a7      	ldr	r0, [pc, #668]	@ (10001568 <alarm_pool_irq_handler+0x2c8>)
100012ca:	f000 fb95 	bl	100019f8 <timer_time_us_64>
100012ce:	0002      	movs	r2, r0
100012d0:	000b      	movs	r3, r1
100012d2:	2101      	movs	r1, #1
100012d4:	9800      	ldr	r0, [sp, #0]
100012d6:	4081      	lsls	r1, r0
100012d8:	0008      	movs	r0, r1
100012da:	9101      	str	r1, [sp, #4]
100012dc:	49a3      	ldr	r1, [pc, #652]	@ (1000156c <alarm_pool_irq_handler+0x2cc>)
100012de:	6008      	str	r0, [r1, #0]
100012e0:	e072      	b.n	100013c8 <alarm_pool_irq_handler+0x128>
100012e2:	4ba3      	ldr	r3, [pc, #652]	@ (10001570 <alarm_pool_irq_handler+0x2d0>)
100012e4:	4aa3      	ldr	r2, [pc, #652]	@ (10001574 <alarm_pool_irq_handler+0x2d4>)
100012e6:	48a4      	ldr	r0, [pc, #656]	@ (10001578 <alarm_pool_irq_handler+0x2d8>)
100012e8:	2190      	movs	r1, #144	@ 0x90
100012ea:	f003 f80d 	bl	10004308 <__assert_func>
100012ee:	694c      	ldr	r4, [r1, #20]
100012f0:	6923      	ldr	r3, [r4, #16]
100012f2:	0020      	movs	r0, r4
100012f4:	4798      	blx	r3
100012f6:	2800      	cmp	r0, #0
100012f8:	d020      	beq.n	1000133c <alarm_pool_irq_handler+0x9c>
100012fa:	6865      	ldr	r5, [r4, #4]
100012fc:	6824      	ldr	r4, [r4, #0]
100012fe:	e08c      	b.n	1000141a <alarm_pool_irq_handler+0x17a>
10001300:	4899      	ldr	r0, [pc, #612]	@ (10001568 <alarm_pool_irq_handler+0x2c8>)
10001302:	f000 fb79 	bl	100019f8 <timer_time_us_64>
10001306:	1900      	adds	r0, r0, r4
10001308:	4169      	adcs	r1, r5
1000130a:	e091      	b.n	10001430 <alarm_pool_irq_handler+0x190>
1000130c:	46a4      	mov	ip, r4
1000130e:	4663      	mov	r3, ip
10001310:	2500      	movs	r5, #0
10001312:	5f5d      	ldrsh	r5, [r3, r5]
10001314:	2d00      	cmp	r5, #0
10001316:	db0b      	blt.n	10001330 <alarm_pool_irq_handler+0x90>
10001318:	006c      	lsls	r4, r5, #1
1000131a:	1964      	adds	r4, r4, r5
1000131c:	00e4      	lsls	r4, r4, #3
1000131e:	4454      	add	r4, sl
10001320:	68a2      	ldr	r2, [r4, #8]
10001322:	68e3      	ldr	r3, [r4, #12]
10001324:	0006      	movs	r6, r0
10001326:	000f      	movs	r7, r1
10001328:	1ab6      	subs	r6, r6, r2
1000132a:	419f      	sbcs	r7, r3
1000132c:	2f00      	cmp	r7, #0
1000132e:	daed      	bge.n	1000130c <alarm_pool_irq_handler+0x6c>
10001330:	464b      	mov	r3, r9
10001332:	801d      	strh	r5, [r3, #0]
10001334:	465b      	mov	r3, fp
10001336:	4662      	mov	r2, ip
10001338:	8013      	strh	r3, [r2, #0]
1000133a:	e01c      	b.n	10001376 <alarm_pool_irq_handler+0xd6>
1000133c:	464b      	mov	r3, r9
1000133e:	2200      	movs	r2, #0
10001340:	5e9b      	ldrsh	r3, [r3, r2]
10001342:	4642      	mov	r2, r8
10001344:	8113      	strh	r3, [r2, #8]
10001346:	6912      	ldr	r2, [r2, #16]
10001348:	f3ef 8310 	mrs	r3, PRIMASK
1000134c:	b672      	cpsid	i
1000134e:	6811      	ldr	r1, [r2, #0]
10001350:	2900      	cmp	r1, #0
10001352:	d0fc      	beq.n	1000134e <alarm_pool_irq_handler+0xae>
10001354:	f3bf 8f5f 	dmb	sy
10001358:	4642      	mov	r2, r8
1000135a:	2102      	movs	r1, #2
1000135c:	5e52      	ldrsh	r2, [r2, r1]
1000135e:	4649      	mov	r1, r9
10001360:	800a      	strh	r2, [r1, #0]
10001362:	4642      	mov	r2, r8
10001364:	4659      	mov	r1, fp
10001366:	8051      	strh	r1, [r2, #2]
10001368:	6912      	ldr	r2, [r2, #16]
1000136a:	f3bf 8f5f 	dmb	sy
1000136e:	2100      	movs	r1, #0
10001370:	6011      	str	r1, [r2, #0]
10001372:	f383 8810 	msr	PRIMASK, r3
10001376:	4643      	mov	r3, r8
10001378:	889b      	ldrh	r3, [r3, #4]
1000137a:	b21b      	sxth	r3, r3
1000137c:	2b00      	cmp	r3, #0
1000137e:	da73      	bge.n	10001468 <alarm_pool_irq_handler+0x1c8>
10001380:	4643      	mov	r3, r8
10001382:	799b      	ldrb	r3, [r3, #6]
10001384:	2b00      	cmp	r3, #0
10001386:	d000      	beq.n	1000138a <alarm_pool_irq_handler+0xea>
10001388:	e0b7      	b.n	100014fa <alarm_pool_irq_handler+0x25a>
1000138a:	4877      	ldr	r0, [pc, #476]	@ (10001568 <alarm_pool_irq_handler+0x2c8>)
1000138c:	f000 fb34 	bl	100019f8 <timer_time_us_64>
10001390:	0002      	movs	r2, r0
10001392:	000b      	movs	r3, r1
10001394:	4641      	mov	r1, r8
10001396:	2008      	movs	r0, #8
10001398:	5e08      	ldrsh	r0, [r1, r0]
1000139a:	2800      	cmp	r0, #0
1000139c:	da00      	bge.n	100013a0 <alarm_pool_irq_handler+0x100>
1000139e:	e0da      	b.n	10001556 <alarm_pool_irq_handler+0x2b6>
100013a0:	4641      	mov	r1, r8
100013a2:	694c      	ldr	r4, [r1, #20]
100013a4:	0041      	lsls	r1, r0, #1
100013a6:	1809      	adds	r1, r1, r0
100013a8:	00c9      	lsls	r1, r1, #3
100013aa:	1861      	adds	r1, r4, r1
100013ac:	6888      	ldr	r0, [r1, #8]
100013ae:	68c9      	ldr	r1, [r1, #12]
100013b0:	9c00      	ldr	r4, [sp, #0]
100013b2:	3404      	adds	r4, #4
100013b4:	00a4      	lsls	r4, r4, #2
100013b6:	4d6c      	ldr	r5, [pc, #432]	@ (10001568 <alarm_pool_irq_handler+0x2c8>)
100013b8:	5160      	str	r0, [r4, r5]
100013ba:	1a80      	subs	r0, r0, r2
100013bc:	4199      	sbcs	r1, r3
100013be:	2900      	cmp	r1, #0
100013c0:	dd00      	ble.n	100013c4 <alarm_pool_irq_handler+0x124>
100013c2:	e0c8      	b.n	10001556 <alarm_pool_irq_handler+0x2b6>
100013c4:	d100      	bne.n	100013c8 <alarm_pool_irq_handler+0x128>
100013c6:	e0c3      	b.n	10001550 <alarm_pool_irq_handler+0x2b0>
100013c8:	4967      	ldr	r1, [pc, #412]	@ (10001568 <alarm_pool_irq_handler+0x2c8>)
100013ca:	9801      	ldr	r0, [sp, #4]
100013cc:	6348      	str	r0, [r1, #52]	@ 0x34
100013ce:	4641      	mov	r1, r8
100013d0:	2008      	movs	r0, #8
100013d2:	5e09      	ldrsh	r1, [r1, r0]
100013d4:	468b      	mov	fp, r1
100013d6:	2900      	cmp	r1, #0
100013d8:	dbcd      	blt.n	10001376 <alarm_pool_irq_handler+0xd6>
100013da:	4641      	mov	r1, r8
100013dc:	6948      	ldr	r0, [r1, #20]
100013de:	4659      	mov	r1, fp
100013e0:	0049      	lsls	r1, r1, #1
100013e2:	4459      	add	r1, fp
100013e4:	00c9      	lsls	r1, r1, #3
100013e6:	4681      	mov	r9, r0
100013e8:	4489      	add	r9, r1
100013ea:	4649      	mov	r1, r9
100013ec:	688e      	ldr	r6, [r1, #8]
100013ee:	68cf      	ldr	r7, [r1, #12]
100013f0:	1b92      	subs	r2, r2, r6
100013f2:	41bb      	sbcs	r3, r7
100013f4:	2b00      	cmp	r3, #0
100013f6:	dbbe      	blt.n	10001376 <alarm_pool_irq_handler+0xd6>
100013f8:	2f00      	cmp	r7, #0
100013fa:	db9f      	blt.n	1000133c <alarm_pool_irq_handler+0x9c>
100013fc:	690c      	ldr	r4, [r1, #16]
100013fe:	4b5f      	ldr	r3, [pc, #380]	@ (1000157c <alarm_pool_irq_handler+0x2dc>)
10001400:	429c      	cmp	r4, r3
10001402:	d100      	bne.n	10001406 <alarm_pool_irq_handler+0x166>
10001404:	e773      	b.n	100012ee <alarm_pool_irq_handler+0x4e>
10001406:	8849      	ldrh	r1, [r1, #2]
10001408:	b289      	uxth	r1, r1
1000140a:	4658      	mov	r0, fp
1000140c:	f7ff ff2c 	bl	10001268 <make_alarm_id>
10001410:	464b      	mov	r3, r9
10001412:	6959      	ldr	r1, [r3, #20]
10001414:	47a0      	blx	r4
10001416:	0004      	movs	r4, r0
10001418:	000d      	movs	r5, r1
1000141a:	0023      	movs	r3, r4
1000141c:	432b      	orrs	r3, r5
1000141e:	d100      	bne.n	10001422 <alarm_pool_irq_handler+0x182>
10001420:	e78c      	b.n	1000133c <alarm_pool_irq_handler+0x9c>
10001422:	2d00      	cmp	r5, #0
10001424:	db00      	blt.n	10001428 <alarm_pool_irq_handler+0x188>
10001426:	e76b      	b.n	10001300 <alarm_pool_irq_handler+0x60>
10001428:	0030      	movs	r0, r6
1000142a:	0039      	movs	r1, r7
1000142c:	1b00      	subs	r0, r0, r4
1000142e:	41a9      	sbcs	r1, r5
10001430:	464b      	mov	r3, r9
10001432:	6098      	str	r0, [r3, #8]
10001434:	60d9      	str	r1, [r3, #12]
10001436:	2400      	movs	r4, #0
10001438:	5f1c      	ldrsh	r4, [r3, r4]
1000143a:	2c00      	cmp	r4, #0
1000143c:	db9b      	blt.n	10001376 <alarm_pool_irq_handler+0xd6>
1000143e:	4643      	mov	r3, r8
10001440:	695a      	ldr	r2, [r3, #20]
10001442:	4692      	mov	sl, r2
10001444:	0063      	lsls	r3, r4, #1
10001446:	191b      	adds	r3, r3, r4
10001448:	00db      	lsls	r3, r3, #3
1000144a:	4453      	add	r3, sl
1000144c:	689a      	ldr	r2, [r3, #8]
1000144e:	68db      	ldr	r3, [r3, #12]
10001450:	0005      	movs	r5, r0
10001452:	000e      	movs	r6, r1
10001454:	1aad      	subs	r5, r5, r2
10001456:	419e      	sbcs	r6, r3
10001458:	2e00      	cmp	r6, #0
1000145a:	db8c      	blt.n	10001376 <alarm_pool_irq_handler+0xd6>
1000145c:	4643      	mov	r3, r8
1000145e:	811c      	strh	r4, [r3, #8]
10001460:	4647      	mov	r7, r8
10001462:	3708      	adds	r7, #8
10001464:	46bc      	mov	ip, r7
10001466:	e752      	b.n	1000130e <alarm_pool_irq_handler+0x6e>
10001468:	4643      	mov	r3, r8
1000146a:	6919      	ldr	r1, [r3, #16]
1000146c:	f3ef 8310 	mrs	r3, PRIMASK
10001470:	b672      	cpsid	i
10001472:	680a      	ldr	r2, [r1, #0]
10001474:	2a00      	cmp	r2, #0
10001476:	d0fc      	beq.n	10001472 <alarm_pool_irq_handler+0x1d2>
10001478:	f3bf 8f5f 	dmb	sy
1000147c:	4642      	mov	r2, r8
1000147e:	8892      	ldrh	r2, [r2, #4]
10001480:	b212      	sxth	r2, r2
10001482:	4691      	mov	r9, r2
10001484:	2201      	movs	r2, #1
10001486:	4252      	negs	r2, r2
10001488:	4641      	mov	r1, r8
1000148a:	808a      	strh	r2, [r1, #4]
1000148c:	690a      	ldr	r2, [r1, #16]
1000148e:	f3bf 8f5f 	dmb	sy
10001492:	2100      	movs	r1, #0
10001494:	6011      	str	r1, [r2, #0]
10001496:	f383 8810 	msr	PRIMASK, r3
1000149a:	e01a      	b.n	100014d2 <alarm_pool_irq_handler+0x232>
1000149c:	469b      	mov	fp, r3
1000149e:	465b      	mov	r3, fp
100014a0:	2200      	movs	r2, #0
100014a2:	5e9a      	ldrsh	r2, [r3, r2]
100014a4:	2a00      	cmp	r2, #0
100014a6:	db0b      	blt.n	100014c0 <alarm_pool_irq_handler+0x220>
100014a8:	0053      	lsls	r3, r2, #1
100014aa:	189b      	adds	r3, r3, r2
100014ac:	00db      	lsls	r3, r3, #3
100014ae:	4453      	add	r3, sl
100014b0:	6898      	ldr	r0, [r3, #8]
100014b2:	68d9      	ldr	r1, [r3, #12]
100014b4:	0026      	movs	r6, r4
100014b6:	002f      	movs	r7, r5
100014b8:	1a36      	subs	r6, r6, r0
100014ba:	418f      	sbcs	r7, r1
100014bc:	2f00      	cmp	r7, #0
100014be:	daed      	bge.n	1000149c <alarm_pool_irq_handler+0x1fc>
100014c0:	464b      	mov	r3, r9
100014c2:	4659      	mov	r1, fp
100014c4:	800b      	strh	r3, [r1, #0]
100014c6:	4663      	mov	r3, ip
100014c8:	2100      	movs	r1, #0
100014ca:	5e5b      	ldrsh	r3, [r3, r1]
100014cc:	4699      	mov	r9, r3
100014ce:	4663      	mov	r3, ip
100014d0:	801a      	strh	r2, [r3, #0]
100014d2:	464b      	mov	r3, r9
100014d4:	2b00      	cmp	r3, #0
100014d6:	da00      	bge.n	100014da <alarm_pool_irq_handler+0x23a>
100014d8:	e752      	b.n	10001380 <alarm_pool_irq_handler+0xe0>
100014da:	4643      	mov	r3, r8
100014dc:	695a      	ldr	r2, [r3, #20]
100014de:	4692      	mov	sl, r2
100014e0:	464b      	mov	r3, r9
100014e2:	005b      	lsls	r3, r3, #1
100014e4:	444b      	add	r3, r9
100014e6:	00db      	lsls	r3, r3, #3
100014e8:	469c      	mov	ip, r3
100014ea:	44d4      	add	ip, sl
100014ec:	4663      	mov	r3, ip
100014ee:	689c      	ldr	r4, [r3, #8]
100014f0:	68dd      	ldr	r5, [r3, #12]
100014f2:	4646      	mov	r6, r8
100014f4:	3608      	adds	r6, #8
100014f6:	46b3      	mov	fp, r6
100014f8:	e7d1      	b.n	1000149e <alarm_pool_irq_handler+0x1fe>
100014fa:	2300      	movs	r3, #0
100014fc:	4642      	mov	r2, r8
100014fe:	7193      	strb	r3, [r2, #6]
10001500:	4641      	mov	r1, r8
10001502:	3108      	adds	r1, #8
10001504:	4643      	mov	r3, r8
10001506:	2008      	movs	r0, #8
10001508:	5e18      	ldrsh	r0, [r3, r0]
1000150a:	e011      	b.n	10001530 <alarm_pool_irq_handler+0x290>
1000150c:	2201      	movs	r2, #1
1000150e:	4252      	negs	r2, r2
10001510:	17d3      	asrs	r3, r2, #31
10001512:	60a2      	str	r2, [r4, #8]
10001514:	60e3      	str	r3, [r4, #12]
10001516:	4643      	mov	r3, r8
10001518:	2208      	movs	r2, #8
1000151a:	5e9b      	ldrsh	r3, [r3, r2]
1000151c:	4283      	cmp	r3, r0
1000151e:	d006      	beq.n	1000152e <alarm_pool_irq_handler+0x28e>
10001520:	800d      	strh	r5, [r1, #0]
10001522:	4643      	mov	r3, r8
10001524:	2208      	movs	r2, #8
10001526:	5e9b      	ldrsh	r3, [r3, r2]
10001528:	8023      	strh	r3, [r4, #0]
1000152a:	4643      	mov	r3, r8
1000152c:	8118      	strh	r0, [r3, #8]
1000152e:	0028      	movs	r0, r5
10001530:	1c43      	adds	r3, r0, #1
10001532:	d100      	bne.n	10001536 <alarm_pool_irq_handler+0x296>
10001534:	e729      	b.n	1000138a <alarm_pool_irq_handler+0xea>
10001536:	4643      	mov	r3, r8
10001538:	695a      	ldr	r2, [r3, #20]
1000153a:	0043      	lsls	r3, r0, #1
1000153c:	181b      	adds	r3, r3, r0
1000153e:	00db      	lsls	r3, r3, #3
10001540:	18d4      	adds	r4, r2, r3
10001542:	5ed5      	ldrsh	r5, [r2, r3]
10001544:	8863      	ldrh	r3, [r4, #2]
10001546:	b21b      	sxth	r3, r3
10001548:	2b00      	cmp	r3, #0
1000154a:	dbdf      	blt.n	1000150c <alarm_pool_irq_handler+0x26c>
1000154c:	0021      	movs	r1, r4
1000154e:	e7ee      	b.n	1000152e <alarm_pool_irq_handler+0x28e>
10001550:	2800      	cmp	r0, #0
10001552:	d100      	bne.n	10001556 <alarm_pool_irq_handler+0x2b6>
10001554:	e738      	b.n	100013c8 <alarm_pool_irq_handler+0x128>
10001556:	b003      	add	sp, #12
10001558:	bcf0      	pop	{r4, r5, r6, r7}
1000155a:	46bb      	mov	fp, r7
1000155c:	46b2      	mov	sl, r6
1000155e:	46a9      	mov	r9, r5
10001560:	46a0      	mov	r8, r4
10001562:	bdf0      	pop	{r4, r5, r6, r7, pc}
10001564:	20001ba0 	.word	0x20001ba0
10001568:	40054000 	.word	0x40054000
1000156c:	4005703c 	.word	0x4005703c
10001570:	1000f4fc 	.word	0x1000f4fc
10001574:	10010490 	.word	0x10010490
10001578:	1000f528 	.word	0x1000f528
1000157c:	100012a1 	.word	0x100012a1

10001580 <ta_enable_irq_handler>:
10001580:	b570      	push	{r4, r5, r6, lr}
10001582:	0004      	movs	r4, r0
10001584:	000d      	movs	r5, r1
10001586:	0011      	movs	r1, r2
10001588:	2601      	movs	r6, #1
1000158a:	40ae      	lsls	r6, r5
1000158c:	6206      	str	r6, [r0, #32]
1000158e:	0028      	movs	r0, r5
10001590:	f7ff fcb6 	bl	10000f00 <irq_set_exclusive_handler>
10001594:	2101      	movs	r1, #1
10001596:	0028      	movs	r0, r5
10001598:	f7ff fca0 	bl	10000edc <irq_set_enabled>
1000159c:	4b02      	ldr	r3, [pc, #8]	@ (100015a8 <ta_enable_irq_handler+0x28>)
1000159e:	469c      	mov	ip, r3
100015a0:	4464      	add	r4, ip
100015a2:	6026      	str	r6, [r4, #0]
100015a4:	bd70      	pop	{r4, r5, r6, pc}
100015a6:	46c0      	nop			@ (mov r8, r8)
100015a8:	00002038 	.word	0x00002038

100015ac <alarm_pool_post_alloc_init>:
100015ac:	b5f8      	push	{r3, r4, r5, r6, r7, lr}
100015ae:	46ce      	mov	lr, r9
100015b0:	4647      	mov	r7, r8
100015b2:	b580      	push	{r7, lr}
100015b4:	0006      	movs	r6, r0
100015b6:	4689      	mov	r9, r1
100015b8:	4690      	mov	r8, r2
100015ba:	001f      	movs	r7, r3
100015bc:	60c1      	str	r1, [r0, #12]
100015be:	f7ff fbd3 	bl	10000d68 <next_striped_spin_lock_num>
100015c2:	4b15      	ldr	r3, [pc, #84]	@ (10001618 <alarm_pool_post_alloc_init+0x6c>)
100015c4:	469c      	mov	ip, r3
100015c6:	4460      	add	r0, ip
100015c8:	0080      	lsls	r0, r0, #2
100015ca:	6130      	str	r0, [r6, #16]
100015cc:	4643      	mov	r3, r8
100015ce:	7033      	strb	r3, [r6, #0]
100015d0:	b2bb      	uxth	r3, r7
100015d2:	8173      	strh	r3, [r6, #10]
100015d4:	22d0      	movs	r2, #208	@ 0xd0
100015d6:	0612      	lsls	r2, r2, #24
100015d8:	7812      	ldrb	r2, [r2, #0]
100015da:	7072      	strb	r2, [r6, #1]
100015dc:	2201      	movs	r2, #1
100015de:	4252      	negs	r2, r2
100015e0:	8132      	strh	r2, [r6, #8]
100015e2:	80b2      	strh	r2, [r6, #4]
100015e4:	189b      	adds	r3, r3, r2
100015e6:	8073      	strh	r3, [r6, #2]
100015e8:	2400      	movs	r4, #0
100015ea:	e006      	b.n	100015fa <alarm_pool_post_alloc_init+0x4e>
100015ec:	1e62      	subs	r2, r4, #1
100015ee:	6973      	ldr	r3, [r6, #20]
100015f0:	0065      	lsls	r5, r4, #1
100015f2:	192d      	adds	r5, r5, r4
100015f4:	00ed      	lsls	r5, r5, #3
100015f6:	535a      	strh	r2, [r3, r5]
100015f8:	3401      	adds	r4, #1
100015fa:	42bc      	cmp	r4, r7
100015fc:	d3f6      	bcc.n	100015ec <alarm_pool_post_alloc_init+0x40>
100015fe:	4b07      	ldr	r3, [pc, #28]	@ (1000161c <alarm_pool_post_alloc_init+0x70>)
10001600:	4642      	mov	r2, r8
10001602:	0092      	lsls	r2, r2, #2
10001604:	50d6      	str	r6, [r2, r3]
10001606:	4a06      	ldr	r2, [pc, #24]	@ (10001620 <alarm_pool_post_alloc_init+0x74>)
10001608:	4641      	mov	r1, r8
1000160a:	4648      	mov	r0, r9
1000160c:	f7ff ffb8 	bl	10001580 <ta_enable_irq_handler>
10001610:	bcc0      	pop	{r6, r7}
10001612:	46b9      	mov	r9, r7
10001614:	46b0      	mov	r8, r6
10001616:	bdf8      	pop	{r3, r4, r5, r6, r7, pc}
10001618:	34000040 	.word	0x34000040
1000161c:	20001ba0 	.word	0x20001ba0
10001620:	100012a1 	.word	0x100012a1

10001624 <alarm_pool_get_default>:
10001624:	b510      	push	{r4, lr}
10001626:	4b06      	ldr	r3, [pc, #24]	@ (10001640 <alarm_pool_get_default+0x1c>)
10001628:	691b      	ldr	r3, [r3, #16]
1000162a:	2b00      	cmp	r3, #0
1000162c:	d001      	beq.n	10001632 <alarm_pool_get_default+0xe>
1000162e:	4804      	ldr	r0, [pc, #16]	@ (10001640 <alarm_pool_get_default+0x1c>)
10001630:	bd10      	pop	{r4, pc}
10001632:	4b04      	ldr	r3, [pc, #16]	@ (10001644 <alarm_pool_get_default+0x20>)
10001634:	4a04      	ldr	r2, [pc, #16]	@ (10001648 <alarm_pool_get_default+0x24>)
10001636:	4805      	ldr	r0, [pc, #20]	@ (1000164c <alarm_pool_get_default+0x28>)
10001638:	2165      	movs	r1, #101	@ 0x65
1000163a:	f002 fe65 	bl	10004308 <__assert_func>
1000163e:	46c0      	nop			@ (mov r8, r8)
10001640:	20001240 	.word	0x20001240
10001644:	1000f568 	.word	0x1000f568
10001648:	10010478 	.word	0x10010478
1000164c:	1000f528 	.word	0x1000f528

10001650 <alarm_pool_add_alarm_at_force_in_context>:
10001650:	b5f8      	push	{r3, r4, r5, r6, r7, lr}
10001652:	0004      	movs	r4, r0
10001654:	6905      	ldr	r5, [r0, #16]
10001656:	f3ef 8010 	mrs	r0, PRIMASK
1000165a:	b672      	cpsid	i
1000165c:	6829      	ldr	r1, [r5, #0]
1000165e:	2900      	cmp	r1, #0
10001660:	d0fc      	beq.n	1000165c <alarm_pool_add_alarm_at_force_in_context+0xc>
10001662:	f3bf 8f5f 	dmb	sy
10001666:	2102      	movs	r1, #2
10001668:	5e66      	ldrsh	r6, [r4, r1]
1000166a:	6965      	ldr	r5, [r4, #20]
1000166c:	0071      	lsls	r1, r6, #1
1000166e:	1989      	adds	r1, r1, r6
10001670:	00c9      	lsls	r1, r1, #3
10001672:	186d      	adds	r5, r5, r1
10001674:	2e00      	cmp	r6, #0
10001676:	db02      	blt.n	1000167e <alarm_pool_add_alarm_at_force_in_context+0x2e>
10001678:	2700      	movs	r7, #0
1000167a:	5fe9      	ldrsh	r1, [r5, r7]
1000167c:	8061      	strh	r1, [r4, #2]
1000167e:	6921      	ldr	r1, [r4, #16]
10001680:	f3bf 8f5f 	dmb	sy
10001684:	2700      	movs	r7, #0
10001686:	600f      	str	r7, [r1, #0]
10001688:	f380 8810 	msr	PRIMASK, r0
1000168c:	2e00      	cmp	r6, #0
1000168e:	db2c      	blt.n	100016ea <alarm_pool_add_alarm_at_force_in_context+0x9a>
10001690:	9906      	ldr	r1, [sp, #24]
10001692:	6129      	str	r1, [r5, #16]
10001694:	9907      	ldr	r1, [sp, #28]
10001696:	6169      	str	r1, [r5, #20]
10001698:	60aa      	str	r2, [r5, #8]
1000169a:	60eb      	str	r3, [r5, #12]
1000169c:	886b      	ldrh	r3, [r5, #2]
1000169e:	3301      	adds	r3, #1
100016a0:	045b      	lsls	r3, r3, #17
100016a2:	0c59      	lsrs	r1, r3, #17
100016a4:	2b00      	cmp	r3, #0
100016a6:	d100      	bne.n	100016aa <alarm_pool_add_alarm_at_force_in_context+0x5a>
100016a8:	2101      	movs	r1, #1
100016aa:	8069      	strh	r1, [r5, #2]
100016ac:	0030      	movs	r0, r6
100016ae:	f7ff fddb 	bl	10001268 <make_alarm_id>
100016b2:	6921      	ldr	r1, [r4, #16]
100016b4:	f3ef 8310 	mrs	r3, PRIMASK
100016b8:	b672      	cpsid	i
100016ba:	680a      	ldr	r2, [r1, #0]
100016bc:	2a00      	cmp	r2, #0
100016be:	d0fc      	beq.n	100016ba <alarm_pool_add_alarm_at_force_in_context+0x6a>
100016c0:	f3bf 8f5f 	dmb	sy
100016c4:	88a2      	ldrh	r2, [r4, #4]
100016c6:	802a      	strh	r2, [r5, #0]
100016c8:	80a6      	strh	r6, [r4, #4]
100016ca:	6922      	ldr	r2, [r4, #16]
100016cc:	f3bf 8f5f 	dmb	sy
100016d0:	2100      	movs	r1, #0
100016d2:	6011      	str	r1, [r2, #0]
100016d4:	f383 8810 	msr	PRIMASK, r3
100016d8:	68e3      	ldr	r3, [r4, #12]
100016da:	7821      	ldrb	r1, [r4, #0]
100016dc:	2201      	movs	r2, #1
100016de:	408a      	lsls	r2, r1
100016e0:	4903      	ldr	r1, [pc, #12]	@ (100016f0 <alarm_pool_add_alarm_at_force_in_context+0xa0>)
100016e2:	468c      	mov	ip, r1
100016e4:	4463      	add	r3, ip
100016e6:	601a      	str	r2, [r3, #0]
100016e8:	bdf8      	pop	{r3, r4, r5, r6, r7, pc}
100016ea:	2001      	movs	r0, #1
100016ec:	4240      	negs	r0, r0
100016ee:	e7fb      	b.n	100016e8 <alarm_pool_add_alarm_at_force_in_context+0x98>
100016f0:	0000203c 	.word	0x0000203c

100016f4 <alarm_pool_add_alarm_at>:
100016f4:	b570      	push	{r4, r5, r6, lr}
100016f6:	b082      	sub	sp, #8
100016f8:	0006      	movs	r6, r0
100016fa:	0014      	movs	r4, r2
100016fc:	001d      	movs	r5, r3
100016fe:	ab08      	add	r3, sp, #32
10001700:	781b      	ldrb	r3, [r3, #0]
10001702:	2b00      	cmp	r3, #0
10001704:	d107      	bne.n	10001716 <alarm_pool_add_alarm_at+0x22>
10001706:	f000 f9a9 	bl	10001a5c <time_us_64>
1000170a:	0022      	movs	r2, r4
1000170c:	002b      	movs	r3, r5
1000170e:	1a12      	subs	r2, r2, r0
10001710:	418b      	sbcs	r3, r1
10001712:	2b00      	cmp	r3, #0
10001714:	db0a      	blt.n	1000172c <alarm_pool_add_alarm_at+0x38>
10001716:	9b07      	ldr	r3, [sp, #28]
10001718:	9301      	str	r3, [sp, #4]
1000171a:	9b06      	ldr	r3, [sp, #24]
1000171c:	9300      	str	r3, [sp, #0]
1000171e:	0022      	movs	r2, r4
10001720:	002b      	movs	r3, r5
10001722:	0030      	movs	r0, r6
10001724:	f7ff ff94 	bl	10001650 <alarm_pool_add_alarm_at_force_in_context>
10001728:	b002      	add	sp, #8
1000172a:	bd70      	pop	{r4, r5, r6, pc}
1000172c:	2000      	movs	r0, #0
1000172e:	e7fb      	b.n	10001728 <alarm_pool_add_alarm_at+0x34>

10001730 <add_alarm_at>:
10001730:	b5f0      	push	{r4, r5, r6, r7, lr}
10001732:	46c6      	mov	lr, r8
10001734:	b500      	push	{lr}
10001736:	b084      	sub	sp, #16
10001738:	0005      	movs	r5, r0
1000173a:	4688      	mov	r8, r1
1000173c:	0016      	movs	r6, r2
1000173e:	001f      	movs	r7, r3
10001740:	ab0a      	add	r3, sp, #40	@ 0x28
10001742:	781c      	ldrb	r4, [r3, #0]
10001744:	f7ff ff6e 	bl	10001624 <alarm_pool_get_default>
10001748:	9402      	str	r4, [sp, #8]
1000174a:	9701      	str	r7, [sp, #4]
1000174c:	9600      	str	r6, [sp, #0]
1000174e:	002a      	movs	r2, r5
10001750:	4643      	mov	r3, r8
10001752:	f7ff ffcf 	bl	100016f4 <alarm_pool_add_alarm_at>
10001756:	b004      	add	sp, #16
10001758:	bc80      	pop	{r7}
1000175a:	46b8      	mov	r8, r7
1000175c:	bdf0      	pop	{r4, r5, r6, r7, pc}
	...

10001760 <alarm_pool_cancel_alarm>:
10001760:	b530      	push	{r4, r5, lr}
10001762:	0003      	movs	r3, r0
10001764:	1408      	asrs	r0, r1, #16
10001766:	895a      	ldrh	r2, [r3, #10]
10001768:	4290      	cmp	r0, r2
1000176a:	da2e      	bge.n	100017ca <alarm_pool_cancel_alarm+0x6a>
1000176c:	695c      	ldr	r4, [r3, #20]
1000176e:	0042      	lsls	r2, r0, #1
10001770:	1812      	adds	r2, r2, r0
10001772:	00d2      	lsls	r2, r2, #3
10001774:	18a2      	adds	r2, r4, r2
10001776:	691d      	ldr	r5, [r3, #16]
10001778:	f3ef 8410 	mrs	r4, PRIMASK
1000177c:	b672      	cpsid	i
1000177e:	6828      	ldr	r0, [r5, #0]
10001780:	2800      	cmp	r0, #0
10001782:	d0fc      	beq.n	1000177e <alarm_pool_cancel_alarm+0x1e>
10001784:	f3bf 8f5f 	dmb	sy
10001788:	8850      	ldrh	r0, [r2, #2]
1000178a:	b280      	uxth	r0, r0
1000178c:	0409      	lsls	r1, r1, #16
1000178e:	0c09      	lsrs	r1, r1, #16
10001790:	4288      	cmp	r0, r1
10001792:	d012      	beq.n	100017ba <alarm_pool_cancel_alarm+0x5a>
10001794:	2000      	movs	r0, #0
10001796:	691a      	ldr	r2, [r3, #16]
10001798:	f3bf 8f5f 	dmb	sy
1000179c:	2100      	movs	r1, #0
1000179e:	6011      	str	r1, [r2, #0]
100017a0:	f384 8810 	msr	PRIMASK, r4
100017a4:	2800      	cmp	r0, #0
100017a6:	d011      	beq.n	100017cc <alarm_pool_cancel_alarm+0x6c>
100017a8:	68da      	ldr	r2, [r3, #12]
100017aa:	781b      	ldrb	r3, [r3, #0]
100017ac:	3101      	adds	r1, #1
100017ae:	4099      	lsls	r1, r3
100017b0:	4b07      	ldr	r3, [pc, #28]	@ (100017d0 <alarm_pool_cancel_alarm+0x70>)
100017b2:	469c      	mov	ip, r3
100017b4:	4462      	add	r2, ip
100017b6:	6011      	str	r1, [r2, #0]
100017b8:	e008      	b.n	100017cc <alarm_pool_cancel_alarm+0x6c>
100017ba:	4906      	ldr	r1, [pc, #24]	@ (100017d4 <alarm_pool_cancel_alarm+0x74>)
100017bc:	4301      	orrs	r1, r0
100017be:	b289      	uxth	r1, r1
100017c0:	8051      	strh	r1, [r2, #2]
100017c2:	2201      	movs	r2, #1
100017c4:	719a      	strb	r2, [r3, #6]
100017c6:	2001      	movs	r0, #1
100017c8:	e7e5      	b.n	10001796 <alarm_pool_cancel_alarm+0x36>
100017ca:	2000      	movs	r0, #0
100017cc:	bd30      	pop	{r4, r5, pc}
100017ce:	46c0      	nop			@ (mov r8, r8)
100017d0:	0000203c 	.word	0x0000203c
100017d4:	ffff8000 	.word	0xffff8000

100017d8 <cancel_alarm>:
100017d8:	b510      	push	{r4, lr}
100017da:	0004      	movs	r4, r0
100017dc:	f7ff ff22 	bl	10001624 <alarm_pool_get_default>
100017e0:	0021      	movs	r1, r4
100017e2:	f7ff ffbd 	bl	10001760 <alarm_pool_cancel_alarm>
100017e6:	bd10      	pop	{r4, pc}

100017e8 <sleep_until>:
100017e8:	b5f0      	push	{r4, r5, r6, r7, lr}
100017ea:	b083      	sub	sp, #12
100017ec:	0006      	movs	r6, r0
100017ee:	000f      	movs	r7, r1
100017f0:	f3ef 8305 	mrs	r3, IPSR
100017f4:	2b00      	cmp	r3, #0
100017f6:	d11a      	bne.n	1000182e <sleep_until+0x46>
100017f8:	2406      	movs	r4, #6
100017fa:	4264      	negs	r4, r4
100017fc:	17e5      	asrs	r5, r4, #31
100017fe:	19a4      	adds	r4, r4, r6
10001800:	417d      	adcs	r5, r7
10001802:	428d      	cmp	r5, r1
10001804:	d802      	bhi.n	1000180c <sleep_until+0x24>
10001806:	d103      	bne.n	10001810 <sleep_until+0x28>
10001808:	4284      	cmp	r4, r0
1000180a:	d901      	bls.n	10001810 <sleep_until+0x28>
1000180c:	2400      	movs	r4, #0
1000180e:	2500      	movs	r5, #0
10001810:	f000 f924 	bl	10001a5c <time_us_64>
10001814:	0022      	movs	r2, r4
10001816:	002b      	movs	r3, r5
10001818:	1a12      	subs	r2, r2, r0
1000181a:	418b      	sbcs	r3, r1
1000181c:	2b00      	cmp	r3, #0
1000181e:	dc0b      	bgt.n	10001838 <sleep_until+0x50>
10001820:	d008      	beq.n	10001834 <sleep_until+0x4c>
10001822:	0030      	movs	r0, r6
10001824:	0039      	movs	r1, r7
10001826:	f000 f92b 	bl	10001a80 <busy_wait_until>
1000182a:	b003      	add	sp, #12
1000182c:	bdf0      	pop	{r4, r5, r6, r7, pc}
1000182e:	481a      	ldr	r0, [pc, #104]	@ (10001898 <sleep_until+0xb0>)
10001830:	f7ff fa52 	bl	10000cd8 <panic>
10001834:	2a00      	cmp	r2, #0
10001836:	d0f4      	beq.n	10001822 <sleep_until+0x3a>
10001838:	4a18      	ldr	r2, [pc, #96]	@ (1000189c <sleep_until+0xb4>)
1000183a:	2300      	movs	r3, #0
1000183c:	9300      	str	r3, [sp, #0]
1000183e:	0020      	movs	r0, r4
10001840:	0029      	movs	r1, r5
10001842:	f7ff ff75 	bl	10001730 <add_alarm_at>
10001846:	2800      	cmp	r0, #0
10001848:	da18      	bge.n	1000187c <sleep_until+0x94>
1000184a:	e7ea      	b.n	10001822 <sleep_until+0x3a>
1000184c:	2300      	movs	r3, #0
1000184e:	e000      	b.n	10001852 <sleep_until+0x6a>
10001850:	2300      	movs	r3, #0
10001852:	2b00      	cmp	r3, #0
10001854:	d1e5      	bne.n	10001822 <sleep_until+0x3a>
10001856:	4b12      	ldr	r3, [pc, #72]	@ (100018a0 <sleep_until+0xb8>)
10001858:	6819      	ldr	r1, [r3, #0]
1000185a:	f3ef 8310 	mrs	r3, PRIMASK
1000185e:	b672      	cpsid	i
10001860:	680a      	ldr	r2, [r1, #0]
10001862:	2a00      	cmp	r2, #0
10001864:	d0fc      	beq.n	10001860 <sleep_until+0x78>
10001866:	f3bf 8f5f 	dmb	sy
1000186a:	4a0d      	ldr	r2, [pc, #52]	@ (100018a0 <sleep_until+0xb8>)
1000186c:	6812      	ldr	r2, [r2, #0]
1000186e:	f3bf 8f5f 	dmb	sy
10001872:	2100      	movs	r1, #0
10001874:	6011      	str	r1, [r2, #0]
10001876:	f383 8810 	msr	PRIMASK, r3
1000187a:	bf20      	wfe
1000187c:	4b09      	ldr	r3, [pc, #36]	@ (100018a4 <sleep_until+0xbc>)
1000187e:	6a5b      	ldr	r3, [r3, #36]	@ 0x24
10001880:	429d      	cmp	r5, r3
10001882:	d8e5      	bhi.n	10001850 <sleep_until+0x68>
10001884:	4907      	ldr	r1, [pc, #28]	@ (100018a4 <sleep_until+0xbc>)
10001886:	6a89      	ldr	r1, [r1, #40]	@ 0x28
10001888:	42a1      	cmp	r1, r4
1000188a:	d203      	bcs.n	10001894 <sleep_until+0xac>
1000188c:	429d      	cmp	r5, r3
1000188e:	d0dd      	beq.n	1000184c <sleep_until+0x64>
10001890:	2301      	movs	r3, #1
10001892:	e7de      	b.n	10001852 <sleep_until+0x6a>
10001894:	2301      	movs	r3, #1
10001896:	e7dc      	b.n	10001852 <sleep_until+0x6a>
10001898:	1000f58c 	.word	0x1000f58c
1000189c:	10001271 	.word	0x10001271
100018a0:	20001db4 	.word	0x20001db4
100018a4:	40054000 	.word	0x40054000

100018a8 <sleep_us>:
100018a8:	b570      	push	{r4, r5, r6, lr}
100018aa:	0004      	movs	r4, r0
100018ac:	000d      	movs	r5, r1
100018ae:	f000 f8d5 	bl	10001a5c <time_us_64>
100018b2:	1900      	adds	r0, r0, r4
100018b4:	4169      	adcs	r1, r5
100018b6:	2900      	cmp	r1, #0
100018b8:	db02      	blt.n	100018c0 <sleep_us+0x18>
100018ba:	f7ff ff95 	bl	100017e8 <sleep_until>
100018be:	bd70      	pop	{r4, r5, r6, pc}
100018c0:	2001      	movs	r0, #1
100018c2:	4240      	negs	r0, r0
100018c4:	4900      	ldr	r1, [pc, #0]	@ (100018c8 <sleep_us+0x20>)
100018c6:	e7f8      	b.n	100018ba <sleep_us+0x12>
100018c8:	7fffffff 	.word	0x7fffffff

100018cc <sleep_ms>:
100018cc:	b510      	push	{r4, lr}
100018ce:	22fa      	movs	r2, #250	@ 0xfa
100018d0:	0092      	lsls	r2, r2, #2
100018d2:	2300      	movs	r3, #0
100018d4:	2100      	movs	r1, #0
100018d6:	f001 facd 	bl	10002e74 <__wrap___aeabi_lmul>
100018da:	f7ff ffe5 	bl	100018a8 <sleep_us>
100018de:	bd10      	pop	{r4, pc}

100018e0 <best_effort_wfe_or_timeout>:
100018e0:	b530      	push	{r4, r5, lr}
100018e2:	b083      	sub	sp, #12
100018e4:	0005      	movs	r5, r0
100018e6:	000c      	movs	r4, r1
100018e8:	f3ef 8305 	mrs	r3, IPSR
100018ec:	2b00      	cmp	r3, #0
100018ee:	d012      	beq.n	10001916 <best_effort_wfe_or_timeout+0x36>
100018f0:	4b2a      	ldr	r3, [pc, #168]	@ (1000199c <best_effort_wfe_or_timeout+0xbc>)
100018f2:	6a5b      	ldr	r3, [r3, #36]	@ 0x24
100018f4:	4299      	cmp	r1, r3
100018f6:	d809      	bhi.n	1000190c <best_effort_wfe_or_timeout+0x2c>
100018f8:	4a28      	ldr	r2, [pc, #160]	@ (1000199c <best_effort_wfe_or_timeout+0xbc>)
100018fa:	6a92      	ldr	r2, [r2, #40]	@ 0x28
100018fc:	4282      	cmp	r2, r0
100018fe:	d208      	bcs.n	10001912 <best_effort_wfe_or_timeout+0x32>
10001900:	4299      	cmp	r1, r3
10001902:	d001      	beq.n	10001908 <best_effort_wfe_or_timeout+0x28>
10001904:	2001      	movs	r0, #1
10001906:	e002      	b.n	1000190e <best_effort_wfe_or_timeout+0x2e>
10001908:	2000      	movs	r0, #0
1000190a:	e000      	b.n	1000190e <best_effort_wfe_or_timeout+0x2e>
1000190c:	2000      	movs	r0, #0
1000190e:	b003      	add	sp, #12
10001910:	bd30      	pop	{r4, r5, pc}
10001912:	2001      	movs	r0, #1
10001914:	e7fb      	b.n	1000190e <best_effort_wfe_or_timeout+0x2e>
10001916:	4a22      	ldr	r2, [pc, #136]	@ (100019a0 <best_effort_wfe_or_timeout+0xc0>)
10001918:	2300      	movs	r3, #0
1000191a:	9300      	str	r3, [sp, #0]
1000191c:	f7ff ff08 	bl	10001730 <add_alarm_at>
10001920:	2800      	cmp	r0, #0
10001922:	dd0d      	ble.n	10001940 <best_effort_wfe_or_timeout+0x60>
10001924:	bf40      	sev
10001926:	bf20      	wfe
10001928:	4b1c      	ldr	r3, [pc, #112]	@ (1000199c <best_effort_wfe_or_timeout+0xbc>)
1000192a:	6a5b      	ldr	r3, [r3, #36]	@ 0x24
1000192c:	429c      	cmp	r4, r3
1000192e:	d81b      	bhi.n	10001968 <best_effort_wfe_or_timeout+0x88>
10001930:	4a1a      	ldr	r2, [pc, #104]	@ (1000199c <best_effort_wfe_or_timeout+0xbc>)
10001932:	6a92      	ldr	r2, [r2, #40]	@ 0x28
10001934:	42aa      	cmp	r2, r5
10001936:	d229      	bcs.n	1000198c <best_effort_wfe_or_timeout+0xac>
10001938:	429c      	cmp	r4, r3
1000193a:	d013      	beq.n	10001964 <best_effort_wfe_or_timeout+0x84>
1000193c:	2301      	movs	r3, #1
1000193e:	e014      	b.n	1000196a <best_effort_wfe_or_timeout+0x8a>
10001940:	4b16      	ldr	r3, [pc, #88]	@ (1000199c <best_effort_wfe_or_timeout+0xbc>)
10001942:	6a5b      	ldr	r3, [r3, #36]	@ 0x24
10001944:	429c      	cmp	r4, r3
10001946:	d809      	bhi.n	1000195c <best_effort_wfe_or_timeout+0x7c>
10001948:	4a14      	ldr	r2, [pc, #80]	@ (1000199c <best_effort_wfe_or_timeout+0xbc>)
1000194a:	6a92      	ldr	r2, [r2, #40]	@ 0x28
1000194c:	42aa      	cmp	r2, r5
1000194e:	d207      	bcs.n	10001960 <best_effort_wfe_or_timeout+0x80>
10001950:	429c      	cmp	r4, r3
10001952:	d001      	beq.n	10001958 <best_effort_wfe_or_timeout+0x78>
10001954:	2001      	movs	r0, #1
10001956:	e7da      	b.n	1000190e <best_effort_wfe_or_timeout+0x2e>
10001958:	2000      	movs	r0, #0
1000195a:	e7d8      	b.n	1000190e <best_effort_wfe_or_timeout+0x2e>
1000195c:	2000      	movs	r0, #0
1000195e:	e7d6      	b.n	1000190e <best_effort_wfe_or_timeout+0x2e>
10001960:	2001      	movs	r0, #1
10001962:	e7d4      	b.n	1000190e <best_effort_wfe_or_timeout+0x2e>
10001964:	2300      	movs	r3, #0
10001966:	e000      	b.n	1000196a <best_effort_wfe_or_timeout+0x8a>
10001968:	2300      	movs	r3, #0
1000196a:	2b00      	cmp	r3, #0
1000196c:	d100      	bne.n	10001970 <best_effort_wfe_or_timeout+0x90>
1000196e:	bf20      	wfe
10001970:	f7ff ff32 	bl	100017d8 <cancel_alarm>
10001974:	4b09      	ldr	r3, [pc, #36]	@ (1000199c <best_effort_wfe_or_timeout+0xbc>)
10001976:	6a5b      	ldr	r3, [r3, #36]	@ 0x24
10001978:	429c      	cmp	r4, r3
1000197a:	d80b      	bhi.n	10001994 <best_effort_wfe_or_timeout+0xb4>
1000197c:	4a07      	ldr	r2, [pc, #28]	@ (1000199c <best_effort_wfe_or_timeout+0xbc>)
1000197e:	6a92      	ldr	r2, [r2, #40]	@ 0x28
10001980:	42aa      	cmp	r2, r5
10001982:	d209      	bcs.n	10001998 <best_effort_wfe_or_timeout+0xb8>
10001984:	429c      	cmp	r4, r3
10001986:	d003      	beq.n	10001990 <best_effort_wfe_or_timeout+0xb0>
10001988:	2001      	movs	r0, #1
1000198a:	e7c0      	b.n	1000190e <best_effort_wfe_or_timeout+0x2e>
1000198c:	2301      	movs	r3, #1
1000198e:	e7ec      	b.n	1000196a <best_effort_wfe_or_timeout+0x8a>
10001990:	2000      	movs	r0, #0
10001992:	e7bc      	b.n	1000190e <best_effort_wfe_or_timeout+0x2e>
10001994:	2000      	movs	r0, #0
10001996:	e7ba      	b.n	1000190e <best_effort_wfe_or_timeout+0x2e>
10001998:	2001      	movs	r0, #1
1000199a:	e7b8      	b.n	1000190e <best_effort_wfe_or_timeout+0x2e>
1000199c:	40054000 	.word	0x40054000
100019a0:	10001271 	.word	0x10001271

100019a4 <alarm_pool_get_default_timer>:
100019a4:	4800      	ldr	r0, [pc, #0]	@ (100019a8 <alarm_pool_get_default_timer+0x4>)
100019a6:	4770      	bx	lr
100019a8:	40054000 	.word	0x40054000

100019ac <runtime_init_default_alarm_pool>:
100019ac:	b510      	push	{r4, lr}
100019ae:	4b0b      	ldr	r3, [pc, #44]	@ (100019dc <runtime_init_default_alarm_pool+0x30>)
100019b0:	691b      	ldr	r3, [r3, #16]
100019b2:	2b00      	cmp	r3, #0
100019b4:	d004      	beq.n	100019c0 <runtime_init_default_alarm_pool+0x14>
100019b6:	480a      	ldr	r0, [pc, #40]	@ (100019e0 <runtime_init_default_alarm_pool+0x34>)
100019b8:	210a      	movs	r1, #10
100019ba:	f7ff fc0b 	bl	100011d4 <lock_init>
100019be:	bd10      	pop	{r4, pc}
100019c0:	f7ff fff0 	bl	100019a4 <alarm_pool_get_default_timer>
100019c4:	0004      	movs	r4, r0
100019c6:	2103      	movs	r1, #3
100019c8:	f000 f80c 	bl	100019e4 <timer_hardware_alarm_claim>
100019cc:	4803      	ldr	r0, [pc, #12]	@ (100019dc <runtime_init_default_alarm_pool+0x30>)
100019ce:	2310      	movs	r3, #16
100019d0:	2203      	movs	r2, #3
100019d2:	0021      	movs	r1, r4
100019d4:	f7ff fdea 	bl	100015ac <alarm_pool_post_alloc_init>
100019d8:	e7ed      	b.n	100019b6 <runtime_init_default_alarm_pool+0xa>
100019da:	46c0      	nop			@ (mov r8, r8)
100019dc:	20001240 	.word	0x20001240
100019e0:	20001db4 	.word	0x20001db4

100019e4 <timer_hardware_alarm_claim>:
100019e4:	b510      	push	{r4, lr}
100019e6:	4a02      	ldr	r2, [pc, #8]	@ (100019f0 <timer_hardware_alarm_claim+0xc>)
100019e8:	4802      	ldr	r0, [pc, #8]	@ (100019f4 <timer_hardware_alarm_claim+0x10>)
100019ea:	f7ff f9a3 	bl	10000d34 <hw_claim_or_assert>
100019ee:	bd10      	pop	{r4, pc}
100019f0:	1000f5dc 	.word	0x1000f5dc
100019f4:	20001b48 	.word	0x20001b48

100019f8 <timer_time_us_64>:
100019f8:	0002      	movs	r2, r0
100019fa:	6a43      	ldr	r3, [r0, #36]	@ 0x24
100019fc:	6a90      	ldr	r0, [r2, #40]	@ 0x28
100019fe:	0019      	movs	r1, r3
10001a00:	6a53      	ldr	r3, [r2, #36]	@ 0x24
10001a02:	4299      	cmp	r1, r3
10001a04:	d1fa      	bne.n	100019fc <timer_time_us_64+0x4>
10001a06:	4770      	bx	lr

10001a08 <timer_busy_wait_until>:
10001a08:	6a41      	ldr	r1, [r0, #36]	@ 0x24
10001a0a:	e000      	b.n	10001a0e <timer_busy_wait_until+0x6>
10001a0c:	6a41      	ldr	r1, [r0, #36]	@ 0x24
10001a0e:	4299      	cmp	r1, r3
10001a10:	d3fc      	bcc.n	10001a0c <timer_busy_wait_until+0x4>
10001a12:	e000      	b.n	10001a16 <timer_busy_wait_until+0xe>
10001a14:	6a41      	ldr	r1, [r0, #36]	@ 0x24
10001a16:	4299      	cmp	r1, r3
10001a18:	d102      	bne.n	10001a20 <timer_busy_wait_until+0x18>
10001a1a:	6a81      	ldr	r1, [r0, #40]	@ 0x28
10001a1c:	4291      	cmp	r1, r2
10001a1e:	d3f9      	bcc.n	10001a14 <timer_busy_wait_until+0xc>
10001a20:	4770      	bx	lr

10001a22 <timer_busy_wait_us>:
10001a22:	b5f0      	push	{r4, r5, r6, r7, lr}
10001a24:	46c6      	mov	lr, r8
10001a26:	b500      	push	{lr}
10001a28:	4680      	mov	r8, r0
10001a2a:	0014      	movs	r4, r2
10001a2c:	001d      	movs	r5, r3
10001a2e:	f7ff ffe3 	bl	100019f8 <timer_time_us_64>
10001a32:	0006      	movs	r6, r0
10001a34:	000f      	movs	r7, r1
10001a36:	0022      	movs	r2, r4
10001a38:	002b      	movs	r3, r5
10001a3a:	1992      	adds	r2, r2, r6
10001a3c:	417b      	adcs	r3, r7
10001a3e:	4299      	cmp	r1, r3
10001a40:	d802      	bhi.n	10001a48 <timer_busy_wait_us+0x26>
10001a42:	d104      	bne.n	10001a4e <timer_busy_wait_us+0x2c>
10001a44:	4290      	cmp	r0, r2
10001a46:	d902      	bls.n	10001a4e <timer_busy_wait_us+0x2c>
10001a48:	2201      	movs	r2, #1
10001a4a:	4252      	negs	r2, r2
10001a4c:	17d3      	asrs	r3, r2, #31
10001a4e:	4640      	mov	r0, r8
10001a50:	f7ff ffda 	bl	10001a08 <timer_busy_wait_until>
10001a54:	bc80      	pop	{r7}
10001a56:	46b8      	mov	r8, r7
10001a58:	bdf0      	pop	{r4, r5, r6, r7, pc}
	...

10001a5c <time_us_64>:
10001a5c:	b510      	push	{r4, lr}
10001a5e:	4802      	ldr	r0, [pc, #8]	@ (10001a68 <time_us_64+0xc>)
10001a60:	f7ff ffca 	bl	100019f8 <timer_time_us_64>
10001a64:	bd10      	pop	{r4, pc}
10001a66:	46c0      	nop			@ (mov r8, r8)
10001a68:	40054000 	.word	0x40054000

10001a6c <busy_wait_us>:
10001a6c:	b510      	push	{r4, lr}
10001a6e:	0002      	movs	r2, r0
10001a70:	000b      	movs	r3, r1
10001a72:	4802      	ldr	r0, [pc, #8]	@ (10001a7c <busy_wait_us+0x10>)
10001a74:	f7ff ffd5 	bl	10001a22 <timer_busy_wait_us>
10001a78:	bd10      	pop	{r4, pc}
10001a7a:	46c0      	nop			@ (mov r8, r8)
10001a7c:	40054000 	.word	0x40054000

10001a80 <busy_wait_until>:
10001a80:	b510      	push	{r4, lr}
10001a82:	0002      	movs	r2, r0
10001a84:	000b      	movs	r3, r1
10001a86:	4802      	ldr	r0, [pc, #8]	@ (10001a90 <busy_wait_until+0x10>)
10001a88:	f7ff ffbe 	bl	10001a08 <timer_busy_wait_until>
10001a8c:	bd10      	pop	{r4, pc}
10001a8e:	46c0      	nop			@ (mov r8, r8)
10001a90:	40054000 	.word	0x40054000

10001a94 <uart_unreset>:
10001a94:	4b07      	ldr	r3, [pc, #28]	@ (10001ab4 <uart_unreset+0x20>)
10001a96:	4298      	cmp	r0, r3
10001a98:	d00a      	beq.n	10001ab0 <uart_unreset+0x1c>
10001a9a:	2316      	movs	r3, #22
10001a9c:	2201      	movs	r2, #1
10001a9e:	409a      	lsls	r2, r3
10001aa0:	4b05      	ldr	r3, [pc, #20]	@ (10001ab8 <uart_unreset+0x24>)
10001aa2:	601a      	str	r2, [r3, #0]
10001aa4:	4b05      	ldr	r3, [pc, #20]	@ (10001abc <uart_unreset+0x28>)
10001aa6:	681b      	ldr	r3, [r3, #0]
10001aa8:	0011      	movs	r1, r2
10001aaa:	4399      	bics	r1, r3
10001aac:	d1fa      	bne.n	10001aa4 <uart_unreset+0x10>
10001aae:	4770      	bx	lr
10001ab0:	2317      	movs	r3, #23
10001ab2:	e7f3      	b.n	10001a9c <uart_unreset+0x8>
10001ab4:	40038000 	.word	0x40038000
10001ab8:	4000f000 	.word	0x4000f000
10001abc:	4000c008 	.word	0x4000c008

10001ac0 <uart_disable_before_lcr_write>:
10001ac0:	b570      	push	{r4, r5, r6, lr}
10001ac2:	6b04      	ldr	r4, [r0, #48]	@ 0x30
10001ac4:	07e3      	lsls	r3, r4, #31
10001ac6:	d401      	bmi.n	10001acc <uart_disable_before_lcr_write+0xc>
10001ac8:	0020      	movs	r0, r4
10001aca:	bd70      	pop	{r4, r5, r6, pc}
10001acc:	4b0b      	ldr	r3, [pc, #44]	@ (10001afc <uart_disable_before_lcr_write+0x3c>)
10001ace:	18c3      	adds	r3, r0, r3
10001ad0:	4a0b      	ldr	r2, [pc, #44]	@ (10001b00 <uart_disable_before_lcr_write+0x40>)
10001ad2:	601a      	str	r2, [r3, #0]
10001ad4:	6a45      	ldr	r5, [r0, #36]	@ 0x24
10001ad6:	6a83      	ldr	r3, [r0, #40]	@ 0x28
10001ad8:	01ad      	lsls	r5, r5, #6
10001ada:	18ed      	adds	r5, r5, r3
10001adc:	02ad      	lsls	r5, r5, #10
10001ade:	2006      	movs	r0, #6
10001ae0:	f000 f916 	bl	10001d10 <clock_get_hz>
10001ae4:	4907      	ldr	r1, [pc, #28]	@ (10001b04 <uart_disable_before_lcr_write+0x44>)
10001ae6:	f000 fb89 	bl	100021fc <__wrap___aeabi_uidiv>
10001aea:	0001      	movs	r1, r0
10001aec:	0028      	movs	r0, r5
10001aee:	f000 fb85 	bl	100021fc <__wrap___aeabi_uidiv>
10001af2:	2100      	movs	r1, #0
10001af4:	f7ff ffba 	bl	10001a6c <busy_wait_us>
10001af8:	e7e6      	b.n	10001ac8 <uart_disable_before_lcr_write+0x8>
10001afa:	46c0      	nop			@ (mov r8, r8)
10001afc:	00003030 	.word	0x00003030
10001b00:	00000301 	.word	0x00000301
10001b04:	00000e4e 	.word	0x00000e4e

10001b08 <uart_write_lcr_bits_masked>:
10001b08:	b570      	push	{r4, r5, r6, lr}
10001b0a:	0004      	movs	r4, r0
10001b0c:	000e      	movs	r6, r1
10001b0e:	0015      	movs	r5, r2
10001b10:	f7ff ffd6 	bl	10001ac0 <uart_disable_before_lcr_write>
10001b14:	6ae3      	ldr	r3, [r4, #44]	@ 0x2c
10001b16:	405e      	eors	r6, r3
10001b18:	4035      	ands	r5, r6
10001b1a:	4b02      	ldr	r3, [pc, #8]	@ (10001b24 <uart_write_lcr_bits_masked+0x1c>)
10001b1c:	18e3      	adds	r3, r4, r3
10001b1e:	601d      	str	r5, [r3, #0]
10001b20:	6320      	str	r0, [r4, #48]	@ 0x30
10001b22:	bd70      	pop	{r4, r5, r6, pc}
10001b24:	0000102c 	.word	0x0000102c

10001b28 <uart_set_baudrate>:
10001b28:	b570      	push	{r4, r5, r6, lr}
10001b2a:	0005      	movs	r5, r0
10001b2c:	000c      	movs	r4, r1
10001b2e:	2006      	movs	r0, #6
10001b30:	f000 f8ee 	bl	10001d10 <clock_get_hz>
10001b34:	00c0      	lsls	r0, r0, #3
10001b36:	0021      	movs	r1, r4
10001b38:	f000 fb60 	bl	100021fc <__wrap___aeabi_uidiv>
10001b3c:	3001      	adds	r0, #1
10001b3e:	09c6      	lsrs	r6, r0, #7
10001b40:	d007      	beq.n	10001b52 <uart_set_baudrate+0x2a>
10001b42:	4b0e      	ldr	r3, [pc, #56]	@ (10001b7c <uart_set_baudrate+0x54>)
10001b44:	429e      	cmp	r6, r3
10001b46:	d815      	bhi.n	10001b74 <uart_set_baudrate+0x4c>
10001b48:	0840      	lsrs	r0, r0, #1
10001b4a:	0034      	movs	r4, r6
10001b4c:	263f      	movs	r6, #63	@ 0x3f
10001b4e:	4006      	ands	r6, r0
10001b50:	e000      	b.n	10001b54 <uart_set_baudrate+0x2c>
10001b52:	2401      	movs	r4, #1
10001b54:	626c      	str	r4, [r5, #36]	@ 0x24
10001b56:	62ae      	str	r6, [r5, #40]	@ 0x28
10001b58:	2200      	movs	r2, #0
10001b5a:	2100      	movs	r1, #0
10001b5c:	0028      	movs	r0, r5
10001b5e:	f7ff ffd3 	bl	10001b08 <uart_write_lcr_bits_masked>
10001b62:	2006      	movs	r0, #6
10001b64:	f000 f8d4 	bl	10001d10 <clock_get_hz>
10001b68:	0080      	lsls	r0, r0, #2
10001b6a:	01a1      	lsls	r1, r4, #6
10001b6c:	1989      	adds	r1, r1, r6
10001b6e:	f000 fb45 	bl	100021fc <__wrap___aeabi_uidiv>
10001b72:	bd70      	pop	{r4, r5, r6, pc}
10001b74:	2600      	movs	r6, #0
10001b76:	4c02      	ldr	r4, [pc, #8]	@ (10001b80 <uart_set_baudrate+0x58>)
10001b78:	e7ec      	b.n	10001b54 <uart_set_baudrate+0x2c>
10001b7a:	46c0      	nop			@ (mov r8, r8)
10001b7c:	0000fffe 	.word	0x0000fffe
10001b80:	0000ffff 	.word	0x0000ffff

10001b84 <uart_set_translate_crlf>:
10001b84:	2900      	cmp	r1, #0
10001b86:	d009      	beq.n	10001b9c <uart_set_translate_crlf+0x18>
10001b88:	220a      	movs	r2, #10
10001b8a:	4b06      	ldr	r3, [pc, #24]	@ (10001ba4 <uart_set_translate_crlf+0x20>)
10001b8c:	469c      	mov	ip, r3
10001b8e:	4460      	add	r0, ip
10001b90:	4243      	negs	r3, r0
10001b92:	4158      	adcs	r0, r3
10001b94:	4b04      	ldr	r3, [pc, #16]	@ (10001ba8 <uart_set_translate_crlf+0x24>)
10001b96:	0040      	lsls	r0, r0, #1
10001b98:	52c2      	strh	r2, [r0, r3]
10001b9a:	4770      	bx	lr
10001b9c:	2280      	movs	r2, #128	@ 0x80
10001b9e:	0052      	lsls	r2, r2, #1
10001ba0:	e7f3      	b.n	10001b8a <uart_set_translate_crlf+0x6>
10001ba2:	46c0      	nop			@ (mov r8, r8)
10001ba4:	bffc8000 	.word	0xbffc8000
10001ba8:	20001db8 	.word	0x20001db8

10001bac <uart_init>:
10001bac:	b570      	push	{r4, r5, r6, lr}
10001bae:	0004      	movs	r4, r0
10001bb0:	000d      	movs	r5, r1
10001bb2:	2006      	movs	r0, #6
10001bb4:	f000 f8ac 	bl	10001d10 <clock_get_hz>
10001bb8:	2800      	cmp	r0, #0
10001bba:	d01e      	beq.n	10001bfa <uart_init+0x4e>
10001bbc:	4b10      	ldr	r3, [pc, #64]	@ (10001c00 <uart_init+0x54>)
10001bbe:	429c      	cmp	r4, r3
10001bc0:	d01c      	beq.n	10001bfc <uart_init+0x50>
10001bc2:	2216      	movs	r2, #22
10001bc4:	2301      	movs	r3, #1
10001bc6:	4093      	lsls	r3, r2
10001bc8:	4a0e      	ldr	r2, [pc, #56]	@ (10001c04 <uart_init+0x58>)
10001bca:	6013      	str	r3, [r2, #0]
10001bcc:	0020      	movs	r0, r4
10001bce:	f7ff ff61 	bl	10001a94 <uart_unreset>
10001bd2:	2100      	movs	r1, #0
10001bd4:	0020      	movs	r0, r4
10001bd6:	f7ff ffd5 	bl	10001b84 <uart_set_translate_crlf>
10001bda:	0029      	movs	r1, r5
10001bdc:	0020      	movs	r0, r4
10001bde:	f7ff ffa3 	bl	10001b28 <uart_set_baudrate>
10001be2:	6ae2      	ldr	r2, [r4, #44]	@ 0x2c
10001be4:	2370      	movs	r3, #112	@ 0x70
10001be6:	405a      	eors	r2, r3
10001be8:	330e      	adds	r3, #14
10001bea:	4013      	ands	r3, r2
10001bec:	4a06      	ldr	r2, [pc, #24]	@ (10001c08 <uart_init+0x5c>)
10001bee:	18a2      	adds	r2, r4, r2
10001bf0:	6013      	str	r3, [r2, #0]
10001bf2:	4b06      	ldr	r3, [pc, #24]	@ (10001c0c <uart_init+0x60>)
10001bf4:	6323      	str	r3, [r4, #48]	@ 0x30
10001bf6:	2303      	movs	r3, #3
10001bf8:	64a3      	str	r3, [r4, #72]	@ 0x48
10001bfa:	bd70      	pop	{r4, r5, r6, pc}
10001bfc:	2217      	movs	r2, #23
10001bfe:	e7e1      	b.n	10001bc4 <uart_init+0x18>
10001c00:	40038000 	.word	0x40038000
10001c04:	4000e000 	.word	0x4000e000
10001c08:	0000102c 	.word	0x0000102c
10001c0c:	00000301 	.word	0x00000301

10001c10 <clock_configure_internal>:
10001c10:	b5f8      	push	{r3, r4, r5, r6, r7, lr}
10001c12:	46d6      	mov	lr, sl
10001c14:	4647      	mov	r7, r8
10001c16:	b580      	push	{r7, lr}
10001c18:	0006      	movs	r6, r0
10001c1a:	000d      	movs	r5, r1
10001c1c:	0017      	movs	r7, r2
10001c1e:	4698      	mov	r8, r3
10001c20:	0044      	lsls	r4, r0, #1
10001c22:	1824      	adds	r4, r4, r0
10001c24:	00a4      	lsls	r4, r4, #2
10001c26:	4b29      	ldr	r3, [pc, #164]	@ (10001ccc <clock_configure_internal+0xbc>)
10001c28:	469c      	mov	ip, r3
10001c2a:	4464      	add	r4, ip
10001c2c:	6863      	ldr	r3, [r4, #4]
10001c2e:	9a08      	ldr	r2, [sp, #32]
10001c30:	4293      	cmp	r3, r2
10001c32:	d200      	bcs.n	10001c36 <clock_configure_internal+0x26>
10001c34:	6062      	str	r2, [r4, #4]
10001c36:	1f33      	subs	r3, r6, #4
10001c38:	b2db      	uxtb	r3, r3
10001c3a:	469a      	mov	sl, r3
10001c3c:	2b01      	cmp	r3, #1
10001c3e:	d92e      	bls.n	10001c9e <clock_configure_internal+0x8e>
10001c40:	2280      	movs	r2, #128	@ 0x80
10001c42:	0112      	lsls	r2, r2, #4
10001c44:	23c0      	movs	r3, #192	@ 0xc0
10001c46:	019b      	lsls	r3, r3, #6
10001c48:	18e3      	adds	r3, r4, r3
10001c4a:	601a      	str	r2, [r3, #0]
10001c4c:	4b20      	ldr	r3, [pc, #128]	@ (10001cd0 <clock_configure_internal+0xc0>)
10001c4e:	00b2      	lsls	r2, r6, #2
10001c50:	58d1      	ldr	r1, [r2, r3]
10001c52:	2900      	cmp	r1, #0
10001c54:	d007      	beq.n	10001c66 <clock_configure_internal+0x56>
10001c56:	6958      	ldr	r0, [r3, #20]
10001c58:	f000 fad0 	bl	100021fc <__wrap___aeabi_uidiv>
10001c5c:	3001      	adds	r0, #1
10001c5e:	0043      	lsls	r3, r0, #1
10001c60:	181b      	adds	r3, r3, r0
10001c62:	3b03      	subs	r3, #3
10001c64:	d2fd      	bcs.n	10001c62 <clock_configure_internal+0x52>
10001c66:	017f      	lsls	r7, r7, #5
10001c68:	6823      	ldr	r3, [r4, #0]
10001c6a:	405f      	eors	r7, r3
10001c6c:	23e0      	movs	r3, #224	@ 0xe0
10001c6e:	403b      	ands	r3, r7
10001c70:	2280      	movs	r2, #128	@ 0x80
10001c72:	0152      	lsls	r2, r2, #5
10001c74:	18a2      	adds	r2, r4, r2
10001c76:	6013      	str	r3, [r2, #0]
10001c78:	4653      	mov	r3, sl
10001c7a:	2b01      	cmp	r3, #1
10001c7c:	d91a      	bls.n	10001cb4 <clock_configure_internal+0xa4>
10001c7e:	2380      	movs	r3, #128	@ 0x80
10001c80:	019b      	lsls	r3, r3, #6
10001c82:	18e3      	adds	r3, r4, r3
10001c84:	2280      	movs	r2, #128	@ 0x80
10001c86:	0112      	lsls	r2, r2, #4
10001c88:	601a      	str	r2, [r3, #0]
10001c8a:	9b08      	ldr	r3, [sp, #32]
10001c8c:	6063      	str	r3, [r4, #4]
10001c8e:	4b10      	ldr	r3, [pc, #64]	@ (10001cd0 <clock_configure_internal+0xc0>)
10001c90:	00b6      	lsls	r6, r6, #2
10001c92:	4642      	mov	r2, r8
10001c94:	50f2      	str	r2, [r6, r3]
10001c96:	bcc0      	pop	{r6, r7}
10001c98:	46ba      	mov	sl, r7
10001c9a:	46b0      	mov	r8, r6
10001c9c:	bdf8      	pop	{r3, r4, r5, r6, r7, pc}
10001c9e:	2d01      	cmp	r5, #1
10001ca0:	d1ce      	bne.n	10001c40 <clock_configure_internal+0x30>
10001ca2:	2203      	movs	r2, #3
10001ca4:	23c0      	movs	r3, #192	@ 0xc0
10001ca6:	019b      	lsls	r3, r3, #6
10001ca8:	18e3      	adds	r3, r4, r3
10001caa:	601a      	str	r2, [r3, #0]
10001cac:	68a3      	ldr	r3, [r4, #8]
10001cae:	07db      	lsls	r3, r3, #31
10001cb0:	d5fc      	bpl.n	10001cac <clock_configure_internal+0x9c>
10001cb2:	e7d8      	b.n	10001c66 <clock_configure_internal+0x56>
10001cb4:	6821      	ldr	r1, [r4, #0]
10001cb6:	4069      	eors	r1, r5
10001cb8:	2303      	movs	r3, #3
10001cba:	400b      	ands	r3, r1
10001cbc:	6013      	str	r3, [r2, #0]
10001cbe:	68a3      	ldr	r3, [r4, #8]
10001cc0:	2201      	movs	r2, #1
10001cc2:	40aa      	lsls	r2, r5
10001cc4:	421a      	tst	r2, r3
10001cc6:	d0fa      	beq.n	10001cbe <clock_configure_internal+0xae>
10001cc8:	e7d9      	b.n	10001c7e <clock_configure_internal+0x6e>
10001cca:	46c0      	nop			@ (mov r8, r8)
10001ccc:	40008000 	.word	0x40008000
10001cd0:	20001b4c 	.word	0x20001b4c

10001cd4 <clock_configure_int_divider>:
10001cd4:	b5f0      	push	{r4, r5, r6, r7, lr}
10001cd6:	b083      	sub	sp, #12
10001cd8:	0005      	movs	r5, r0
10001cda:	000e      	movs	r6, r1
10001cdc:	0017      	movs	r7, r2
10001cde:	0018      	movs	r0, r3
10001ce0:	9908      	ldr	r1, [sp, #32]
10001ce2:	f000 fa8b 	bl	100021fc <__wrap___aeabi_uidiv>
10001ce6:	0003      	movs	r3, r0
10001ce8:	9a08      	ldr	r2, [sp, #32]
10001cea:	0214      	lsls	r4, r2, #8
10001cec:	9400      	str	r4, [sp, #0]
10001cee:	003a      	movs	r2, r7
10001cf0:	0031      	movs	r1, r6
10001cf2:	0028      	movs	r0, r5
10001cf4:	f7ff ff8c 	bl	10001c10 <clock_configure_internal>
10001cf8:	b003      	add	sp, #12
10001cfa:	bdf0      	pop	{r4, r5, r6, r7, pc}

10001cfc <clock_configure_undivided>:
10001cfc:	b510      	push	{r4, lr}
10001cfe:	b082      	sub	sp, #8
10001d00:	2480      	movs	r4, #128	@ 0x80
10001d02:	0064      	lsls	r4, r4, #1
10001d04:	9400      	str	r4, [sp, #0]
10001d06:	f7ff ff83 	bl	10001c10 <clock_configure_internal>
10001d0a:	b002      	add	sp, #8
10001d0c:	bd10      	pop	{r4, pc}
	...

10001d10 <clock_get_hz>:
10001d10:	4b01      	ldr	r3, [pc, #4]	@ (10001d18 <clock_get_hz+0x8>)
10001d12:	0080      	lsls	r0, r0, #2
10001d14:	58c0      	ldr	r0, [r0, r3]
10001d16:	4770      	bx	lr
10001d18:	20001b4c 	.word	0x20001b4c

10001d1c <set_sys_clock_pll>:
10001d1c:	b5f0      	push	{r4, r5, r6, r7, lr}
10001d1e:	b083      	sub	sp, #12
10001d20:	0005      	movs	r5, r0
10001d22:	000e      	movs	r6, r1
10001d24:	0014      	movs	r4, r2
10001d26:	4f14      	ldr	r7, [pc, #80]	@ (10001d78 <set_sys_clock_pll+0x5c>)
10001d28:	003b      	movs	r3, r7
10001d2a:	2201      	movs	r2, #1
10001d2c:	2101      	movs	r1, #1
10001d2e:	2005      	movs	r0, #5
10001d30:	f7ff ffe4 	bl	10001cfc <clock_configure_undivided>
10001d34:	9400      	str	r4, [sp, #0]
10001d36:	0033      	movs	r3, r6
10001d38:	002a      	movs	r2, r5
10001d3a:	2101      	movs	r1, #1
10001d3c:	480f      	ldr	r0, [pc, #60]	@ (10001d7c <set_sys_clock_pll+0x60>)
10001d3e:	f000 f873 	bl	10001e28 <pll_init>
10001d42:	0021      	movs	r1, r4
10001d44:	4371      	muls	r1, r6
10001d46:	0028      	movs	r0, r5
10001d48:	f000 fa58 	bl	100021fc <__wrap___aeabi_uidiv>
10001d4c:	0004      	movs	r4, r0
10001d4e:	4b0c      	ldr	r3, [pc, #48]	@ (10001d80 <set_sys_clock_pll+0x64>)
10001d50:	2200      	movs	r2, #0
10001d52:	2102      	movs	r1, #2
10001d54:	2004      	movs	r0, #4
10001d56:	f7ff ffd1 	bl	10001cfc <clock_configure_undivided>
10001d5a:	0023      	movs	r3, r4
10001d5c:	2200      	movs	r2, #0
10001d5e:	2101      	movs	r1, #1
10001d60:	2005      	movs	r0, #5
10001d62:	f7ff ffcb 	bl	10001cfc <clock_configure_undivided>
10001d66:	003b      	movs	r3, r7
10001d68:	2202      	movs	r2, #2
10001d6a:	2100      	movs	r1, #0
10001d6c:	2006      	movs	r0, #6
10001d6e:	f7ff ffc5 	bl	10001cfc <clock_configure_undivided>
10001d72:	b003      	add	sp, #12
10001d74:	bdf0      	pop	{r4, r5, r6, r7, pc}
10001d76:	46c0      	nop			@ (mov r8, r8)
10001d78:	02dc6c00 	.word	0x02dc6c00
10001d7c:	40028000 	.word	0x40028000
10001d80:	00b71b00 	.word	0x00b71b00

10001d84 <check_sys_clock_khz>:
10001d84:	b5f0      	push	{r4, r5, r6, r7, lr}
10001d86:	46de      	mov	lr, fp
10001d88:	4657      	mov	r7, sl
10001d8a:	464e      	mov	r6, r9
10001d8c:	4645      	mov	r5, r8
10001d8e:	b5e0      	push	{r5, r6, r7, lr}
10001d90:	b083      	sub	sp, #12
10001d92:	4680      	mov	r8, r0
10001d94:	468b      	mov	fp, r1
10001d96:	4692      	mov	sl, r2
10001d98:	9301      	str	r3, [sp, #4]
10001d9a:	23a0      	movs	r3, #160	@ 0xa0
10001d9c:	005b      	lsls	r3, r3, #1
10001d9e:	4699      	mov	r9, r3
10001da0:	e02a      	b.n	10001df8 <check_sys_clock_khz+0x74>
10001da2:	3c01      	subs	r4, #1
10001da4:	2c00      	cmp	r4, #0
10001da6:	d01e      	beq.n	10001de6 <check_sys_clock_khz+0x62>
10001da8:	0025      	movs	r5, r4
10001daa:	437d      	muls	r5, r7
10001dac:	0029      	movs	r1, r5
10001dae:	0030      	movs	r0, r6
10001db0:	f000 fa24 	bl	100021fc <__wrap___aeabi_uidiv>
10001db4:	4540      	cmp	r0, r8
10001db6:	d1f4      	bne.n	10001da2 <check_sys_clock_khz+0x1e>
10001db8:	0029      	movs	r1, r5
10001dba:	0030      	movs	r0, r6
10001dbc:	f000 fa1e 	bl	100021fc <__wrap___aeabi_uidiv>
10001dc0:	2900      	cmp	r1, #0
10001dc2:	d1ee      	bne.n	10001da2 <check_sys_clock_khz+0x1e>
10001dc4:	4b14      	ldr	r3, [pc, #80]	@ (10001e18 <check_sys_clock_khz+0x94>)
10001dc6:	464a      	mov	r2, r9
10001dc8:	4353      	muls	r3, r2
10001dca:	465a      	mov	r2, fp
10001dcc:	6013      	str	r3, [r2, #0]
10001dce:	4653      	mov	r3, sl
10001dd0:	601f      	str	r7, [r3, #0]
10001dd2:	9b01      	ldr	r3, [sp, #4]
10001dd4:	601c      	str	r4, [r3, #0]
10001dd6:	2001      	movs	r0, #1
10001dd8:	b003      	add	sp, #12
10001dda:	bcf0      	pop	{r4, r5, r6, r7}
10001ddc:	46bb      	mov	fp, r7
10001dde:	46b2      	mov	sl, r6
10001de0:	46a9      	mov	r9, r5
10001de2:	46a0      	mov	r8, r4
10001de4:	bdf0      	pop	{r4, r5, r6, r7, pc}
10001de6:	3f01      	subs	r7, #1
10001de8:	2f00      	cmp	r7, #0
10001dea:	d001      	beq.n	10001df0 <check_sys_clock_khz+0x6c>
10001dec:	003c      	movs	r4, r7
10001dee:	e7d9      	b.n	10001da4 <check_sys_clock_khz+0x20>
10001df0:	2301      	movs	r3, #1
10001df2:	425b      	negs	r3, r3
10001df4:	469c      	mov	ip, r3
10001df6:	44e1      	add	r9, ip
10001df8:	464b      	mov	r3, r9
10001dfa:	2b0f      	cmp	r3, #15
10001dfc:	d909      	bls.n	10001e12 <check_sys_clock_khz+0x8e>
10001dfe:	4e07      	ldr	r6, [pc, #28]	@ (10001e1c <check_sys_clock_khz+0x98>)
10001e00:	464b      	mov	r3, r9
10001e02:	435e      	muls	r6, r3
10001e04:	4b06      	ldr	r3, [pc, #24]	@ (10001e20 <check_sys_clock_khz+0x9c>)
10001e06:	18f2      	adds	r2, r6, r3
10001e08:	4b06      	ldr	r3, [pc, #24]	@ (10001e24 <check_sys_clock_khz+0xa0>)
10001e0a:	429a      	cmp	r2, r3
10001e0c:	d8f0      	bhi.n	10001df0 <check_sys_clock_khz+0x6c>
10001e0e:	2707      	movs	r7, #7
10001e10:	e7ea      	b.n	10001de8 <check_sys_clock_khz+0x64>
10001e12:	2000      	movs	r0, #0
10001e14:	e7e0      	b.n	10001dd8 <check_sys_clock_khz+0x54>
10001e16:	46c0      	nop			@ (mov r8, r8)
10001e18:	00b71b00 	.word	0x00b71b00
10001e1c:	00002ee0 	.word	0x00002ee0
10001e20:	fff48e50 	.word	0xfff48e50
10001e24:	000cf850 	.word	0x000cf850

10001e28 <pll_init>:
10001e28:	b5f0      	push	{r4, r5, r6, r7, lr}
10001e2a:	46c6      	mov	lr, r8
10001e2c:	b500      	push	{lr}
10001e2e:	0004      	movs	r4, r0
10001e30:	000e      	movs	r6, r1
10001e32:	0017      	movs	r7, r2
10001e34:	001d      	movs	r5, r3
10001e36:	4837      	ldr	r0, [pc, #220]	@ (10001f14 <pll_init+0xec>)
10001e38:	f000 f9e0 	bl	100021fc <__wrap___aeabi_uidiv>
10001e3c:	4680      	mov	r8, r0
10001e3e:	4b36      	ldr	r3, [pc, #216]	@ (10001f18 <pll_init+0xf0>)
10001e40:	18fa      	adds	r2, r7, r3
10001e42:	4b36      	ldr	r3, [pc, #216]	@ (10001f1c <pll_init+0xf4>)
10001e44:	429a      	cmp	r2, r3
10001e46:	d839      	bhi.n	10001ebc <pll_init+0x94>
10001e48:	0001      	movs	r1, r0
10001e4a:	0038      	movs	r0, r7
10001e4c:	f000 f9d6 	bl	100021fc <__wrap___aeabi_uidiv>
10001e50:	0002      	movs	r2, r0
10001e52:	3a10      	subs	r2, #16
10001e54:	2398      	movs	r3, #152	@ 0x98
10001e56:	005b      	lsls	r3, r3, #1
10001e58:	429a      	cmp	r2, r3
10001e5a:	d835      	bhi.n	10001ec8 <pll_init+0xa0>
10001e5c:	1e6b      	subs	r3, r5, #1
10001e5e:	2b06      	cmp	r3, #6
10001e60:	d838      	bhi.n	10001ed4 <pll_init+0xac>
10001e62:	9b06      	ldr	r3, [sp, #24]
10001e64:	3b01      	subs	r3, #1
10001e66:	2b06      	cmp	r3, #6
10001e68:	d834      	bhi.n	10001ed4 <pll_init+0xac>
10001e6a:	093f      	lsrs	r7, r7, #4
10001e6c:	4547      	cmp	r7, r8
10001e6e:	d337      	bcc.n	10001ee0 <pll_init+0xb8>
10001e70:	042d      	lsls	r5, r5, #16
10001e72:	9b06      	ldr	r3, [sp, #24]
10001e74:	031b      	lsls	r3, r3, #12
10001e76:	431d      	orrs	r5, r3
10001e78:	6823      	ldr	r3, [r4, #0]
10001e7a:	2b00      	cmp	r3, #0
10001e7c:	db36      	blt.n	10001eec <pll_init+0xc4>
10001e7e:	4b28      	ldr	r3, [pc, #160]	@ (10001f20 <pll_init+0xf8>)
10001e80:	429c      	cmp	r4, r3
10001e82:	d044      	beq.n	10001f0e <pll_init+0xe6>
10001e84:	220c      	movs	r2, #12
10001e86:	2301      	movs	r3, #1
10001e88:	4093      	lsls	r3, r2
10001e8a:	4a26      	ldr	r2, [pc, #152]	@ (10001f24 <pll_init+0xfc>)
10001e8c:	6013      	str	r3, [r2, #0]
10001e8e:	4a26      	ldr	r2, [pc, #152]	@ (10001f28 <pll_init+0x100>)
10001e90:	6013      	str	r3, [r2, #0]
10001e92:	4a26      	ldr	r2, [pc, #152]	@ (10001f2c <pll_init+0x104>)
10001e94:	6812      	ldr	r2, [r2, #0]
10001e96:	0019      	movs	r1, r3
10001e98:	4391      	bics	r1, r2
10001e9a:	1e0a      	subs	r2, r1, #0
10001e9c:	d1f9      	bne.n	10001e92 <pll_init+0x6a>
10001e9e:	6026      	str	r6, [r4, #0]
10001ea0:	60a0      	str	r0, [r4, #8]
10001ea2:	4b23      	ldr	r3, [pc, #140]	@ (10001f30 <pll_init+0x108>)
10001ea4:	18e3      	adds	r3, r4, r3
10001ea6:	3221      	adds	r2, #33	@ 0x21
10001ea8:	601a      	str	r2, [r3, #0]
10001eaa:	6822      	ldr	r2, [r4, #0]
10001eac:	2a00      	cmp	r2, #0
10001eae:	dafc      	bge.n	10001eaa <pll_init+0x82>
10001eb0:	60e5      	str	r5, [r4, #12]
10001eb2:	2208      	movs	r2, #8
10001eb4:	601a      	str	r2, [r3, #0]
10001eb6:	bc80      	pop	{r7}
10001eb8:	46b8      	mov	r8, r7
10001eba:	bdf0      	pop	{r4, r5, r6, r7, pc}
10001ebc:	4b1d      	ldr	r3, [pc, #116]	@ (10001f34 <pll_init+0x10c>)
10001ebe:	4a1e      	ldr	r2, [pc, #120]	@ (10001f38 <pll_init+0x110>)
10001ec0:	481e      	ldr	r0, [pc, #120]	@ (10001f3c <pll_init+0x114>)
10001ec2:	2111      	movs	r1, #17
10001ec4:	f002 fa20 	bl	10004308 <__assert_func>
10001ec8:	4b1d      	ldr	r3, [pc, #116]	@ (10001f40 <pll_init+0x118>)
10001eca:	4a1b      	ldr	r2, [pc, #108]	@ (10001f38 <pll_init+0x110>)
10001ecc:	481b      	ldr	r0, [pc, #108]	@ (10001f3c <pll_init+0x114>)
10001ece:	2119      	movs	r1, #25
10001ed0:	f002 fa1a 	bl	10004308 <__assert_func>
10001ed4:	4b1b      	ldr	r3, [pc, #108]	@ (10001f44 <pll_init+0x11c>)
10001ed6:	4a18      	ldr	r2, [pc, #96]	@ (10001f38 <pll_init+0x110>)
10001ed8:	4818      	ldr	r0, [pc, #96]	@ (10001f3c <pll_init+0x114>)
10001eda:	211c      	movs	r1, #28
10001edc:	f002 fa14 	bl	10004308 <__assert_func>
10001ee0:	4b19      	ldr	r3, [pc, #100]	@ (10001f48 <pll_init+0x120>)
10001ee2:	4a15      	ldr	r2, [pc, #84]	@ (10001f38 <pll_init+0x110>)
10001ee4:	4815      	ldr	r0, [pc, #84]	@ (10001f3c <pll_init+0x114>)
10001ee6:	2123      	movs	r1, #35	@ 0x23
10001ee8:	f002 fa0e 	bl	10004308 <__assert_func>
10001eec:	6822      	ldr	r2, [r4, #0]
10001eee:	233f      	movs	r3, #63	@ 0x3f
10001ef0:	4013      	ands	r3, r2
10001ef2:	42b3      	cmp	r3, r6
10001ef4:	d1c3      	bne.n	10001e7e <pll_init+0x56>
10001ef6:	68a3      	ldr	r3, [r4, #8]
10001ef8:	051b      	lsls	r3, r3, #20
10001efa:	0d1b      	lsrs	r3, r3, #20
10001efc:	4283      	cmp	r3, r0
10001efe:	d1be      	bne.n	10001e7e <pll_init+0x56>
10001f00:	68e3      	ldr	r3, [r4, #12]
10001f02:	22ee      	movs	r2, #238	@ 0xee
10001f04:	02d2      	lsls	r2, r2, #11
10001f06:	4013      	ands	r3, r2
10001f08:	42ab      	cmp	r3, r5
10001f0a:	d1b8      	bne.n	10001e7e <pll_init+0x56>
10001f0c:	e7d3      	b.n	10001eb6 <pll_init+0x8e>
10001f0e:	220d      	movs	r2, #13
10001f10:	e7b9      	b.n	10001e86 <pll_init+0x5e>
10001f12:	46c0      	nop			@ (mov r8, r8)
10001f14:	00b71b00 	.word	0x00b71b00
10001f18:	d34be880 	.word	0xd34be880
10001f1c:	32a9f880 	.word	0x32a9f880
10001f20:	4002c000 	.word	0x4002c000
10001f24:	4000e000 	.word	0x4000e000
10001f28:	4000f000 	.word	0x4000f000
10001f2c:	4000c008 	.word	0x4000c008
10001f30:	00003004 	.word	0x00003004
10001f34:	1000f600 	.word	0x1000f600
10001f38:	100104b0 	.word	0x100104b0
10001f3c:	1000f650 	.word	0x1000f650
10001f40:	1000f698 	.word	0x1000f698
10001f44:	1000f6b4 	.word	0x1000f6b4
10001f48:	1000f700 	.word	0x1000f700

10001f4c <tick_start>:
10001f4c:	2380      	movs	r3, #128	@ 0x80
10001f4e:	009b      	lsls	r3, r3, #2
10001f50:	430b      	orrs	r3, r1
10001f52:	4a01      	ldr	r2, [pc, #4]	@ (10001f58 <tick_start+0xc>)
10001f54:	62d3      	str	r3, [r2, #44]	@ 0x2c
10001f56:	4770      	bx	lr
10001f58:	40058000 	.word	0x40058000

10001f5c <xosc_init>:
10001f5c:	4b06      	ldr	r3, [pc, #24]	@ (10001f78 <xosc_init+0x1c>)
10001f5e:	22aa      	movs	r2, #170	@ 0xaa
10001f60:	0112      	lsls	r2, r2, #4
10001f62:	601a      	str	r2, [r3, #0]
10001f64:	222f      	movs	r2, #47	@ 0x2f
10001f66:	60da      	str	r2, [r3, #12]
10001f68:	4b04      	ldr	r3, [pc, #16]	@ (10001f7c <xosc_init+0x20>)
10001f6a:	4a05      	ldr	r2, [pc, #20]	@ (10001f80 <xosc_init+0x24>)
10001f6c:	601a      	str	r2, [r3, #0]
10001f6e:	4b02      	ldr	r3, [pc, #8]	@ (10001f78 <xosc_init+0x1c>)
10001f70:	685b      	ldr	r3, [r3, #4]
10001f72:	2b00      	cmp	r3, #0
10001f74:	dafb      	bge.n	10001f6e <xosc_init+0x12>
10001f76:	4770      	bx	lr
10001f78:	40024000 	.word	0x40024000
10001f7c:	40026000 	.word	0x40026000
10001f80:	00fab000 	.word	0x00fab000

10001f84 <runtime_run_initializers_from>:
10001f84:	b510      	push	{r4, lr}
10001f86:	0004      	movs	r4, r0
10001f88:	e001      	b.n	10001f8e <runtime_run_initializers_from+0xa>
10001f8a:	cc08      	ldmia	r4!, {r3}
10001f8c:	4798      	blx	r3
10001f8e:	4b02      	ldr	r3, [pc, #8]	@ (10001f98 <runtime_run_initializers_from+0x14>)
10001f90:	429c      	cmp	r4, r3
10001f92:	d3fa      	bcc.n	10001f8a <runtime_run_initializers_from+0x6>
10001f94:	bd10      	pop	{r4, pc}
10001f96:	46c0      	nop			@ (mov r8, r8)
10001f98:	1000f22c 	.word	0x1000f22c

10001f9c <first_per_core_initializer>:
10001f9c:	4770      	bx	lr
	...

10001fa0 <runtime_run_initializers>:
10001fa0:	b510      	push	{r4, lr}
10001fa2:	4802      	ldr	r0, [pc, #8]	@ (10001fac <runtime_run_initializers+0xc>)
10001fa4:	f7ff ffee 	bl	10001f84 <runtime_run_initializers_from>
10001fa8:	bd10      	pop	{r4, pc}
10001faa:	46c0      	nop			@ (mov r8, r8)
10001fac:	1000f1f0 	.word	0x1000f1f0

10001fb0 <runtime_init_early_resets>:
10001fb0:	4b05      	ldr	r3, [pc, #20]	@ (10001fc8 <runtime_init_early_resets+0x18>)
10001fb2:	4a06      	ldr	r2, [pc, #24]	@ (10001fcc <runtime_init_early_resets+0x1c>)
10001fb4:	601a      	str	r2, [r3, #0]
10001fb6:	4b06      	ldr	r3, [pc, #24]	@ (10001fd0 <runtime_init_early_resets+0x20>)
10001fb8:	4a06      	ldr	r2, [pc, #24]	@ (10001fd4 <runtime_init_early_resets+0x24>)
10001fba:	601a      	str	r2, [r3, #0]
10001fbc:	4b06      	ldr	r3, [pc, #24]	@ (10001fd8 <runtime_init_early_resets+0x28>)
10001fbe:	681a      	ldr	r2, [r3, #0]
10001fc0:	4b04      	ldr	r3, [pc, #16]	@ (10001fd4 <runtime_init_early_resets+0x24>)
10001fc2:	4393      	bics	r3, r2
10001fc4:	d1fa      	bne.n	10001fbc <runtime_init_early_resets+0xc>
10001fc6:	4770      	bx	lr
10001fc8:	4000e000 	.word	0x4000e000
10001fcc:	fefbcdbf 	.word	0xfefbcdbf
10001fd0:	4000f000 	.word	0x4000f000
10001fd4:	003c7ffe 	.word	0x003c7ffe
10001fd8:	4000c008 	.word	0x4000c008

10001fdc <runtime_init_usb_power_down>:
10001fdc:	4b04      	ldr	r3, [pc, #16]	@ (10001ff0 <runtime_init_usb_power_down+0x14>)
10001fde:	6cdb      	ldr	r3, [r3, #76]	@ 0x4c
10001fe0:	2b00      	cmp	r3, #0
10001fe2:	d103      	bne.n	10001fec <runtime_init_usb_power_down+0x10>
10001fe4:	4b03      	ldr	r3, [pc, #12]	@ (10001ff4 <runtime_init_usb_power_down+0x18>)
10001fe6:	2280      	movs	r2, #128	@ 0x80
10001fe8:	02d2      	lsls	r2, r2, #11
10001fea:	601a      	str	r2, [r3, #0]
10001fec:	4770      	bx	lr
10001fee:	46c0      	nop			@ (mov r8, r8)
10001ff0:	50110000 	.word	0x50110000
10001ff4:	5011204c 	.word	0x5011204c

10001ff8 <runtime_init_post_clock_resets>:
10001ff8:	4b04      	ldr	r3, [pc, #16]	@ (1000200c <runtime_init_post_clock_resets+0x14>)
10001ffa:	4a05      	ldr	r2, [pc, #20]	@ (10002010 <runtime_init_post_clock_resets+0x18>)
10001ffc:	601a      	str	r2, [r3, #0]
10001ffe:	4b05      	ldr	r3, [pc, #20]	@ (10002014 <runtime_init_post_clock_resets+0x1c>)
10002000:	681b      	ldr	r3, [r3, #0]
10002002:	43db      	mvns	r3, r3
10002004:	01db      	lsls	r3, r3, #7
10002006:	d1fa      	bne.n	10001ffe <runtime_init_post_clock_resets+0x6>
10002008:	4770      	bx	lr
1000200a:	46c0      	nop			@ (mov r8, r8)
1000200c:	4000f000 	.word	0x4000f000
10002010:	01ffffff 	.word	0x01ffffff
10002014:	4000c008 	.word	0x4000c008

10002018 <runtime_init_rp2040_gpio_ie_disable>:
10002018:	4b03      	ldr	r3, [pc, #12]	@ (10002028 <runtime_init_rp2040_gpio_ie_disable+0x10>)
1000201a:	2240      	movs	r2, #64	@ 0x40
1000201c:	679a      	str	r2, [r3, #120]	@ 0x78
1000201e:	675a      	str	r2, [r3, #116]	@ 0x74
10002020:	671a      	str	r2, [r3, #112]	@ 0x70
10002022:	66da      	str	r2, [r3, #108]	@ 0x6c
10002024:	4770      	bx	lr
10002026:	46c0      	nop			@ (mov r8, r8)
10002028:	4001f000 	.word	0x4001f000

1000202c <runtime_init_spin_locks_reset>:
1000202c:	b510      	push	{r4, lr}
1000202e:	f7fe fea9 	bl	10000d84 <spin_locks_reset>
10002032:	bd10      	pop	{r4, pc}

10002034 <runtime_init_install_ram_vector_table>:
10002034:	b570      	push	{r4, r5, r6, lr}
10002036:	4d04      	ldr	r5, [pc, #16]	@ (10002048 <runtime_init_install_ram_vector_table+0x14>)
10002038:	68a9      	ldr	r1, [r5, #8]
1000203a:	4c04      	ldr	r4, [pc, #16]	@ (1000204c <runtime_init_install_ram_vector_table+0x18>)
1000203c:	22c0      	movs	r2, #192	@ 0xc0
1000203e:	0020      	movs	r0, r4
10002040:	f001 f800 	bl	10003044 <__wrap___aeabi_memcpy>
10002044:	60ac      	str	r4, [r5, #8]
10002046:	bd70      	pop	{r4, r5, r6, pc}
10002048:	e000ed00 	.word	0xe000ed00
1000204c:	20000000 	.word	0x20000000

10002050 <start_all_ticks>:
10002050:	b570      	push	{r4, r5, r6, lr}
10002052:	2004      	movs	r0, #4
10002054:	f7ff fe5c 	bl	10001d10 <clock_get_hz>
10002058:	4906      	ldr	r1, [pc, #24]	@ (10002074 <start_all_ticks+0x24>)
1000205a:	f000 f8cf 	bl	100021fc <__wrap___aeabi_uidiv>
1000205e:	0005      	movs	r5, r0
10002060:	2400      	movs	r4, #0
10002062:	2c00      	cmp	r4, #0
10002064:	dd00      	ble.n	10002068 <start_all_ticks+0x18>
10002066:	bd70      	pop	{r4, r5, r6, pc}
10002068:	b2e0      	uxtb	r0, r4
1000206a:	0029      	movs	r1, r5
1000206c:	f7ff ff6e 	bl	10001f4c <tick_start>
10002070:	3401      	adds	r4, #1
10002072:	e7f6      	b.n	10002062 <start_all_ticks+0x12>
10002074:	000f4240 	.word	0x000f4240

10002078 <runtime_init_clocks>:
10002078:	b530      	push	{r4, r5, lr}
1000207a:	b083      	sub	sp, #12
1000207c:	4b27      	ldr	r3, [pc, #156]	@ (1000211c <runtime_init_clocks+0xa4>)
1000207e:	2200      	movs	r2, #0
10002080:	679a      	str	r2, [r3, #120]	@ 0x78
10002082:	f7ff ff6b 	bl	10001f5c <xosc_init>
10002086:	4b26      	ldr	r3, [pc, #152]	@ (10002120 <runtime_init_clocks+0xa8>)
10002088:	2201      	movs	r2, #1
1000208a:	601a      	str	r2, [r3, #0]
1000208c:	4b23      	ldr	r3, [pc, #140]	@ (1000211c <runtime_init_clocks+0xa4>)
1000208e:	6c5b      	ldr	r3, [r3, #68]	@ 0x44
10002090:	2b01      	cmp	r3, #1
10002092:	d1fb      	bne.n	1000208c <runtime_init_clocks+0x14>
10002094:	4b23      	ldr	r3, [pc, #140]	@ (10002124 <runtime_init_clocks+0xac>)
10002096:	2203      	movs	r2, #3
10002098:	601a      	str	r2, [r3, #0]
1000209a:	4b20      	ldr	r3, [pc, #128]	@ (1000211c <runtime_init_clocks+0xa4>)
1000209c:	6b9b      	ldr	r3, [r3, #56]	@ 0x38
1000209e:	2b01      	cmp	r3, #1
100020a0:	d1fb      	bne.n	1000209a <runtime_init_clocks+0x22>
100020a2:	3301      	adds	r3, #1
100020a4:	9300      	str	r3, [sp, #0]
100020a6:	3304      	adds	r3, #4
100020a8:	4a1f      	ldr	r2, [pc, #124]	@ (10002128 <runtime_init_clocks+0xb0>)
100020aa:	2101      	movs	r1, #1
100020ac:	481f      	ldr	r0, [pc, #124]	@ (1000212c <runtime_init_clocks+0xb4>)
100020ae:	f7ff febb 	bl	10001e28 <pll_init>
100020b2:	2305      	movs	r3, #5
100020b4:	9300      	str	r3, [sp, #0]
100020b6:	4a1e      	ldr	r2, [pc, #120]	@ (10002130 <runtime_init_clocks+0xb8>)
100020b8:	2101      	movs	r1, #1
100020ba:	481e      	ldr	r0, [pc, #120]	@ (10002134 <runtime_init_clocks+0xbc>)
100020bc:	f7ff feb4 	bl	10001e28 <pll_init>
100020c0:	4b1d      	ldr	r3, [pc, #116]	@ (10002138 <runtime_init_clocks+0xc0>)
100020c2:	2200      	movs	r2, #0
100020c4:	2102      	movs	r1, #2
100020c6:	2004      	movs	r0, #4
100020c8:	f7ff fe18 	bl	10001cfc <clock_configure_undivided>
100020cc:	4d1b      	ldr	r5, [pc, #108]	@ (1000213c <runtime_init_clocks+0xc4>)
100020ce:	002b      	movs	r3, r5
100020d0:	2200      	movs	r2, #0
100020d2:	2101      	movs	r1, #1
100020d4:	2005      	movs	r0, #5
100020d6:	f7ff fe11 	bl	10001cfc <clock_configure_undivided>
100020da:	4c19      	ldr	r4, [pc, #100]	@ (10002140 <runtime_init_clocks+0xc8>)
100020dc:	0023      	movs	r3, r4
100020de:	2200      	movs	r2, #0
100020e0:	2100      	movs	r1, #0
100020e2:	2007      	movs	r0, #7
100020e4:	f7ff fe0a 	bl	10001cfc <clock_configure_undivided>
100020e8:	0023      	movs	r3, r4
100020ea:	2200      	movs	r2, #0
100020ec:	2100      	movs	r1, #0
100020ee:	2008      	movs	r0, #8
100020f0:	f7ff fe04 	bl	10001cfc <clock_configure_undivided>
100020f4:	2380      	movs	r3, #128	@ 0x80
100020f6:	00db      	lsls	r3, r3, #3
100020f8:	9300      	str	r3, [sp, #0]
100020fa:	0023      	movs	r3, r4
100020fc:	2200      	movs	r2, #0
100020fe:	2100      	movs	r1, #0
10002100:	2009      	movs	r0, #9
10002102:	f7ff fde7 	bl	10001cd4 <clock_configure_int_divider>
10002106:	002b      	movs	r3, r5
10002108:	2200      	movs	r2, #0
1000210a:	2100      	movs	r1, #0
1000210c:	2006      	movs	r0, #6
1000210e:	f7ff fdf5 	bl	10001cfc <clock_configure_undivided>
10002112:	f7ff ff9d 	bl	10002050 <start_all_ticks>
10002116:	b003      	add	sp, #12
10002118:	bd30      	pop	{r4, r5, pc}
1000211a:	46c0      	nop			@ (mov r8, r8)
1000211c:	40008000 	.word	0x40008000
10002120:	4000b03c 	.word	0x4000b03c
10002124:	4000b030 	.word	0x4000b030
10002128:	59682f00 	.word	0x59682f00
1000212c:	40028000 	.word	0x40028000
10002130:	47868c00 	.word	0x47868c00
10002134:	4002c000 	.word	0x4002c000
10002138:	00b71b00 	.word	0x00b71b00
1000213c:	07735940 	.word	0x07735940
10002140:	02dc6c00 	.word	0x02dc6c00

10002144 <__aeabi_bits_init>:
10002144:	4801      	ldr	r0, [pc, #4]	@ (1000214c <__aeabi_bits_init+0x8>)
10002146:	2104      	movs	r1, #4
10002148:	4b01      	ldr	r3, [pc, #4]	@ (10002150 <__aeabi_bits_init+0xc>)
1000214a:	4718      	bx	r3
1000214c:	20001260 	.word	0x20001260
10002150:	10002175 	.word	0x10002175

10002154 <rom_func_lookup>:
10002154:	b510      	push	{r4, lr}
10002156:	0001      	movs	r1, r0
10002158:	2318      	movs	r3, #24
1000215a:	881b      	ldrh	r3, [r3, #0]
1000215c:	2214      	movs	r2, #20
1000215e:	8810      	ldrh	r0, [r2, #0]
10002160:	4798      	blx	r3
10002162:	bd10      	pop	{r4, pc}

10002164 <rom_data_lookup>:
10002164:	b510      	push	{r4, lr}
10002166:	0001      	movs	r1, r0
10002168:	2318      	movs	r3, #24
1000216a:	881b      	ldrh	r3, [r3, #0]
1000216c:	2216      	movs	r2, #22
1000216e:	8810      	ldrh	r0, [r2, #0]
10002170:	4798      	blx	r3
10002172:	bd10      	pop	{r4, pc}

10002174 <rom_funcs_lookup>:
10002174:	b5f0      	push	{r4, r5, r6, r7, lr}
10002176:	46c6      	mov	lr, r8
10002178:	b500      	push	{lr}
1000217a:	0007      	movs	r7, r0
1000217c:	000e      	movs	r6, r1
1000217e:	2500      	movs	r5, #0
10002180:	2301      	movs	r3, #1
10002182:	4698      	mov	r8, r3
10002184:	e000      	b.n	10002188 <rom_funcs_lookup+0x14>
10002186:	3501      	adds	r5, #1
10002188:	42b5      	cmp	r5, r6
1000218a:	d20a      	bcs.n	100021a2 <rom_funcs_lookup+0x2e>
1000218c:	00ac      	lsls	r4, r5, #2
1000218e:	193c      	adds	r4, r7, r4
10002190:	6820      	ldr	r0, [r4, #0]
10002192:	f7ff ffdf 	bl	10002154 <rom_func_lookup>
10002196:	6020      	str	r0, [r4, #0]
10002198:	2800      	cmp	r0, #0
1000219a:	d1f4      	bne.n	10002186 <rom_funcs_lookup+0x12>
1000219c:	2300      	movs	r3, #0
1000219e:	4698      	mov	r8, r3
100021a0:	e7f1      	b.n	10002186 <rom_funcs_lookup+0x12>
100021a2:	4640      	mov	r0, r8
100021a4:	bc80      	pop	{r7}
100021a6:	46b8      	mov	r8, r7
100021a8:	bdf0      	pop	{r4, r5, r6, r7, pc}
	...

100021ac <__wrap___aeabi_idiv>:
100021ac:	4a12      	ldr	r2, [pc, #72]	@ (100021f8 <divmod_s32s32_savestate+0x18>)
100021ae:	6f93      	ldr	r3, [r2, #120]	@ 0x78
100021b0:	089b      	lsrs	r3, r3, #2
100021b2:	d215      	bcs.n	100021e0 <divmod_s32s32_savestate>

100021b4 <divmod_s32s32_unsafe>:
100021b4:	6690      	str	r0, [r2, #104]	@ 0x68
100021b6:	66d1      	str	r1, [r2, #108]	@ 0x6c
100021b8:	2900      	cmp	r1, #0
100021ba:	d005      	beq.n	100021c8 <divmod_s32s32_unsafe+0x14>
100021bc:	e7ff      	b.n	100021be <divmod_s32s32_unsafe+0xa>
100021be:	e7ff      	b.n	100021c0 <divmod_s32s32_unsafe+0xc>
100021c0:	e7ff      	b.n	100021c2 <divmod_s32s32_unsafe+0xe>
100021c2:	6f51      	ldr	r1, [r2, #116]	@ 0x74
100021c4:	6f10      	ldr	r0, [r2, #112]	@ 0x70
100021c6:	4770      	bx	lr
100021c8:	b504      	push	{r2, lr}
100021ca:	2180      	movs	r1, #128	@ 0x80
100021cc:	0609      	lsls	r1, r1, #24
100021ce:	17c2      	asrs	r2, r0, #31
100021d0:	4051      	eors	r1, r2
100021d2:	2800      	cmp	r0, #0
100021d4:	d000      	beq.n	100021d8 <divmod_s32s32_unsafe+0x24>
100021d6:	43c8      	mvns	r0, r1
100021d8:	f00c ffc2 	bl	1000f160 <____aeabi_idiv0_veneer>
100021dc:	2100      	movs	r1, #0
100021de:	bd04      	pop	{r2, pc}

100021e0 <divmod_s32s32_savestate>:
100021e0:	b5f0      	push	{r4, r5, r6, r7, lr}
100021e2:	6e14      	ldr	r4, [r2, #96]	@ 0x60
100021e4:	6e55      	ldr	r5, [r2, #100]	@ 0x64
100021e6:	6f57      	ldr	r7, [r2, #116]	@ 0x74
100021e8:	6f16      	ldr	r6, [r2, #112]	@ 0x70
100021ea:	f7ff ffe3 	bl	100021b4 <divmod_s32s32_unsafe>
100021ee:	6614      	str	r4, [r2, #96]	@ 0x60
100021f0:	6655      	str	r5, [r2, #100]	@ 0x64
100021f2:	6757      	str	r7, [r2, #116]	@ 0x74
100021f4:	6716      	str	r6, [r2, #112]	@ 0x70
100021f6:	bdf0      	pop	{r4, r5, r6, r7, pc}
100021f8:	d0000000 	.word	0xd0000000

100021fc <__wrap___aeabi_uidiv>:
100021fc:	4a11      	ldr	r2, [pc, #68]	@ (10002244 <divmod_u32u32_savestate+0x18>)
100021fe:	6f93      	ldr	r3, [r2, #120]	@ 0x78
10002200:	089b      	lsrs	r3, r3, #2
10002202:	d213      	bcs.n	1000222c <divmod_u32u32_savestate>

10002204 <divmod_u32u32_unsafe>:
10002204:	6610      	str	r0, [r2, #96]	@ 0x60
10002206:	6651      	str	r1, [r2, #100]	@ 0x64
10002208:	2900      	cmp	r1, #0
1000220a:	d005      	beq.n	10002218 <divmod_u32u32_unsafe+0x14>
1000220c:	e7ff      	b.n	1000220e <divmod_u32u32_unsafe+0xa>
1000220e:	e7ff      	b.n	10002210 <divmod_u32u32_unsafe+0xc>
10002210:	e7ff      	b.n	10002212 <divmod_u32u32_unsafe+0xe>
10002212:	6f51      	ldr	r1, [r2, #116]	@ 0x74
10002214:	6f10      	ldr	r0, [r2, #112]	@ 0x70
10002216:	4770      	bx	lr
10002218:	b504      	push	{r2, lr}
1000221a:	2800      	cmp	r0, #0
1000221c:	d001      	beq.n	10002222 <divmod_u32u32_unsafe+0x1e>
1000221e:	2000      	movs	r0, #0
10002220:	43c0      	mvns	r0, r0
10002222:	f00c ff9d 	bl	1000f160 <____aeabi_idiv0_veneer>
10002226:	2100      	movs	r1, #0
10002228:	bd04      	pop	{r2, pc}
1000222a:	46c0      	nop			@ (mov r8, r8)

1000222c <divmod_u32u32_savestate>:
1000222c:	b5f0      	push	{r4, r5, r6, r7, lr}
1000222e:	6e14      	ldr	r4, [r2, #96]	@ 0x60
10002230:	6e55      	ldr	r5, [r2, #100]	@ 0x64
10002232:	6f57      	ldr	r7, [r2, #116]	@ 0x74
10002234:	6f16      	ldr	r6, [r2, #112]	@ 0x70
10002236:	f7ff ffe5 	bl	10002204 <divmod_u32u32_unsafe>
1000223a:	6614      	str	r4, [r2, #96]	@ 0x60
1000223c:	6655      	str	r5, [r2, #100]	@ 0x64
1000223e:	6757      	str	r7, [r2, #116]	@ 0x74
10002240:	6716      	str	r6, [r2, #112]	@ 0x70
10002242:	bdf0      	pop	{r4, r5, r6, r7, pc}
10002244:	d0000000 	.word	0xd0000000

10002248 <__wrap___aeabi_ldivmod>:
10002248:	4694      	mov	ip, r2
1000224a:	4a4a      	ldr	r2, [pc, #296]	@ (10002374 <udiv0+0x1a>)
1000224c:	6f92      	ldr	r2, [r2, #120]	@ 0x78
1000224e:	0892      	lsrs	r2, r2, #2
10002250:	4662      	mov	r2, ip
10002252:	d201      	bcs.n	10002258 <divmod_s64s64_savestate>
10002254:	e028      	b.n	100022a8 <divmod_s64s64_unsafe>
10002256:	46c0      	nop			@ (mov r8, r8)

10002258 <divmod_s64s64_savestate>:
10002258:	b5f0      	push	{r4, r5, r6, r7, lr}
1000225a:	4e46      	ldr	r6, [pc, #280]	@ (10002374 <udiv0+0x1a>)
1000225c:	6e34      	ldr	r4, [r6, #96]	@ 0x60
1000225e:	6e75      	ldr	r5, [r6, #100]	@ 0x64
10002260:	6f77      	ldr	r7, [r6, #116]	@ 0x74
10002262:	6f36      	ldr	r6, [r6, #112]	@ 0x70
10002264:	f000 f820 	bl	100022a8 <divmod_s64s64_unsafe>
10002268:	4694      	mov	ip, r2
1000226a:	4a42      	ldr	r2, [pc, #264]	@ (10002374 <udiv0+0x1a>)
1000226c:	6614      	str	r4, [r2, #96]	@ 0x60
1000226e:	6655      	str	r5, [r2, #100]	@ 0x64
10002270:	6757      	str	r7, [r2, #116]	@ 0x74
10002272:	6716      	str	r6, [r2, #112]	@ 0x70
10002274:	4662      	mov	r2, ip
10002276:	bdf0      	pop	{r4, r5, r6, r7, pc}

10002278 <__wrap___aeabi_uldivmod>:
10002278:	4694      	mov	ip, r2
1000227a:	4a3e      	ldr	r2, [pc, #248]	@ (10002374 <udiv0+0x1a>)
1000227c:	6f92      	ldr	r2, [r2, #120]	@ 0x78
1000227e:	0892      	lsrs	r2, r2, #2
10002280:	4662      	mov	r2, ip
10002282:	d201      	bcs.n	10002288 <divmod_u64u64_savestate>
10002284:	e054      	b.n	10002330 <divmod_u64u64_unsafe>
10002286:	46c0      	nop			@ (mov r8, r8)

10002288 <divmod_u64u64_savestate>:
10002288:	b5f0      	push	{r4, r5, r6, r7, lr}
1000228a:	4e3a      	ldr	r6, [pc, #232]	@ (10002374 <udiv0+0x1a>)
1000228c:	6e34      	ldr	r4, [r6, #96]	@ 0x60
1000228e:	6e75      	ldr	r5, [r6, #100]	@ 0x64
10002290:	6f77      	ldr	r7, [r6, #116]	@ 0x74
10002292:	6f36      	ldr	r6, [r6, #112]	@ 0x70
10002294:	f000 f84c 	bl	10002330 <divmod_u64u64_unsafe>
10002298:	4694      	mov	ip, r2
1000229a:	4a36      	ldr	r2, [pc, #216]	@ (10002374 <udiv0+0x1a>)
1000229c:	6614      	str	r4, [r2, #96]	@ 0x60
1000229e:	6655      	str	r5, [r2, #100]	@ 0x64
100022a0:	6757      	str	r7, [r2, #116]	@ 0x74
100022a2:	6716      	str	r6, [r2, #112]	@ 0x70
100022a4:	4662      	mov	r2, ip
100022a6:	bdf0      	pop	{r4, r5, r6, r7, pc}

100022a8 <divmod_s64s64_unsafe>:
100022a8:	2b00      	cmp	r3, #0
100022aa:	db24      	blt.n	100022f6 <l42_1+0x26>
100022ac:	d011      	beq.n	100022d2 <l42_1+0x2>
100022ae:	2900      	cmp	r1, #0
100022b0:	da3e      	bge.n	10002330 <divmod_u64u64_unsafe>
100022b2:	b500      	push	{lr}
100022b4:	43c9      	mvns	r1, r1
100022b6:	4240      	negs	r0, r0
100022b8:	d100      	bne.n	100022bc <l40_1>
100022ba:	3101      	adds	r1, #1

100022bc <l40_1>:
100022bc:	f000 f838 	bl	10002330 <divmod_u64u64_unsafe>
100022c0:	43c9      	mvns	r1, r1
100022c2:	4240      	negs	r0, r0
100022c4:	d100      	bne.n	100022c8 <l41_1>
100022c6:	3101      	adds	r1, #1

100022c8 <l41_1>:
100022c8:	43db      	mvns	r3, r3
100022ca:	4252      	negs	r2, r2
100022cc:	d100      	bne.n	100022d0 <l42_1>
100022ce:	3301      	adds	r3, #1

100022d0 <l42_1>:
100022d0:	bd00      	pop	{pc}
100022d2:	2a00      	cmp	r2, #0
100022d4:	d1eb      	bne.n	100022ae <divmod_s64s64_unsafe+0x6>
100022d6:	2800      	cmp	r0, #0
100022d8:	d101      	bne.n	100022de <l42_1+0xe>
100022da:	2900      	cmp	r1, #0
100022dc:	d005      	beq.n	100022ea <l42_1+0x1a>
100022de:	2000      	movs	r0, #0
100022e0:	0fc9      	lsrs	r1, r1, #31
100022e2:	07c9      	lsls	r1, r1, #31
100022e4:	d101      	bne.n	100022ea <l42_1+0x1a>
100022e6:	43c0      	mvns	r0, r0
100022e8:	0841      	lsrs	r1, r0, #1
100022ea:	b500      	push	{lr}
100022ec:	f00c ff10 	bl	1000f110 <____aeabi_ldiv0_veneer>
100022f0:	2200      	movs	r2, #0
100022f2:	2300      	movs	r3, #0
100022f4:	bd00      	pop	{pc}
100022f6:	b500      	push	{lr}
100022f8:	2900      	cmp	r1, #0
100022fa:	db0a      	blt.n	10002312 <l44_1+0x2>
100022fc:	43db      	mvns	r3, r3
100022fe:	4252      	negs	r2, r2
10002300:	d100      	bne.n	10002304 <l43_1>
10002302:	3301      	adds	r3, #1

10002304 <l43_1>:
10002304:	f000 f814 	bl	10002330 <divmod_u64u64_unsafe>
10002308:	43c9      	mvns	r1, r1
1000230a:	4240      	negs	r0, r0
1000230c:	d100      	bne.n	10002310 <l44_1>
1000230e:	3101      	adds	r1, #1

10002310 <l44_1>:
10002310:	bd00      	pop	{pc}
10002312:	43c9      	mvns	r1, r1
10002314:	4240      	negs	r0, r0
10002316:	d100      	bne.n	1000231a <l45_1>
10002318:	3101      	adds	r1, #1

1000231a <l45_1>:
1000231a:	43db      	mvns	r3, r3
1000231c:	4252      	negs	r2, r2
1000231e:	d100      	bne.n	10002322 <l46_1>
10002320:	3301      	adds	r3, #1

10002322 <l46_1>:
10002322:	f000 f805 	bl	10002330 <divmod_u64u64_unsafe>
10002326:	43db      	mvns	r3, r3
10002328:	4252      	negs	r2, r2
1000232a:	d100      	bne.n	1000232e <l47_1>
1000232c:	3301      	adds	r3, #1

1000232e <l47_1>:
1000232e:	bd00      	pop	{pc}

10002330 <divmod_u64u64_unsafe>:
10002330:	2900      	cmp	r1, #0
10002332:	d123      	bne.n	1000237c <y64>
10002334:	2b00      	cmp	r3, #0
10002336:	d118      	bne.n	1000236a <udiv0+0x10>
10002338:	2a00      	cmp	r2, #0
1000233a:	d00c      	beq.n	10002356 <divmod_u64u64_unsafe+0x26>
1000233c:	46bc      	mov	ip, r7
1000233e:	4f0d      	ldr	r7, [pc, #52]	@ (10002374 <udiv0+0x1a>)
10002340:	6638      	str	r0, [r7, #96]	@ 0x60
10002342:	667a      	str	r2, [r7, #100]	@ 0x64
10002344:	2100      	movs	r1, #0
10002346:	2300      	movs	r3, #0
10002348:	e7ff      	b.n	1000234a <divmod_u64u64_unsafe+0x1a>
1000234a:	e7ff      	b.n	1000234c <divmod_u64u64_unsafe+0x1c>
1000234c:	e7ff      	b.n	1000234e <divmod_u64u64_unsafe+0x1e>
1000234e:	6f7a      	ldr	r2, [r7, #116]	@ 0x74
10002350:	6f38      	ldr	r0, [r7, #112]	@ 0x70
10002352:	4667      	mov	r7, ip
10002354:	4770      	bx	lr
10002356:	2800      	cmp	r0, #0
10002358:	d001      	beq.n	1000235e <udiv0+0x4>

1000235a <udiv0>:
1000235a:	4807      	ldr	r0, [pc, #28]	@ (10002378 <udiv0+0x1e>)
1000235c:	0001      	movs	r1, r0
1000235e:	b500      	push	{lr}
10002360:	f00c fed6 	bl	1000f110 <____aeabi_ldiv0_veneer>
10002364:	2200      	movs	r2, #0
10002366:	2300      	movs	r3, #0
10002368:	bd00      	pop	{pc}
1000236a:	0002      	movs	r2, r0
1000236c:	000b      	movs	r3, r1
1000236e:	2000      	movs	r0, #0
10002370:	2100      	movs	r1, #0
10002372:	4770      	bx	lr
10002374:	d0000000 	.word	0xd0000000
10002378:	ffffffff 	.word	0xffffffff

1000237c <y64>:
1000237c:	2b00      	cmp	r3, #0
1000237e:	d000      	beq.n	10002382 <y64+0x6>
10002380:	e0bf      	b.n	10002502 <y64_x48>
10002382:	0c13      	lsrs	r3, r2, #16
10002384:	d128      	bne.n	100023d8 <y64_x32>
10002386:	2a00      	cmp	r2, #0
10002388:	d0e7      	beq.n	1000235a <udiv0>
1000238a:	b480      	push	{r7}
1000238c:	4f11      	ldr	r7, [pc, #68]	@ (100023d4 <y64+0x58>)
1000238e:	6639      	str	r1, [r7, #96]	@ 0x60
10002390:	667a      	str	r2, [r7, #100]	@ 0x64
10002392:	e7ff      	b.n	10002394 <y64+0x18>
10002394:	e7ff      	b.n	10002396 <y64+0x1a>
10002396:	b430      	push	{r4, r5}
10002398:	0c04      	lsrs	r4, r0, #16
1000239a:	6f7b      	ldr	r3, [r7, #116]	@ 0x74
1000239c:	6f39      	ldr	r1, [r7, #112]	@ 0x70
1000239e:	041b      	lsls	r3, r3, #16
100023a0:	4323      	orrs	r3, r4
100023a2:	663b      	str	r3, [r7, #96]	@ 0x60
100023a4:	667a      	str	r2, [r7, #100]	@ 0x64
100023a6:	e7ff      	b.n	100023a8 <y64+0x2c>
100023a8:	e7ff      	b.n	100023aa <y64+0x2e>
100023aa:	e7ff      	b.n	100023ac <y64+0x30>
100023ac:	46c0      	nop			@ (mov r8, r8)
100023ae:	b284      	uxth	r4, r0
100023b0:	6f7b      	ldr	r3, [r7, #116]	@ 0x74
100023b2:	6f3d      	ldr	r5, [r7, #112]	@ 0x70
100023b4:	041b      	lsls	r3, r3, #16
100023b6:	4323      	orrs	r3, r4
100023b8:	663b      	str	r3, [r7, #96]	@ 0x60
100023ba:	667a      	str	r2, [r7, #100]	@ 0x64
100023bc:	e7ff      	b.n	100023be <y64+0x42>
100023be:	e7ff      	b.n	100023c0 <y64+0x44>
100023c0:	46c0      	nop			@ (mov r8, r8)
100023c2:	2300      	movs	r3, #0
100023c4:	042c      	lsls	r4, r5, #16
100023c6:	0c2d      	lsrs	r5, r5, #16
100023c8:	6f7a      	ldr	r2, [r7, #116]	@ 0x74
100023ca:	6f38      	ldr	r0, [r7, #112]	@ 0x70
100023cc:	1900      	adds	r0, r0, r4
100023ce:	4169      	adcs	r1, r5
100023d0:	bcb0      	pop	{r4, r5, r7}
100023d2:	4770      	bx	lr
100023d4:	d0000000 	.word	0xd0000000

100023d8 <y64_x32>:
100023d8:	b5f0      	push	{r4, r5, r6, r7, lr}
100023da:	4694      	mov	ip, r2
100023dc:	2500      	movs	r5, #0
100023de:	0e14      	lsrs	r4, r2, #24
100023e0:	d101      	bne.n	100023e6 <y64_x32+0xe>
100023e2:	0212      	lsls	r2, r2, #8
100023e4:	3508      	adds	r5, #8
100023e6:	0f14      	lsrs	r4, r2, #28
100023e8:	d101      	bne.n	100023ee <y64_x32+0x16>
100023ea:	0112      	lsls	r2, r2, #4
100023ec:	3504      	adds	r5, #4
100023ee:	0f94      	lsrs	r4, r2, #30
100023f0:	d101      	bne.n	100023f6 <y64_x32+0x1e>
100023f2:	0092      	lsls	r2, r2, #2
100023f4:	3502      	adds	r5, #2
100023f6:	0fd4      	lsrs	r4, r2, #31
100023f8:	d101      	bne.n	100023fe <y64_x32+0x26>
100023fa:	0052      	lsls	r2, r2, #1
100023fc:	3501      	adds	r5, #1
100023fe:	0bd4      	lsrs	r4, r2, #15
10002400:	3401      	adds	r4, #1
10002402:	4f25      	ldr	r7, [pc, #148]	@ (10002498 <y64_x32+0xc0>)
10002404:	667c      	str	r4, [r7, #100]	@ 0x64
10002406:	4c25      	ldr	r4, [pc, #148]	@ (1000249c <y64_x32+0xc4>)
10002408:	663c      	str	r4, [r7, #96]	@ 0x60
1000240a:	0c0e      	lsrs	r6, r1, #16
1000240c:	b293      	uxth	r3, r2
1000240e:	e7ff      	b.n	10002410 <y64_x32+0x38>
10002410:	e7ff      	b.n	10002412 <y64_x32+0x3a>
10002412:	e7ff      	b.n	10002414 <y64_x32+0x3c>
10002414:	6f3c      	ldr	r4, [r7, #112]	@ 0x70
10002416:	4366      	muls	r6, r4
10002418:	0c36      	lsrs	r6, r6, #16
1000241a:	0377      	lsls	r7, r6, #13
1000241c:	46be      	mov	lr, r7
1000241e:	4373      	muls	r3, r6
10002420:	0bdf      	lsrs	r7, r3, #15
10002422:	045b      	lsls	r3, r3, #17
10002424:	1ac0      	subs	r0, r0, r3
10002426:	41b9      	sbcs	r1, r7
10002428:	0c13      	lsrs	r3, r2, #16
1000242a:	4373      	muls	r3, r6
1000242c:	18db      	adds	r3, r3, r3
1000242e:	1ac9      	subs	r1, r1, r3
10002430:	08ce      	lsrs	r6, r1, #3
10002432:	4366      	muls	r6, r4
10002434:	0c36      	lsrs	r6, r6, #16
10002436:	44b6      	add	lr, r6
10002438:	b293      	uxth	r3, r2
1000243a:	4373      	muls	r3, r6
1000243c:	0f1f      	lsrs	r7, r3, #28
1000243e:	011b      	lsls	r3, r3, #4
10002440:	1ac0      	subs	r0, r0, r3
10002442:	41b9      	sbcs	r1, r7
10002444:	0c13      	lsrs	r3, r2, #16
10002446:	4373      	muls	r3, r6
10002448:	0b1f      	lsrs	r7, r3, #12
1000244a:	051b      	lsls	r3, r3, #20
1000244c:	1ac0      	subs	r0, r0, r3
1000244e:	41b9      	sbcs	r1, r7
10002450:	0d86      	lsrs	r6, r0, #22
10002452:	028f      	lsls	r7, r1, #10
10002454:	433e      	orrs	r6, r7
10002456:	4366      	muls	r6, r4
10002458:	0c36      	lsrs	r6, r6, #16
1000245a:	2d09      	cmp	r5, #9
1000245c:	db24      	blt.n	100024a8 <last0>
1000245e:	0a52      	lsrs	r2, r2, #9
10002460:	4372      	muls	r2, r6
10002462:	1a80      	subs	r0, r0, r2
10002464:	0377      	lsls	r7, r6, #13
10002466:	0a46      	lsrs	r6, r0, #9
10002468:	4366      	muls	r6, r4
1000246a:	0c36      	lsrs	r6, r6, #16
1000246c:	2316      	movs	r3, #22
1000246e:	1b5b      	subs	r3, r3, r5
10002470:	40de      	lsrs	r6, r3
10002472:	40df      	lsrs	r7, r3
10002474:	19bf      	adds	r7, r7, r6
10002476:	4664      	mov	r4, ip
10002478:	4366      	muls	r6, r4
1000247a:	1b82      	subs	r2, r0, r6
1000247c:	4670      	mov	r0, lr
1000247e:	3504      	adds	r5, #4
10002480:	3306      	adds	r3, #6
10002482:	0001      	movs	r1, r0
10002484:	40d9      	lsrs	r1, r3
10002486:	40a8      	lsls	r0, r5
10002488:	19c0      	adds	r0, r0, r7
1000248a:	d300      	bcc.n	1000248e <y64_x32+0xb6>
1000248c:	3101      	adds	r1, #1
1000248e:	42a2      	cmp	r2, r4
10002490:	d206      	bcs.n	100024a0 <y64_x32+0xc8>
10002492:	2300      	movs	r3, #0
10002494:	bdf0      	pop	{r4, r5, r6, r7, pc}
10002496:	0000      	.short	0x0000
10002498:	d0000000 	.word	0xd0000000
1000249c:	ffffffff 	.word	0xffffffff
100024a0:	1b12      	subs	r2, r2, r4
100024a2:	3001      	adds	r0, #1
100024a4:	d3f3      	bcc.n	1000248e <y64_x32+0xb6>
100024a6:	e7f1      	b.n	1000248c <y64_x32+0xb4>

100024a8 <last0>:
100024a8:	2709      	movs	r7, #9
100024aa:	1b7f      	subs	r7, r7, r5
100024ac:	40fe      	lsrs	r6, r7
100024ae:	4664      	mov	r4, ip
100024b0:	b2a2      	uxth	r2, r4
100024b2:	4372      	muls	r2, r6
100024b4:	1a80      	subs	r0, r0, r2
100024b6:	d200      	bcs.n	100024ba <last0+0x12>
100024b8:	3901      	subs	r1, #1
100024ba:	0c22      	lsrs	r2, r4, #16
100024bc:	4372      	muls	r2, r6
100024be:	0c13      	lsrs	r3, r2, #16
100024c0:	0412      	lsls	r2, r2, #16
100024c2:	1a82      	subs	r2, r0, r2
100024c4:	4199      	sbcs	r1, r3
100024c6:	000b      	movs	r3, r1
100024c8:	4670      	mov	r0, lr
100024ca:	3504      	adds	r5, #4
100024cc:	3713      	adds	r7, #19
100024ce:	0001      	movs	r1, r0
100024d0:	40f9      	lsrs	r1, r7
100024d2:	40a8      	lsls	r0, r5
100024d4:	1980      	adds	r0, r0, r6
100024d6:	d300      	bcc.n	100024da <last0+0x32>
100024d8:	3101      	adds	r1, #1
100024da:	2b00      	cmp	r3, #0
100024dc:	d102      	bne.n	100024e4 <last0+0x3c>
100024de:	42a2      	cmp	r2, r4
100024e0:	d20a      	bcs.n	100024f8 <last0+0x50>
100024e2:	bdf0      	pop	{r4, r5, r6, r7, pc}
100024e4:	3001      	adds	r0, #1
100024e6:	d300      	bcc.n	100024ea <last0+0x42>
100024e8:	3101      	adds	r1, #1
100024ea:	1b12      	subs	r2, r2, r4
100024ec:	d2fa      	bcs.n	100024e4 <last0+0x3c>
100024ee:	3b01      	subs	r3, #1
100024f0:	d1f8      	bne.n	100024e4 <last0+0x3c>
100024f2:	42a2      	cmp	r2, r4
100024f4:	d200      	bcs.n	100024f8 <last0+0x50>
100024f6:	bdf0      	pop	{r4, r5, r6, r7, pc}
100024f8:	3001      	adds	r0, #1
100024fa:	d300      	bcc.n	100024fe <last0+0x56>
100024fc:	3101      	adds	r1, #1
100024fe:	1b12      	subs	r2, r2, r4
10002500:	e7f7      	b.n	100024f2 <last0+0x4a>

10002502 <y64_x48>:
10002502:	b5f0      	push	{r4, r5, r6, r7, lr}
10002504:	0c1c      	lsrs	r4, r3, #16
10002506:	d000      	beq.n	1000250a <y64_x48+0x8>
10002508:	e080      	b.n	1000260c <y64_x64>
1000250a:	b40c      	push	{r2, r3}
1000250c:	2500      	movs	r5, #0
1000250e:	0a1c      	lsrs	r4, r3, #8
10002510:	d104      	bne.n	1000251c <y64_x48+0x1a>
10002512:	021b      	lsls	r3, r3, #8
10002514:	0e16      	lsrs	r6, r2, #24
10002516:	4333      	orrs	r3, r6
10002518:	0212      	lsls	r2, r2, #8
1000251a:	3508      	adds	r5, #8
1000251c:	0b1c      	lsrs	r4, r3, #12
1000251e:	d104      	bne.n	1000252a <y64_x48+0x28>
10002520:	011b      	lsls	r3, r3, #4
10002522:	0f16      	lsrs	r6, r2, #28
10002524:	4333      	orrs	r3, r6
10002526:	0112      	lsls	r2, r2, #4
10002528:	3504      	adds	r5, #4
1000252a:	0b9c      	lsrs	r4, r3, #14
1000252c:	d104      	bne.n	10002538 <y64_x48+0x36>
1000252e:	009b      	lsls	r3, r3, #2
10002530:	0f96      	lsrs	r6, r2, #30
10002532:	4333      	orrs	r3, r6
10002534:	0092      	lsls	r2, r2, #2
10002536:	3502      	adds	r5, #2
10002538:	0bdc      	lsrs	r4, r3, #15
1000253a:	d102      	bne.n	10002542 <y64_x48+0x40>
1000253c:	1892      	adds	r2, r2, r2
1000253e:	415b      	adcs	r3, r3
10002540:	3501      	adds	r5, #1
10002542:	001c      	movs	r4, r3
10002544:	1897      	adds	r7, r2, r2
10002546:	4164      	adcs	r4, r4
10002548:	3401      	adds	r4, #1
1000254a:	4f46      	ldr	r7, [pc, #280]	@ (10002664 <y64_x64+0x58>)
1000254c:	667c      	str	r4, [r7, #100]	@ 0x64
1000254e:	4c46      	ldr	r4, [pc, #280]	@ (10002668 <y64_x64+0x5c>)
10002550:	663c      	str	r4, [r7, #96]	@ 0x60
10002552:	0c0e      	lsrs	r6, r1, #16
10002554:	e7ff      	b.n	10002556 <y64_x48+0x54>
10002556:	e7ff      	b.n	10002558 <y64_x48+0x56>
10002558:	e7ff      	b.n	1000255a <y64_x48+0x58>
1000255a:	46c0      	nop			@ (mov r8, r8)
1000255c:	6f3c      	ldr	r4, [r7, #112]	@ 0x70
1000255e:	4366      	muls	r6, r4
10002560:	0c36      	lsrs	r6, r6, #16
10002562:	0377      	lsls	r7, r6, #13
10002564:	46be      	mov	lr, r7
10002566:	b297      	uxth	r7, r2
10002568:	4377      	muls	r7, r6
1000256a:	1bc0      	subs	r0, r0, r7
1000256c:	d200      	bcs.n	10002570 <y64_x48+0x6e>
1000256e:	3901      	subs	r1, #1
10002570:	1bc0      	subs	r0, r0, r7
10002572:	d200      	bcs.n	10002576 <y64_x48+0x74>
10002574:	3901      	subs	r1, #1
10002576:	b29f      	uxth	r7, r3
10002578:	4377      	muls	r7, r6
1000257a:	1bc9      	subs	r1, r1, r7
1000257c:	1bc9      	subs	r1, r1, r7
1000257e:	0c17      	lsrs	r7, r2, #16
10002580:	4377      	muls	r7, r6
10002582:	047e      	lsls	r6, r7, #17
10002584:	0bff      	lsrs	r7, r7, #15
10002586:	1b80      	subs	r0, r0, r6
10002588:	41b9      	sbcs	r1, r7
1000258a:	08ce      	lsrs	r6, r1, #3
1000258c:	4366      	muls	r6, r4
1000258e:	0c36      	lsrs	r6, r6, #16
10002590:	2d0c      	cmp	r5, #12
10002592:	db33      	blt.n	100025fc <last1>
10002594:	44b6      	add	lr, r6
10002596:	0b12      	lsrs	r2, r2, #12
10002598:	051f      	lsls	r7, r3, #20
1000259a:	433a      	orrs	r2, r7
1000259c:	0b1b      	lsrs	r3, r3, #12
1000259e:	b297      	uxth	r7, r2
100025a0:	4377      	muls	r7, r6
100025a2:	1bc0      	subs	r0, r0, r7
100025a4:	d200      	bcs.n	100025a8 <y64_x48+0xa6>
100025a6:	3901      	subs	r1, #1
100025a8:	b29f      	uxth	r7, r3
100025aa:	4377      	muls	r7, r6
100025ac:	1bc9      	subs	r1, r1, r7
100025ae:	0c17      	lsrs	r7, r2, #16
100025b0:	4377      	muls	r7, r6
100025b2:	043e      	lsls	r6, r7, #16
100025b4:	0c3f      	lsrs	r7, r7, #16
100025b6:	1b80      	subs	r0, r0, r6
100025b8:	41b9      	sbcs	r1, r7
100025ba:	0d86      	lsrs	r6, r0, #22
100025bc:	028f      	lsls	r7, r1, #10
100025be:	433e      	orrs	r6, r7
100025c0:	4366      	muls	r6, r4
100025c2:	2729      	movs	r7, #41	@ 0x29
100025c4:	1b7f      	subs	r7, r7, r5
100025c6:	40fe      	lsrs	r6, r7
100025c8:	3d0c      	subs	r5, #12
100025ca:	4677      	mov	r7, lr
100025cc:	40af      	lsls	r7, r5
100025ce:	19bf      	adds	r7, r7, r6
100025d0:	bc30      	pop	{r4, r5}
100025d2:	b2a2      	uxth	r2, r4
100025d4:	b2ab      	uxth	r3, r5
100025d6:	4372      	muls	r2, r6
100025d8:	4373      	muls	r3, r6
100025da:	1a80      	subs	r0, r0, r2
100025dc:	4199      	sbcs	r1, r3
100025de:	0c22      	lsrs	r2, r4, #16
100025e0:	4372      	muls	r2, r6
100025e2:	0c13      	lsrs	r3, r2, #16
100025e4:	0412      	lsls	r2, r2, #16
100025e6:	1a80      	subs	r0, r0, r2
100025e8:	4199      	sbcs	r1, r3
100025ea:	0002      	movs	r2, r0
100025ec:	000b      	movs	r3, r1
100025ee:	3701      	adds	r7, #1
100025f0:	1b00      	subs	r0, r0, r4
100025f2:	41a9      	sbcs	r1, r5
100025f4:	d2f9      	bcs.n	100025ea <y64_x48+0xe8>
100025f6:	1e78      	subs	r0, r7, #1
100025f8:	2100      	movs	r1, #0
100025fa:	bdf0      	pop	{r4, r5, r6, r7, pc}

100025fc <last1>:
100025fc:	270c      	movs	r7, #12
100025fe:	1b7f      	subs	r7, r7, r5
10002600:	40fe      	lsrs	r6, r7
10002602:	4677      	mov	r7, lr
10002604:	0b7f      	lsrs	r7, r7, #13
10002606:	40af      	lsls	r7, r5
10002608:	19ff      	adds	r7, r7, r7
1000260a:	e7e0      	b.n	100025ce <y64_x48+0xcc>

1000260c <y64_x64>:
1000260c:	2400      	movs	r4, #0
1000260e:	1c5d      	adds	r5, r3, #1
10002610:	d007      	beq.n	10002622 <y64_x64+0x16>
10002612:	4f14      	ldr	r7, [pc, #80]	@ (10002664 <y64_x64+0x58>)
10002614:	667d      	str	r5, [r7, #100]	@ 0x64
10002616:	6639      	str	r1, [r7, #96]	@ 0x60
10002618:	e7ff      	b.n	1000261a <y64_x64+0xe>
1000261a:	e7ff      	b.n	1000261c <y64_x64+0x10>
1000261c:	e7ff      	b.n	1000261e <y64_x64+0x12>
1000261e:	e7ff      	b.n	10002620 <y64_x64+0x14>
10002620:	6f3c      	ldr	r4, [r7, #112]	@ 0x70
10002622:	b295      	uxth	r5, r2
10002624:	b29e      	uxth	r6, r3
10002626:	4365      	muls	r5, r4
10002628:	4366      	muls	r6, r4
1000262a:	1b40      	subs	r0, r0, r5
1000262c:	41b1      	sbcs	r1, r6
1000262e:	0c15      	lsrs	r5, r2, #16
10002630:	0c1e      	lsrs	r6, r3, #16
10002632:	4365      	muls	r5, r4
10002634:	4366      	muls	r6, r4
10002636:	0436      	lsls	r6, r6, #16
10002638:	0c2f      	lsrs	r7, r5, #16
1000263a:	433e      	orrs	r6, r7
1000263c:	042d      	lsls	r5, r5, #16
1000263e:	1b40      	subs	r0, r0, r5
10002640:	41b1      	sbcs	r1, r6
10002642:	4299      	cmp	r1, r3
10002644:	d204      	bcs.n	10002650 <y64_x64+0x44>
10002646:	0002      	movs	r2, r0
10002648:	000b      	movs	r3, r1
1000264a:	0020      	movs	r0, r4
1000264c:	2100      	movs	r1, #0
1000264e:	bdf0      	pop	{r4, r5, r6, r7, pc}
10002650:	d101      	bne.n	10002656 <y64_x64+0x4a>
10002652:	4290      	cmp	r0, r2
10002654:	d3f7      	bcc.n	10002646 <y64_x64+0x3a>
10002656:	1a80      	subs	r0, r0, r2
10002658:	4199      	sbcs	r1, r3
1000265a:	3401      	adds	r4, #1
1000265c:	4299      	cmp	r1, r3
1000265e:	d3f2      	bcc.n	10002646 <y64_x64+0x3a>
10002660:	e7f6      	b.n	10002650 <y64_x64+0x44>
10002662:	0000      	.short	0x0000
10002664:	d0000000 	.word	0xd0000000
10002668:	ffffffff 	.word	0xffffffff

1000266c <__wrap___aeabi_drsub>:
1000266c:	4048      	eors	r0, r1
1000266e:	4041      	eors	r1, r0
10002670:	4048      	eors	r0, r1

10002672 <__wrap___aeabi_dsub>:
10002672:	b418      	push	{r3, r4}
10002674:	4b1b      	ldr	r3, [pc, #108]	@ (100026e4 <__wrap___aeabi_dmul+0x12>)
10002676:	685b      	ldr	r3, [r3, #4]
10002678:	46fc      	mov	ip, pc
1000267a:	9301      	str	r3, [sp, #4]
1000267c:	bd08      	pop	{r3, pc}
1000267e:	df04      	.short	0xdf04
10002680:	10002947 	.word	0x10002947

10002684 <__wrap___aeabi_dadd>:
10002684:	b418      	push	{r3, r4}
10002686:	4b17      	ldr	r3, [pc, #92]	@ (100026e4 <__wrap___aeabi_dmul+0x12>)
10002688:	681b      	ldr	r3, [r3, #0]
1000268a:	46fc      	mov	ip, pc
1000268c:	9301      	str	r3, [sp, #4]
1000268e:	bd08      	pop	{r3, pc}
10002690:	2951df00 	.word	0x2951df00
10002694:	1000      	.short	0x1000

10002696 <__wrap___aeabi_ddiv>:
10002696:	4694      	mov	ip, r2
10002698:	4a13      	ldr	r2, [pc, #76]	@ (100026e8 <__wrap___aeabi_dmul+0x16>)
1000269a:	6f92      	ldr	r2, [r2, #120]	@ 0x78
1000269c:	0892      	lsrs	r2, r2, #2
1000269e:	d209      	bcs.n	100026b4 <ddiv_save_state>
100026a0:	4662      	mov	r2, ip

100026a2 <ddiv_shim_call>:
100026a2:	b418      	push	{r3, r4}
100026a4:	4b0f      	ldr	r3, [pc, #60]	@ (100026e4 <__wrap___aeabi_dmul+0x12>)
100026a6:	68db      	ldr	r3, [r3, #12]
100026a8:	46fc      	mov	ip, pc
100026aa:	9301      	str	r3, [sp, #4]
100026ac:	bd08      	pop	{r3, pc}
100026ae:	df0c      	.short	0xdf0c
100026b0:	10002c09 	.word	0x10002c09

100026b4 <ddiv_save_state>:
100026b4:	4a0c      	ldr	r2, [pc, #48]	@ (100026e8 <__wrap___aeabi_dmul+0x16>)
100026b6:	b5f0      	push	{r4, r5, r6, r7, lr}
100026b8:	6e14      	ldr	r4, [r2, #96]	@ 0x60
100026ba:	6e55      	ldr	r5, [r2, #100]	@ 0x64
100026bc:	6f57      	ldr	r7, [r2, #116]	@ 0x74
100026be:	6f16      	ldr	r6, [r2, #112]	@ 0x70
100026c0:	4662      	mov	r2, ip
100026c2:	f7ff ffee 	bl	100026a2 <ddiv_shim_call>
100026c6:	4a08      	ldr	r2, [pc, #32]	@ (100026e8 <__wrap___aeabi_dmul+0x16>)
100026c8:	6614      	str	r4, [r2, #96]	@ 0x60
100026ca:	6655      	str	r5, [r2, #100]	@ 0x64
100026cc:	6757      	str	r7, [r2, #116]	@ 0x74
100026ce:	6716      	str	r6, [r2, #112]	@ 0x70
100026d0:	bdf0      	pop	{r4, r5, r6, r7, pc}

100026d2 <__wrap___aeabi_dmul>:
100026d2:	b418      	push	{r3, r4}
100026d4:	4b03      	ldr	r3, [pc, #12]	@ (100026e4 <__wrap___aeabi_dmul+0x12>)
100026d6:	689b      	ldr	r3, [r3, #8]
100026d8:	46fc      	mov	ip, pc
100026da:	9301      	str	r3, [sp, #4]
100026dc:	bd08      	pop	{r3, pc}
100026de:	df08      	.short	0xdf08
100026e0:	10002aad 	.word	0x10002aad
100026e4:	20001bb0 	.word	0x20001bb0
100026e8:	d0000000 	.word	0xd0000000

100026ec <__wrap___aeabi_cdrcmple>:
100026ec:	b5ff      	push	{r0, r1, r2, r3, r4, r5, r6, r7, lr}
100026ee:	4050      	eors	r0, r2
100026f0:	4042      	eors	r2, r0
100026f2:	4050      	eors	r0, r2
100026f4:	4059      	eors	r1, r3
100026f6:	404b      	eors	r3, r1
100026f8:	4059      	eors	r1, r3
100026fa:	e000      	b.n	100026fe <__aeabi_dfcmple_guts>

100026fc <__wrap___aeabi_cdcmpeq>:
100026fc:	b5ff      	push	{r0, r1, r2, r3, r4, r5, r6, r7, lr}

100026fe <__aeabi_dfcmple_guts>:
100026fe:	4f15      	ldr	r7, [pc, #84]	@ (10002754 <__aeabi_dfcmple_guts+0x56>)
10002700:	004c      	lsls	r4, r1, #1
10002702:	0d64      	lsrs	r4, r4, #21
10002704:	d003      	beq.n	1000270e <__aeabi_dfcmple_guts+0x10>
10002706:	42bc      	cmp	r4, r7
10002708:	d104      	bne.n	10002714 <__aeabi_dfcmple_guts+0x16>
1000270a:	030c      	lsls	r4, r1, #12
1000270c:	d814      	bhi.n	10002738 <__aeabi_dfcmple_guts+0x3a>
1000270e:	2000      	movs	r0, #0
10002710:	0d09      	lsrs	r1, r1, #20
10002712:	0509      	lsls	r1, r1, #20
10002714:	005c      	lsls	r4, r3, #1
10002716:	0d64      	lsrs	r4, r4, #21
10002718:	d003      	beq.n	10002722 <__aeabi_dfcmple_guts+0x24>
1000271a:	42bc      	cmp	r4, r7
1000271c:	d104      	bne.n	10002728 <__aeabi_dfcmple_guts+0x2a>
1000271e:	031c      	lsls	r4, r3, #12
10002720:	d80a      	bhi.n	10002738 <__aeabi_dfcmple_guts+0x3a>
10002722:	2200      	movs	r2, #0
10002724:	0d1b      	lsrs	r3, r3, #20
10002726:	051b      	lsls	r3, r3, #20
10002728:	2601      	movs	r6, #1
1000272a:	404b      	eors	r3, r1
1000272c:	d409      	bmi.n	10002742 <__aeabi_dfcmple_guts+0x44>
1000272e:	404b      	eors	r3, r1
10002730:	d503      	bpl.n	1000273a <__aeabi_dfcmple_guts+0x3c>
10002732:	428b      	cmp	r3, r1
10002734:	d100      	bne.n	10002738 <__aeabi_dfcmple_guts+0x3a>
10002736:	4282      	cmp	r2, r0
10002738:	bdff      	pop	{r0, r1, r2, r3, r4, r5, r6, r7, pc}
1000273a:	4299      	cmp	r1, r3
1000273c:	d1fc      	bne.n	10002738 <__aeabi_dfcmple_guts+0x3a>
1000273e:	4290      	cmp	r0, r2
10002740:	bdff      	pop	{r0, r1, r2, r3, r4, r5, r6, r7, pc}
10002742:	430b      	orrs	r3, r1
10002744:	18db      	adds	r3, r3, r3
10002746:	4303      	orrs	r3, r0
10002748:	4313      	orrs	r3, r2
1000274a:	d0f5      	beq.n	10002738 <__aeabi_dfcmple_guts+0x3a>
1000274c:	43c9      	mvns	r1, r1
1000274e:	1849      	adds	r1, r1, r1
10002750:	bdff      	pop	{r0, r1, r2, r3, r4, r5, r6, r7, pc}
10002752:	0000      	.short	0x0000
10002754:	000007ff 	.word	0x000007ff

10002758 <__wrap___aeabi_dcmplt>:
10002758:	b500      	push	{lr}
1000275a:	f7ff ffcf 	bl	100026fc <__wrap___aeabi_cdcmpeq>
1000275e:	4180      	sbcs	r0, r0
10002760:	bd00      	pop	{pc}
10002762:	46c0      	nop			@ (mov r8, r8)

10002764 <__wrap___aeabi_dcmple>:
10002764:	b500      	push	{lr}
10002766:	f7ff ffc9 	bl	100026fc <__wrap___aeabi_cdcmpeq>
1000276a:	d901      	bls.n	10002770 <__wrap___aeabi_dcmple+0xc>
1000276c:	2000      	movs	r0, #0
1000276e:	bd00      	pop	{pc}
10002770:	2001      	movs	r0, #1
10002772:	bd00      	pop	{pc}

10002774 <__wrap___aeabi_dcmpge>:
10002774:	b500      	push	{lr}
10002776:	f7ff ffb9 	bl	100026ec <__wrap___aeabi_cdrcmple>
1000277a:	d901      	bls.n	10002780 <__wrap___aeabi_dcmpge+0xc>
1000277c:	2000      	movs	r0, #0
1000277e:	bd00      	pop	{pc}
10002780:	2001      	movs	r0, #1
10002782:	bd00      	pop	{pc}

10002784 <__wrap___aeabi_dcmpgt>:
10002784:	b500      	push	{lr}
10002786:	f7ff ffb1 	bl	100026ec <__wrap___aeabi_cdrcmple>
1000278a:	4180      	sbcs	r0, r0
1000278c:	bd00      	pop	{pc}

1000278e <__wrap___aeabi_dcmpun>:
1000278e:	2001      	movs	r0, #1
10002790:	0540      	lsls	r0, r0, #21
10002792:	004a      	lsls	r2, r1, #1
10002794:	1812      	adds	r2, r2, r0
10002796:	d804      	bhi.n	100027a2 <__wrap___aeabi_dcmpun+0x14>
10002798:	005a      	lsls	r2, r3, #1
1000279a:	1812      	adds	r2, r2, r0
1000279c:	d801      	bhi.n	100027a2 <__wrap___aeabi_dcmpun+0x14>
1000279e:	2000      	movs	r0, #0
100027a0:	4770      	bx	lr
100027a2:	2001      	movs	r0, #1
100027a4:	4770      	bx	lr
	...

100027a8 <__wrap___aeabi_ui2d>:
100027a8:	2100      	movs	r1, #0
100027aa:	2800      	cmp	r0, #0
100027ac:	d105      	bne.n	100027ba <__wrap___aeabi_i2d+0xa>
100027ae:	4770      	bx	lr

100027b0 <__wrap___aeabi_i2d>:
100027b0:	17c1      	asrs	r1, r0, #31
100027b2:	4048      	eors	r0, r1
100027b4:	1a40      	subs	r0, r0, r1
100027b6:	d0fa      	beq.n	100027ae <__wrap___aeabi_ui2d+0x6>
100027b8:	07c9      	lsls	r1, r1, #31
100027ba:	b513      	push	{r0, r1, r4, lr}
100027bc:	4b06      	ldr	r3, [pc, #24]	@ (100027d8 <__wrap___aeabi_i2d+0x28>)
100027be:	681b      	ldr	r3, [r3, #0]
